:10000000C0110020BD070000952C0000A9070000CA
:10001000A9070000A9070000A907000000000000D0
:100020000000000000000000000000007D0800004B
:10003000A9070000000000001D080000A90700003B
:10004000FD090000FD090000FD090000FD09000098
:10005000FD090000FD090000FD090000FD09000088
:10006000FD090000FD090000FD090000FD09000078
:10007000FD090000FD090000FD090000FD09000068
:10008000FD090000FD090000FD090000FD09000058
:10009000FD090000FD090000FD090000FD09000048
:1000A000FD090000FD090000FD090000FD09000038
:1000B000FD090000FD090000FD090000FD09000028
:1000C000FD090000FD090000FD090000FD09000018
:0800D000FD090000FD0900001C
:1000D80053B94AB9002908BF00281CBF4FF0FF31A7
:1000E8004FF0FF3000F00CB8ADF1080C6DE904CE0C
:1000F80000F008F8DDF804E0DDE9022304B07047F9
:10010800704700BF2DE9F04786468C460846089E92
:10011800154674461946002B40F0C2808542B2FA53
:1001280082F245D94AB1C2F1200300FA02FC2EFA44
:1001380003F3954043EA0C0C94404FEA154EA8B2DD
:10014800BCFBFEF8230C0EFB18CC08FB00F943EAB5
:100158000C43994528D9EB1808F1FF3704D2994583
:1001680002D9A8F102072B44A3EB0903A4B2B3FBFD
:10017800FEFC0EFB1C330CFB00F044EA0344A042D7
:1001880014D92C190CF1FF3304D2A04202D9ACF1D6
:1001980002032C44241A43EA07401EB1D44000232A
:1001A80034607360BDE8F0874746DDE76346F1E7F2
:1001B80092BB431B01214FEA154EAFB2B3FBFEFCC5
:1001C800200C0EFB1C330CFB07F840EA0343984550
:1001D80062D9EB180CF1FF3004D2984502D9ACF182
:1001E80002002B44A3EB0803A4B2B3FBFEFC0EFBF6
:1001F8001C330CFB07F744EA0344A7424ED92C19D9
:100208000CF1FF3304D2A74202D9ACF102032C440B
:10021800E41B43EA0040C0E7C2F1200320FA03F1DF
:10022800954090402EFA03F303434FEA154EAFB2C0
:10023800B1FBFEFC0EFB1C10190C0CFB07F841EA85
:100248000041884504FA02F422D969180CF1FF30FC
:1002580004D2884502D9ACF102002944A1EB080177
:100268009BB2B1FBFEFC0EFB1C110CFB07F743EA2B
:1002780001439F420ED9EB180CF1FF3104D29F4283
:1002880002D9ACF102012B44DB1B41EA004192E7A1
:100298006046E3E76146F7E76046A3E76346B7E7EA
:1002A800834206D916B9002108467BE7C6E900E073
:1002B800F9E7B3FA83F78FB9834201D3724508D8B7
:1002C800BEEB020460EB030301209C461EB900212B
:1002D80068E73846FAE7C6E9004CF8E7C7F1200CAA
:1002E800BB4022FA0CF41C432EFA0CF120FA0CF352
:1002F800B84001434FEA14490EFA07F5B3FBF9F881
:100308001FFA84FE09FB18300B0C08FB0EFA43EAAF
:1003180000439A4502FA07F240D9E31808F1FF3082
:1003280004D29A4502D9A8F102002344A3EB0A0398
:1003380089B2B3FBF9F809FB183308FB0EFE41EA52
:1003480003418E452CD9611808F1FF3304D28E453C
:1003580002D9A8F10203214443EA0040A0FB029815
:10036800A1EB0E014145CE46434602D306D14D4589
:1003780004D2B9EB020E68EB04030138002EA6D0B4
:10038800B5EB0E0261EB030101FA0CFC22FA07F34C
:100398004CEA0303F940C6E9003198E74046C5E74F
:1003A8004346D9E773B5154803F04CF860B1134CD0
:1003B800134EA5681148EB6840219847002809DAD0
:1003C800104802F049FCF5E70F4802B0BDE870405C
:1003D80002F042BC10212B696A4620469847002843
:1003E80001DA0A48EDE7DDE90012304602F034FC94
:1003F80000214FF4004003F001F9DBE71439000055
:10040800913B00005F3B0000483B0000773B000049
:10041800014B1B68184700BF00000020014B186003
:10042800704700BF0000002030B585B004460D4677
:1004380010220021684603F054F902238DF8023097
:100448002A46044B01932146684602F03DF905B05F
:1004580030BD00BF1904000080B505460E4617469A
:10046800984601F0BFFE034603F0A6F9DFF818909E
:10047800044649F80030424630463946A84754F801
:10048800090000F0B1F900BF08000000014B03604B
:1004980000207047D439000030BFFFF7FDBF00BF10
:1004A8002DE9F0410B4EDFF8308006EB0807CC1B36
:1004B800054632460949204603F005F9A019424687
:1004C8000021083C03F00DF92C6707F10800BDE88E
:1004D800F08100BF0000000004000000D4390000D3
:1004E800054B5A699B689A421FBF044A536843F0F8
:1004F80080535360704700BFA003002000ED00E068
:1005080070B5264B15469A6A12F0100F9A6A14BFF6
:100518001124102412F0080F9A6A18BF12249207A7
:1005280006460AD5586B9A6A140634D519B19A6AE0
:1005380022F080029A62132401E06FF01500174B35
:100548009A6A12F0010F9A6A18BF142412F0200F49
:100558009A6A18BF1524D20602D49B6A9B070AD54B
:100568000E4B5B68190506D5314600F0FDF910B150
:1005780080F309880224094B9A6A920642BF5A6A94
:1005880022F400525A629A6A42F0FF029A620023E9
:100598002B70204670BD6FF01500CCE700ED00E031
:1005A800134B9A6A12F0007F9A6A14BF1E201D200E
:1005B80012F0807F9A6A18BF1F2012F4002F9A6ADF
:1005C80018BF212012F4802F9A6A18BF222012F433
:1005D800003F9A6A18BF232012F4803F9A6A6FEA94
:1005E80002426FEA12429A6218BF2420704700BF85
:1005F80000ED00E010B5194B0246986A9C6A10F4A9
:10060800805F14BF1720162014F4006F9C6A18BF6F
:100618001820A40509D5986B986A000404D51AB166
:100628009A6A22F400429A6219200C4B9A6A12F4D0
:10063800806F9A6A18BF1A20D2050CD49B6A13F4EB
:10064800005F18BF1C20054A936A43F47F439362F6
:1006580000230B7010BD1B20F5E700BF00ED00E084
:10066800F0B5484B5B688BB00446C3F3080300251C
:1006780085F31188BFF36F8F02F07F40B0F17F4F91
:1006880011D102F00C0008280DD010074CBF0C4601
:1006980001250022033B8DF80720032B05D8DFE84E
:1006A80003F0246367602C46F3E700239DF80720D6
:1006B800CAB902AE04F1200720686168324603C255
:1006C8000834BC421646F7D1099A002D54D0C2F31B
:1006D800080121B96FEA52226FEA4222099202A95F
:1006E800184602F0C9FA0BB0F0BD264BDA6A91073A
:1006F800DBD4DA6A002AD8DBDA6A5200D5D55A691F
:10070800A16942F480725A61BFF34F8FBFF36F8FB4
:100718005A6931F8021C22F480725A61BFF34F8F74
:10072800BFF36F8F4DF6027291420AD09A6AD2B225
:100738004AB10DF1070201212046FFF7E1FE034609
:10074800B4E72368B2E79A6A12F47F4F05D00DF137
:1007580007010120FFF74EFFF1E79B6AB3F5803FE1
:10076800A3D3FFF71DFFEAE70DF107020021E3E736
:100778000DF107010020EDE722F4FF7222F00102DB
:10078800ACE700BF00ED00E0044B5A6942F01002EC
:100798005A615A6922F008025A61704700ED00E078
:1007A800EFF30880EFF3098101B57246FFF758FFB0
:1007B80001BD00BF0A4880F30888202080F3118813
:1007C80008484FF40461401880F30988EFF3148057
:1007D8000221084380F31488BFF36F8F00F08CF870
:1007E800C011002000040020084B9B6883420BD1F5
:1007F800EFF3058343B1064B5A6842F080525A60C2
:100808005A6A22F400425A6201F0F2BCA0030020A6
:1008180000ED00E014498A684FF030001044EFF30F
:10082800098C80E8F01F202080F31288BFF36F8FB7
:100838000E4F4FF000664A698A603E60106F0C4C9C
:100848002060506F0023536780F3118804B5104669
:1008580000F0EEF8BDE8044002F1300090E8F01F27
:100868008CF3098870470000A003002004ED00E025
:10087800400300201EF0040F0CBFEFF30880EFF3D5
:100888000980816911F8021C0229FFD001B572465E
:1008980002F0F8F901BD00BF0028ACBF00F16040CC
:1008A800064B4FEA4111ACBF00F5614000F00F0064
:1008B800C9B2B4BF195480F80013704714ED00E0B2
:1008C80040B2002807DB044A4109012300F01F0059
:1008D800834042F82130704700E100E0044B054AAC
:1008E80023F07F039360BFF34F8FBFF36F8F704781
:1008F8000000000000ED00E008B5FFF7EFFF0B4A2D
:10090800D2F8883023F47003C2F88830EFF31483E8
:1009180023F0040383F31488BFF36F8F00F0A0FF64
:1009280001F088FD00F05AF800F0DEFF00ED00E06D
:1009380042F8203C009B42F81C3C0A49019B42F8C3
:10094800183C029B42F8143C21F001014FF08073DF
:1009580042F8043C42F8081C0023203A0265436729
:10096800704700BF61040000094A0346906870B1EF
:1009780013F1160F006E05D0A0F140029A4205D877
:10098800834203D2814228BF00207047002070476D
:10099800A003002008B51546094A0A4B9060026F6B
:1009A8001A600E4600F044F82C4686F309880020A9
:1009B800054B98472046002100220023034C20477E
:1009C800A003002040030020B32C000061040000B5
:1009D800014B10221A61704700ED00E00448002323
:1009E8002021C2180133262B82F80013F9D1704751
:1009F80000E100E008B5EFF30583064A103B02EB7F
:100A0800C30152F8330049688847BDE80840FFF73A
:100A180067BD00BF58000020024B034A034801216C
:100A280000F076B80040022000000020D439000011
:100A3800026E054B403A1A60044A4021C3E901128C
:100A48001846012100F06EB84403002000000B1581
:100A5800084AC2F898000B6823F01F03034343F0C9
:100A68001003C2F89C308B6843F00103C2F8A03031
:100A7800704700BF00ED00E02DE9F043DFF860802B
:100A880085B00E461F4604464FF00009B14523DAEB
:100A98006068D8B13FB1411E08421BD11F2819D93F
:100AA8002368194216D12368019302F012F9A3684A
:100AB80003430393D8F89050C5F30725D0B2013DFE
:100AC800A84207D801A9FFF7C3FF421C09F1010991
:100AD8000C34DBE76FF01502104605B0BDE8F08373
:100AE80000ED00E0044B0522C3F89420BFF34F8FBC
:100AF800BFF36F8F704700BF00ED00E0BFF35F8F5B
:100B0800024B0022C3F89420704700BF00ED00E0BC
:100B180010B5034C01232278FFF7AEFF207010BDFB
:100B2800D203002008B50B4A00231278FFF7A4FF70
:100B380010F1160F07D0084A0021D2F89030C3F3FD
:100B48000723984200DB08BDC2F89800C2F8A0103D
:100B58000130F2E7D203002000ED00E02DE9F04378
:100B6800534B544CD3F890302568C3F307239D4268
:100B780085B000F29A80FFF7C1FF00200C2685425D
:100B88001AD14D4C4D4F25706846FFF77FFCDFF8B2
:100B98002081DFF82C9106460025AE4213D1237838
:100BA80043490020D1F89020C2F30722934276DB14
:100BB800FFF798FF002042E0616806FB0011FFF78D
:100BC80047FF0130DBE7009800EB05114FEA051CF1
:100BD800CB683B40B3F5000F48D00AD8B3F5001FE7
:100BE80030D0B3F5800F36D0B3F5801F10D0013563
:100BF800D3E7B3F1807F42D0B3F1007FF7D150F84B
:100C08000C3088684A6802F064F840F4802009E0F3
:100C180050F80C3088684A6802F05BF840F0885059
:100C280040F43020CDE901230390D8F890302078A3
:100C3800C3F30723013B98422AD96FF0150005B08A
:100C4800BDE8F08350F80C3088684A6802F041F833
:100C580040EA0900E6E750F80C3088684A6802F074
:100C680038F840F0E06040F40030DBE750F80C3032
:100C780088684A6802F02DF840F08270D2E750F890
:100C88000C3088684A6802F024F840F08870C9E798
:100C980001A9FFF7DDFE237801332370A7E7C1F828
:100CA8009830C1F8A00001337CE74FF0FF30C6E769
:100CB80000ED00E0E0390000D20300200000F0FF62
:100CC8000000081108B5024B1B689847002008BDB2
:100CD80050030020034B044A1860937843F0020342
:100CE80093707047500300200400002008B506499F
:100CF800064821F00701C1F1005202F5103201F057
:100D08006CFF002008BD00BF07120020540300201C
:100D180010B5084C0848002101F0F0FF20460021DA
:100D280001F0FBFF04F10800002101F0F6FF0020AC
:100D380010BD00BF003A0000103A000008B507488F
:100D480002F080FB38B10648FFF7C4FF0448FFF7FC
:100D580065FB002008BD6FF01200FBE77438000047
:100D68006D0D00000A2838B5074D044604D1AB685C
:100D78000D215B6828469847AB6803485B68E1B279
:100D88009847204638BD00BF74380000F8B502F413
:100D98004034B4F5803F0E46154614D0B4F5003FF4
:100DA8004BD0002C58D14FF080534FF4C042D3F8A9
:100DB800B43121461B68304698472A4B43EA8603DC
:100DC8001C600020F8BD4FF00052AB0503F08043D3
:100DD800134315F4C06204D0B2F5C06F3CD143F49C
:100DE800306305F03002102A29D0202A2AD0002AA0
:100DF80035D143F4C0444FF080573046D7F8B4316A
:100E08005B689847D7F8B43100F4E0221B682243A6
:100E1800002130469847134A15F4003342EA860207
:100E280009D015F4002F4FF001030ED00E49B3403E
:100E3800C1F8903001231360C3E70022C5E743F4EB
:100E48008044D8E743F40054D5E7690342BF064914
:100E5800B340C1F8A030EDE76FF08500B2E76FF05E
:100E68001500AFE7001A444200200240024BD3F8B5
:100E7800C0300B600020704700200240054B01EA9B
:100E8800020021EA0201C3F89000C3F8A010002074
:100E9800704700BF00200240024B0020C3F89010AA
:100EA800704700BF00200240024B0020C3F8A0108A
:100EB800704700BF00200240024B0020C3F8B0106A
:100EC800704700BF00200240014BD3F8E000704794
:100ED8000020024010B54FF080540420D4F8B831F7
:100EE8005B699847D4F8B8314FF4A060DB6998473C
:100EF8000E4B01229A620E4A936A9B07FCD50D4A53
:100F0800136823F47C5343F4005313600022104603
:100F1800114601F0C2FE0020FFF7D2FC042000F0C9
:100F2800D1FB0128FAD1002010BD00BF00200860C5
:100F3800002008400030094070B50C4B0269D3F816
:100F4800E060C3F8E0605168054609B10C6801B972
:100F580070BD8A68324002D04B68284698471CB159
:100F6800236821461C46F2E72346FAE700200240A0
:100F7800C1F34203012B10B512D0022B12D101226A
:100F8800CB060FD511F001040CD14FF08053406807
:100F9800D3F8AC3100681B6804499847204610BD57
:100FA8000022EDE76FF00400F9E700BF006CDC02F7
:100FB80073B54FF080544668D4F8B83105465B697C
:100FC80002209847D4F8B8314FF44070DB6998474D
:100FD800D4F8B8314FF440705B6A9847D4F8B83108
:100FE8004FF44070DB6A9847164B01229A62164A02
:100FF800936A9B07FCD5022000F064FB0128044695
:10100800F9D10022114601F048FE2046FFF758FCAE
:10101800706801AA002102F04BF800280FDB019B41
:1010280000221979186802F056F8002807DB142105
:101038002846FFF79DFF10B93368C3F8104802B07F
:1010480070BD00BF0020086000200840F7B5446864
:1010580005690646206802F0F5F918B96FF0120024
:1010680003B0F0BD01AAFC21204602F024F90028B3
:10107800F6DBBDF8042045F249439A4269D1BDF830
:101088000630B3F5FA6F64D1706880220E2102F041
:1010980034F90028E4DB2120002102F0AFFAA0682F
:1010A8000028DDD002F0CEF90028D7D0E389A06867
:1010B800217B43F480320769D0F808C013F0010F90
:1010C8004FF001063B6806FA01F614BF3343B343F9
:1010D8003B60DCF8003098470028C1D1237B1E4ACA
:1010E800012606FA03F3C5E90123A0688368DB69D2
:1010F80013B96FF05700B3E73246294698470028DE
:10110800AED1A068217B826803699769002FF0D06F
:101118001B688E401E4214BF4FF000734FF080636F
:101128004FF0A072B84700289AD14FF0FF3201461D
:1011380005F10C0002F0ECF980220721204602F0AC
:10114800DCF800288CD104220E21204602F0D5F8C4
:1011580086E76FF0150083E7B73200002DE9F0410C
:101168000B79042B0C4653D82B4AD35C4A79032AB3
:101178004ED8DFE802F04A044A0243F00803A27995
:10118800032A45D8DFE802F00402383B43F0200385
:10119800E779012F03D0022F37D0002F38D14FF035
:1011A80080524568D2F8D0210669D2F804802268B6
:1011B800D5E90001C0472B6840F2F2725A642B68E7
:1011C8001A6BFFB142F440421A632A68D36A43F0AB
:1011D8001003D362136B43F4407343F001031363AA
:1011E8002A68D36A23F01003D36294E8030086E8E0
:1011F80003000020BDE8F08143F04003C8E743F056
:101208006003C5E722F44042DEE76FF08500F1E7AE
:101218006FF01500EEE700BF103C000070B54FF00E
:1012280080550669D5F8B83104465B6904209847AB
:10123800D5F8B83140F20120DB699847D5F8B831C4
:1012480040F201205B6A98470B4B01229A620B4AD5
:10125800936A9B07FCD5042000F034FA0128FAD1E0
:10126800B06802F0C9F8002805DB31462046BDE821
:101278007040FFF773BF70BD002008600020084071
:1012880070B54FF080550669D5F8B83104465B69EA
:1012980002209847D5F8B8314FF40070DB699847B9
:1012A800D5F8B8314FF400705B6A98470B4B0122B0
:1012B8009A620B4A936A9B07FCD5022000F002FA57
:1012C8000128FAD1B06802F097F8002805DB31460A
:1012D8002046BDE87040FFF741BF70BD00200860A0
:1012E80000200840174B01222DE970435A60EFF3A4
:1012F8001186202383F31288BFF36F8F4FF080533A
:10130800D3F88C311B6B98470F4AD2E90045D2E9D4
:101318000089001B4FEA50434FEA434361EB050144
:1013280013EB080441EB0905C2E9004586F311886F
:10133800BFF36F8F400CBDE8704340EAC13001F045
:1013480045B900BF00200940980100202DE9F04769
:10135800224B234C234F00210020C3E90001012523
:1013680000263E604FF08059FD61E562E36A6560E2
:10137800D9F8B03114201B6A9847E36AEFF3118A51
:10138800202383F31288BFF36F8FFD616560D9F85E
:10139800B03114201B6A4FF004089847C4F818802D
:1013A800D9F8843123211B6830469847C7F8805202
:1013B800236823F4E02343F4803323603D608AF3F9
:1013C8001188BFF36F8F32463146404601F065FC05
:1013D8004046FFF775FA3046BDE8F08798010020CF
:1013E8000020094000002443F8B5431C03D001281D
:1013F80003DC002507E06FF04040B0F1804FA8BF44
:101408004FF08040451EEFF31184202383F31288A8
:10141800BFF36F8F4FF08053D3F88C311B6B984715
:10142800DFF884C0214BDCE900679B1B67EB4702B0
:10143800181842EB01014FF40033C5FB0301400CBF
:1014480040044FF0FF32824247F6FF7373EB010509
:101458003CBF19461046DCE90023801841EB030124
:10146800000C40EA0140EFF31181202383F3128836
:10147800BFF36F8F0E4A136BC51AB5F1004F03F116
:1014880006030AD91846906181F31188BFF36F8F5C
:1014980084F31188BFF36F8FF8BD1D1A002DF2DB9E
:1014A800984238BF1846EEE798010020FFFF010078
:1014B8000020094008B54FF08053D3F88C311B6BDE
:1014C8009847054BD3E90023801A61EB0301400CD0
:1014D80040EAC13008BD00BF9801002070B52B4B11
:1014E8002B4CD3F8B02F12F0020F01BFD3F8AC3F4A
:1014F800C3F3074343F0F00384F85630254B4FF00D
:101508000122C3F804241B88204BD3F8B45F4FF0A2
:1015180080530646D3F8F03128461B68984705F0F3
:101528004073B3F1807F02BF637A43F002036372B2
:101538004FF080532946D3F8F03130465B6898471E
:10154800154B164AD3F80C34C3F30531917313F4D1
:10155800807F4FF04002C3F3422314BF227784F800
:101568002C20DB000D4A43F46053A2F86A304FF098
:1015780080532846D3F8F0319B689847022000F042
:1015880085F8074B0122C3F8942470BD0040005031
:101598000062084000A00C400010005000B00C4051
:1015A8000000604238B5264BD3F81C43631C08BFC3
:1015B800002401F03CFF234B0022C3F884244FF0A1
:1015C8008053D3F8F0319B6C98471F4BD3F8803188
:1015D8002BB11E4B2046D3F88035FFF77FFF1C4BFD
:1015E8000022C3F88C211B4A936C23F07F6323F4F9
:1015F800702343F09C7343F480339364164B9A6AC8
:10160800C2F30132012A06D1996A144A0A4042F407
:10161800003199629A62124C01254FF08053E561BE
:10162800D3F8B03114201B6A98470E4A136843F464
:10163800E02313600C4A2560D368002BFCD138BD29
:1016480000100050000060420000284300002043C2
:10165800002008400020034000000940EFFFFCFC88
:10166800000024430020094000006842064BD3F8DC
:1016780018334BF67730C3F30F3383420CBF052082
:101688004FF0FF30704700BF0010005030B50A4AD5
:101698000A490B4C136855689D42FCD1834209D016
:1016A800CB5C0D5C9D4223448CBF5B7813F8013CF6
:1016B8001360EFE730BD00BF00600C40353C000010
:1016C800313C00000E4BD3F84021D3F89411C307E6
:1016D80005D483070BD441070CD40120704702F0CE
:1016E800010301F004010B43F3D102207047930773
:1016F800F1D4FAE712F0040F0CBF02200120704762
:101708000020084070B5044690B101F085FE0546FA
:101718000848094A4FF400460021E4FB060100236B
:10172800FEF7D6FC044601F077FE431BA342FAD32A
:1017380070BD00BF3F420F0040420F0038B5EFF3C5
:101748001185202383F31288BFF36F8F064B9C68A3
:1017580001F08BFE85F31188BFF36F8F2046BDE83B
:101768003840FFF741B800BFA003002038B50A4B46
:1017780053F82040013053F82050A54200D838BD16
:10178800606830B1037FDB0701D401F071FE0834D3
:10179800F3E723689847FAE7303B000070B52B4B16
:1017A8002B4C2C4D012286B003201A70FFF7DEFF68
:1017B80000F084FF01F077FE0420FFF7D7FF2646EC
:1017C800AE4204F1300410D300F014FC204C224E39
:1017D800AC4226D300F022FCFEF7E4FD1F4A137B3F
:1017E80023F00103137306B070BD54F80C3C059345
:1017F80054F8103C049354F8143C039354F8183CE0
:10180800029354F81C3C019354F8203C009354E98B
:101818000A2354E90C0100F005FA54F8303C5E65DF
:10182800CDE7D4E90A23B3F1FF3F08BFB2F1FF3F88
:1018380005D052EA0301206803D100F0AFFC303430
:10184800C6E73146183000F03FFEF8E7D303002022
:101858003439000034390000FD3500002002002032
:1018680008B50348034A0021121A01F018FE08BD02
:1018780098010020D803002070B5002386B001220B
:10188800CDE90423134E144D01930F22CDE9023202
:101898001249142303FB005506EBC01604464FF407
:1018A800C07000FB04110E4B00954FF4A072304637
:1018B80000F0B8F9737B0B4AEE6023F004037373EE
:1018C8004FF4046304FB033313442C746B6006B0B9
:1018D80070BD00BFA0010020A0030020400C002024
:1018E800E534000000040020BFB50020FFF73EFFEC
:1018F8002A4B83F308882A4C2A4F636943F4007300
:1019080063610025E02384F82230E5772576657643
:10191800A57684F82050636A43F4E023636284F870
:101928002350FEF731FFFFF753F84FF0FF33A36260
:10193800E362FFF713F9FFF76FF81B481B4C00F041
:10194800BDF901F07EFD01F095F90120FFF70EFFCA
:101958000220FFF70BFF00F095FB154B15495C6162
:10196800154B05930123CDE903534FF480623B46A1
:10197800CDE901550095204600F054F9627B0646F2
:1019880022F004022046627301F008FE2846FFF7A1
:1019980073FF3A4631462046FEF7FCFF400C002014
:1019A80000ED00E0A5170000A002002020020020A2
:1019B800A0030020C00D0020393C000038B5064CBB
:1019C800064D0020AC4200D338BD204601F06CFD26
:1019D8000028F9DB1C34F5E7980100209801002065
:1019E8002DE9F341044617461E46EFF311882023DC
:1019F80083F31288BFF36F8FC368334A7BB1806863
:101A08009168884219D057EA060318D188F31188DB
:101A1800BFF36F8F6FF00F0002B0BDE8F0819168DF
:101A280091F90E1021610133E3609368A36088F394
:101A38001188BFF36F8F0020EEE72169F2E791F973
:101A48000E1090F90E309942A8BF19466FF07E0229
:101A58009142B8BF11468B422DDD01F04AFD054683
:101A6800CDE9007619482246414600F0FFF90028E2
:101A7800E1D0EFF31186202383F31288BFF36F8F31
:101A8800A068D0B1236821699C420AD04BB193F970
:101A98000E309942A8BF19466FF07E039942B8BF2D
:101AA800194601F026FD40B10848314600F07CFA9D
:101AB8006FF00A00B0E70025D2E7002DF4D186F3D5
:101AC8001188BFF36F8FF3E7A0030020D403002031
:101AD800F8B583680546002B3FD0234A92689342A5
:101AE8003ED1C368012B03D9013BC3600020F8BD78
:101AF800EFF31187202383F31288BFF36F8F0169F7
:101B0800806801F0F6FC2C68A54207D10023C5E9DE
:101B1800023387F31188BFF36F8FE7E7002CF5D006
:101B2800D4E9003213605A60637B002623F0020375
:101B38006373C4E90066A66004F1180001F09CFD17
:101B4800AC6094F90E302B612046A66701F026FDA3
:101B58000648394600F028FAC8E76FF01500C6E7CE
:101B68004FF0FF30C3E700BFA0030020D4030020DC
:101B780070B5EFF31186202383F31288BFF36F8FBC
:101B88000468A0421AD0CCB1D4E9003213605A607C
:101B9800637B002523F002036373C4E90055A56045
:101BA80004F1180001F068FD2046A56701F0F6FC75
:101BB80031460848BDE8704000F0F6B9D0E9023275
:101BC8009A4218BF0133836086F31188BFF36F8F81
:101BD80070BD00BFD403002013B5EFF3118120249A
:101BE80084F31288BFF36F8F846844B1013C84602A
:101BF80081F31188BFF36F8F002002B010BD52EA45
:101C0800030406D181F31188BFF36F8F6FF00F00C3
:101C1800F3E7CDE900230246014800F027F9ECE795
:101C2800D40300202DE9F043073285B022F00702E3
:101C38000E461F461099017300F158037F32C0E920
:101C480016330446002322F03F02042183604173C7
:101C58003F2A0F98A073C4E90633E37306F14009DD
:101C6800A2F1400805D883F31188BFF36F8F0846A7
:101C780002DFB51829462046FEF712FC07300E9BF6
:101C880020F00700A066C4E9189802930D9B019301
:101C98002D1A0C9B00932A463B4631462046FEF7F8
:101CA80047FE00236365044B9B6803B1DB6EE36664
:101CB800284605B0BDE8F083A003002040F20113D8
:101CC80083810023C0E91833C366014B98607047CD
:101CD800A0030020094A93686FF00A019967084930
:101CE80058674B6843F080534B60002383F3118897
:101CF800BFF36F8F9368986F704700BFA0030020F1
:101D080000ED00E070B590F90D20437B002A36DB2A
:101D1800D90634D11B4C63F07F032246437352F833
:101D2800183FE169934207D1C0E900210860E061EA
:101D380011E09942F8D01B68002BF5D090F90E50AD
:101D480093F90E60B542F4D0AE42F2DD5968C0E9AD
:101D5800003108605860A569954200D005B9E5686A
:101D6800A3685A7BD20604D1DA897F2A01D9AA69E5
:101D780032B1AB4202D0284600F004FB656170BD69
:101D88006361FCE7A003002038B590F90D20437B80
:101D9800002A014604DA03F07F03437301F0C4FB11
:101DA8000D4D2A46AB6852F8184F944200D004B93A
:101DB800EC688B4207D05A7BD20604D1DA897F2A95
:101DC80001D9A2692AB1A34202D0204600F0DAFA6A
:101DD80023466B6138BD00BFA003002070B590F9A1
:101DE8000D20437B002A014604DA03F07F03437386
:101DF80001F09AFB4B7B1C4C63F07F0322464B732C
:101E080052F8183FE069934207D1C1E90020016008
:101E1800E16111E09842F8D01B68002BF5D091F9E8
:101E28000E5093F90E60B542F4D0AE42F2DD586818
:101E3800C1E9003001605960A569A368954200D0E6
:101E480005B9E5688B4207D05A7BD20604D1DA89F6
:101E58007F2A01D9AA692AB1AB4202D0284600F0EC
:101E680091FA2B46636170BDA0030020F8B5124BB0
:101E78000C461146114A98681060DDE90676EFF3C2
:101E88001182202282F31288BFF36F8F9D68284643
:101E980001F05CFBB6F1FF3F08BFB7F1FF3F06D08A
:101EA80007493A46334605F1180000F00DFB204675
:101EB800BDE8F840FFF70EBFA0030020C0030020D4
:101EC800FD350000F8B50446EFF31187202383F3AE
:101ED8001288BFF36F8F437B03F01F02002A0CBFE9
:101EE8000126002649B239D103F07F03437301F07C
:101EF8001BFB2C4D437B817363F07F032A4643739E
:101F080052F8183F934227D1E869C4E900200460D9
:101F1800EC610FE09842F8D01B68002BF5D093F9DC
:101F28000EC06145F6D08C45F4DD5968C4E900312E
:101F38000C605C60AC69944200D004B9EC68AB6892
:101F48009C4202D0204600F01DFA6C6187F311888C
:101F5800BFF36F8F3046F8BDE869DEE79B071ED5F3
:101F6800856801F0E1FA81732B689D4209D16B689D
:101F7800C4E900531C606C60E8E76A689342F6D0D5
:101F88001B68002BF3D093F90E209142F5D08A42BA
:101F9800F3DD5A68C4E9003214605C60D6E78173E7
:101FA800D4E700BFA003002049B9EFF3058030B99A
:101FB800054B5A699B689A4201D0FFF78BBE81F3A3
:101FC8001188BFF36F8F7047A0030020034648B9FC
:101FD800EFF3058232B9064A51699268914201D0FD
:101FE800FFF778BE83F31188BFF36F8F704700BF88
:101FF800A0030020EFF31181202383F31288BFF39D
:102008006F8F054B9A68D37B013BD37381F311889B
:10201800BFF36F8F704700BFA003002070B5EFF3C8
:102028001186202383F31288BFF36F8F144DAB689A
:10203800DA7B0132DA732A4652F8184F944200D0FC
:1020480004B9EC685A7BD20604D1DA897F2A01D90F
:10205800A2692AB1A34202D0204600F093F9234690
:102068006B6186F31188BFF36F8FEFF31180202324
:1020780083F31288BFF36F8FBDE87040FFF7A6BFE8
:10208800A0030020024B03F11802C3E9062270479F
:10209800A003002070B5EFF31186202383F3128884
:1020A800BFF36F8F1B4CA168E0690B68814214BFB6
:1020B8001A46002249680B605960A368E1692AB989
:1020C800154AC3E900210B60E3610CE093F90E00A7
:1020D80092F90E50A84218D0854216DD5168C3E91E
:1020E80000210B605360A5690B4B9D4200D005B9D8
:1020F800E568A3689D4202D0284600F043F965616F
:102108003046BDE87040FFF7E5BD8A42D8D0126876
:10211800D5E700BFA0030020B803002051EA000360
:102128002DE9F04105460E4604D1FFF7B3FF002024
:10213800BDE8F081431C71F1FF3324DB01F0BFFAE5
:102148004419EFF31188202383F31288BFF36F8FAC
:102158000F4F104BB8681860FFF716FEB8680E49A5
:102168002A463346183000F0AFF9BA68537B43F07B
:10217800040353734046FFF7ADFD01F0A0FA201A9F
:1021880020EAE070D4E76FF00104241AD9E700BF11
:10219800A0030020C0030020FD35000038B5044628
:1021A800EFF31185202383F31288BFF36F8F437BEE
:1021B8005B070FD5183001F05FFA637B23F0040347
:1021C80020466373FFF79EFD29460548BDE8384061
:1021D800FFF7EABE85F31188BFF36F8F38BD00BFE4
:1021E800D4030020014B9868704700BFA00300206B
:1021F8002DE9F8430446077BEFF31185202383F389
:102208001288BFF36F8F437B190705D585F31188B3
:10221800BFF36F8FBDE8F883D90943F008025AD19C
:102228004273A36813B1204601F086F904F118003F
:1022380001F022FAA66D04F15808B04511D04FF00C
:10224800000976B1304601F077F906F1180001F07F
:1022580013FAC6F878903046FFF754FDA66DB045DE
:10226800EFD1DFF8B880D8F808309C423BD1EFF3C3
:102278000589B9F1000918BF4FF00109D8F81860AD
:10228800274A964200D00EB9D8F80C60B34202D063
:10229800304600F077F8C8F81460B9F1000F02D0A2
:1022A8002048FFF70BFDD8F808309C4231D1EFF3F6
:1022B800058373BB227BD20718D42846FFF70AFD93
:1022C800FB07A7D5002383F31188BFF36F8F04237F
:1022D800184602DF9EE703F07F0343F008034373C9
:1022E80001F022F99DE74FF00009C7E785F311884F
:1022F800BFF36F8F83F31188BFF36F8F04231846E2
:1023080002DFEFF31180202383F31288BFF36F8F6E
:10231800D4E785F31188BFF36F8FD1E7A0030020BE
:10232800B8030020A0020020044BC01A044BC010C0
:102338005843044B01221A54704700BF2003002061
:10234800ABAAAAAAD4030020C3897F2B12D80A4BB0
:102358001B6863B1094B90F90E201B689A4209DB90
:10236800437BDB0606D1064BC31A18BF012303F0D3
:10237800010070470023FAE7C8030020C4030020C7
:10238800A001002070B50E4B0E4C1E7C06EB4603D8
:1023980004EBC3040546204601F06EF90A4B0022FF
:1023A80028469A55FFF7D0FF48B1084B08491A68E4
:1023B800013A2046D317BDE8704000F085B870BDDB
:1023C800A003002020030020D4030020C80300201D
:1023D8003123000038B5EFF31185202383F31288E9
:1023E800BFF36F8F104B114A9C681068A04206D14A
:1023F800FFF7C8FF85F31188BFF36F8F38BD002141
:102408001B7C11600A4AD35C002BF3D02046FFF7EF
:102418009BFF0028EED0637BDB0602D12046FFF746
:10242800DDFC2046E4E700BFA0030020C003002035
:10243800D40300200748084A084908B5121A01F0D1
:1024480030F80748074A0849BDE80840121A01F061
:1024580028B800BF0000002098010020883C000038
:102468000000002000000020883C0000024B186893
:10247800984208BF0020704750000020034B1B689B
:102488000BB9FFF717B80020704700BFCC03002036
:1024980030B570B10B4B5B6898420AD0036843B102
:1024A800D3E90421D0E90445121941EB0501C3E938
:1024B8000421D0E9003213605A600023C0E90033D8
:1024C80030BD00BF50000020B3F1FF3F08BFB2F19C
:1024D800FF3F2DE9F84304461D469046184663D051
:1024E800A160EFF31187202383F31288BFF36F8F66
:1024F800013275F1FF331ADBFFF7C0FF18F1010352
:1025080045F100051B18064645EBE0750121C4E9B5
:102518000435FFF7ABFFDFF8A8E0DEF80480E0B988
:10252800C4E900E8C8F80040CEF8044027E025498F
:10253800D1E900256FF001039B1A4FF0FF3262EBDF
:102548000505B3EB080365EB0005012B75F10002E7
:10255800BCBF012300250021D9E7D0E9042CD4E928
:102568000435934275EB0C0920DAD21A43686CEBF8
:102578000505C0E90425C4E900031C604460FFF7B1
:1025880075FF84420CD1104B1B684BB911B9FFF78A
:1025980075FF0646304601F058F80021FEF724FF83
:1025A80087F31188BFF36F8FBDE8F8839B1A65EB3B
:1025B8000C054045C4E90435B2D00068AFE700BF58
:1025C8005000002038030020CC0300202DE9F047FC
:1025D800EFF31185202383F31288BFF36F8FDFF8A1
:1025E800A490DFF8A480C9F80000FFF73FFF002699
:1025F8000027D9F80030D8E900ECD91750B1D0E954
:102608000442A34271EB020A1CDAE41A62EB0102EB
:10261800C0E9044213EB0E034FF000044CEB010138
:102628002046C8E90031C9F8004001F00EF82146FB
:10263800FEF7DAFE85F31188BFF36F8FBDE8F04728
:10264800FFF7C8BE14EB0E024CEBE473C0E9046755
:10265800C8E90023FFF71CFF85F31188BFF36F8FCC
:1026680083689847EFF31185202383F31288BFF31B
:102678006F8FD9F800301B1BC9F80030FFF7F6FE42
:10268800B7E700BFCC0300203803002010B5EFF3F4
:102698001184202383F31288BFF36F8FFFF7EEFEB8
:1026A800054A0346D2E90001181841EBE37184F3A7
:1026B8001188BFF36F8F10BD38030020014800F068
:1026C800CBBA00BF3E3C00002DE9F04F8DB0436807
:1026D8000293837815469A07804640F10D810024BD
:1026E8000E78002E00F00A81252E0BD04B1C039388
:1026F8000134029B4146304698470028C0F2F680D4
:102708000399EDE74E788B1C252E0393F0D0002714
:10271800B946BB46BBF11F0F38D8A6F12003102BD2
:102728000AD8DFE803F02A0909300909092109094B
:102738000928092D09091F00A6F13003092B33D9EF
:102748002A2E37D11BF0400F55F8043B40F0828009
:10275800002BA7BF4BF0200B9946C3F100094BF0A3
:10276800280B01E04BF0010B039B13F8016B03935B
:10277800002ECFD130E04BF0020B4BF0040BF3E707
:102788004BF0080BF0E74BF0100BEDE7BBF17F0FB8
:1027980019D8A6F13003092BD2D81BF0400F03D06B
:1027A8000A2101FB0737DFE70A2101FB09394BF052
:1027B800200BD9E72E2E06D11BF0400F40F09E804B
:1027C8004BF0400BD0E76C2E31D02BD8682E36D08A
:1027D8006A2E3CD04C2E3AD0002F46F02003B8BFCA
:1027E8002BF04002A3F16501BCBF1FFA82FB002752
:1027F800022901D9612B2FD1073525F00705DFF80C
:10280800ACA2083507271BF0080F66D00AEB070BA8
:1028180056465E4563D1A4EB0A0A06EB0A02A9EB09
:1028280007096FE1742E9FD07A2E9DD0D4E71BF054
:10283800800F18BF4BF4007B4BF0800B94E71BF420
:10284800807F18BF4BF4007B4BF4807B8CE74BF404
:10285800207B89E71F4687E7A6F16301122900F26A
:10286800F080DFE811F013004F00EE00EE00EE00FC
:10287800EE004F00EE00EE00EE00EE00EE00FE006F
:10288800E900EE00EE001B00EE00AF0055F8043B37
:102898008DF8183001270DF1180AB4E755F804AB84
:1028A800834BBAF1000F08BF9A461BF0400F14BFC4
:1028B80039464FF0FF31504600F01BFF0746A2E7AC
:1028C800029B41462020984700280FDB013EB74273
:1028D800F6D34C44A41BB14698E74E46F7E716F8E2
:1028E800010B029B41469847002892DA98F802307B
:1028F80043F0040388F802304FF0FF3420460DB04F
:10290800BDE8F08F1BF0800F34D01BF4007F2CD073
:10291800073525F00705AA4669685AF8080B2BF011
:1029280010050029ADB237DA404261EB410145F4A8
:1029380080650DF1180B0A235A4600F0E6FEA0EB5D
:102948000B0301936B0662D5019B25F001019F42A1
:1029580089B240F3A180002E00F0998015F0100292
:1029680040F09C80BB460D4623E0AA465AF8040B6B
:10297800C117D4E7AA461BF4807F5AF8041B01D17B
:102988000846F5E71BF4007F15BF48B208B241F3CB
:10299800C01141F3C031C2E750EA0103C9D11BF0AD
:1029A800400FC6D0002FC4D12BF0110295B2BB4600
:1029B800019740F2064115EA01021CBF0BF1010B19
:1029C80000222CE02BF010021FFA82FB0A231BF0D6
:1029D800800C49D01BF400711DBF073525F0070591
:1029E800AA46AA461ABF5AF8080B69685AF8040B8F
:1029F80050EA010545D12BF016051BF0400FADB28A
:102A080042D0002F40D12BF0170295B2019715F054
:102A1800100248D0019B002E42D103F1010B290777
:102A28005AD4EB0706D5D9456FDD0199A9EB0B03FD
:102A38005F18CB465B4649E04BF0100B1023782615
:102A4800C5E7782B04D1C6F1780343F01003BEE73D
:102A5800029B4146252098470028FFF647AF0234DD
:102A680047E608230026B2E7AA461BF480715AF805
:102A7800040BBDD01BF400711ABFC0B2614680B20E
:102A8800B6E72BF0060295B20DF1180B54E725F0C6
:102A98001105ADB2BB468CE70D46B8E73B460D467F
:102AA80003F1020BBBE7DDF804B082E7803C0000CD
:102AB800793C0000CDE904324146029B202098472A
:102AC8000028FFF613AF049B059A01339945F1DC02
:102AD800A4EB0B01CC189B460AB3029B414630205D
:102AE80098470028FFF602AF8EB901342744019BAE
:102AF800391B994224DC1D465DBB019AA9EB0B09E1
:102B0800224455461446914435E0019F92E7023429
:102B180041463046029B98470028E7DAE6E640F24D
:102B280006410D42E2D015F0020F14BF2B202020E1
:102B380015F4806F04F10104414618BF2D20E9E720
:102B4800029B414630209847002804F10104CEDA60
:102B5800CCE606AB013D4146585D029B98470028EC
:102B6800CADAC3E6029B414620209847002804F1B0
:102B78000104FFF6BBAEA9EB0403002BF2DCBFE5B2
:102B8800704700EBC100408840087047F8B503461D
:102B9800FFF7F7FFB0FA80F0C0F11F0003EB800CDD
:102BA800CA00DCF81060171D0C4606328DB256B903
:102BB800012101FA00F0D9680143D960CCF810402E
:102BC800DD539D52F8BDF1000431585AD85303EB38
:102BD800C0009E52C5805D52F4E7043A2DE9F041E9
:102BE800CC1D114424F0070421F007010E1BF7083F
:102BF800B7FA87F2C2F12405AD004FF00008073597
:102C0800C2F12002ED0804604146A760C4F80C80B8
:102C1800920004F1100000F064FD6B0043F0010322
:102C2800638004EBC5027B1B5900A4F80080518027
:102C3800A21924F83550A2F80280A35304EBC70365
:102C480029465A8842F001025A802046BDE8F041E0
:102C5800FFF79CBF002070470FB407B504A951F8CF
:102C6800040B0191FDF7E0FB03B05DF804EB04B041
:102C780070477047FEF796BC012801D1EFF3058332
:102C8800FEF75CBD01460068FFF7F6BF08B5FDF723
:102C980003FCBDE80840FDF723BC013140B2FDF755
:102CA800FBBD00210120FFF7E7BF61B662B680F3E4
:102CB8001188BFF36F8F704772B6002383F31188B2
:102CC800BFF36F8FBFF34F8F30BF62B6BFF36F8F05
:102CD8007047202809D9B0F1004F08D80138B0FA58
:102CE80080F0C0F11F0040007047082070473E2068
:102CF800704708B5FDF7E6FF002008BD07B501AA33
:102D080000F0D6F9002805DB019B00221979186824
:102D180000F0E1F903B05DF804FB70B403460C461B
:102D2800DA88006819792243056986682B680124C6
:102D38008C4012F0010F14BF2343A3432B60336868
:102D480070BC1847B2F5001F70B50D4623D0B2F11C
:102D5800A07F22D1B3F1C06F1AD0B3F1806F14BF36
:102D68004FF480344FF4003444F480244FF08056FC
:102D78002846D6F8B4315B689847D6F8B43120F4C1
:102D8800E0221B682846224300219847002070BD96
:102D98004FF44034E8E70024E8E76FF08500F6E7F1
:102DA80010B503695868F8B1884219D19C68086859
:102DB8005860A14200D19860002008602AB15A6882
:102DC8000A609A68596002B99960002010E081424F
:102DD80006D10868206098688142EDD19C60EBE7D5
:102DE800044600680028F2D1002AE8D16FF01500E7
:102DF80010BD4368186883681B68184703460A466D
:102E080000681979012303FA01F103691B68194263
:102E180018BF82F0010212B18368DB681847836823
:102E28001B69FBE72DE9F0414468006900F069FB84
:102E38006068217A6389066987683468DA0754BF4D
:102E480043F4B01383F4D01301258D4023F480128A
:102E5800DB074CBF2C43AC4334603B68BDE8F04112
:102E680018472DE9F0470E46D0F804A0D0F8108096
:102E780015461F46042200234046FEF7B1FD0446CE
:102E880028BB0AF1040901214846FFF7B7FF0120D2
:102E9800FEF738FCDAF800007DB10C2202FB05626F
:102EA800816812F8043C43F0020302F8043C8C6881
:102EB8003B462A463146A047044600214846FFF7CC
:102EC8009DFF0120FEF71EFC4046FEF701FE20464E
:102ED800BDE8F08710B5426803461068D0F8182896
:102EE80082B11C690123C0F81C384FF08053D3F815
:102EF800AC315B689847206204F11000BDE81040CF
:102F0800FEF736BE10BD2DE9F04F824687B00C465D
:102F18001D461646002A5FD0036901930B7A43F0D9
:102F280004030B724FF0FF3301984FF0FF32EDB2FC
:102F3800FEF752FE6B00029343F001030393002156
:102F4800237A13F0080542D16268002A3FD0DAF8E4
:102F58000420DAF810B0176813F001024ED1029B72
:102F6800C7F800386368002B3AD10131B14204F147
:102F78000C04E5DB00262CE0054602464FF001086C
:102F8800013B9A4204D1237A980748BF48F00408C5
:102F9800236804919B5CC7F808380220C7F80488A6
:102FA80000F04CFA4FF0FF334FF0FF320BF11000F6
:102FB800FEF712FEDBF820300499CBB118F0040FAD
:102FC80005D10423C7F80438022000F037FA6FF05F
:102FD80004060198FEF7CCFD304607B0BDE8F08F37
:102FE800207A10F00400C7D015464FF00308C7E751
:102FF80063680135AB422A46C0D8B6E7039BC7F8D9
:1030080000386368002BB0D0227A12F004001ED179
:10301800012B30D112F0020222D115469046994672
:103028000BF110030493C7F804980220059100F0EF
:1030380005FA4FF0FF3304984FF0FF32FEF7CCFD4E
:10304800DBF820300599E3B119F0040FB8E7012B3C
:1030580014D112F0020206D1154690460323DEE78A
:103068000546804621E0A84603231EE0DBD2012363
:1030780043F00803D3E705468046F8E7A84603234C
:10308800F6E72368D7F8082803F8082063680135AD
:10309800AB42A8467FF669AF013B9D424FF001095C
:1030A800E4D1227A92074B46BDD543F00403B6E734
:1030B80030B5036813600579046804EBC504A342BE
:1030C80002D36FF0010030BD5C798C4201D0083327
:1030D800F0E70020F7E70C2370B5044603FB010571
:1030E8004FF08056AC4201D1002070BDD4E90001F8
:1030F8001F28A26805D8372903D8D6F8B4311B6829
:1031080098470C34EEE70369112918880FD1C0F3EA
:103118000B03000B83406420B3FBF0F100FB113379
:10312800116042F210714B435360002070476FF0FA
:103138008500704730B589B043688DF80310144690
:103148000DF103021868029201229B880392002263
:103158008DF8102001AA05920721022206928DF807
:103168001C109DF81C10856811438DF81C10AD6863
:1031780002A9A84728B9BDF804305BBA238009B072
:1031880030BD6FF00400FAE713B50469002121800F
:103198000DF10602FFF7CEFF20B9BDF806302380F7
:1031A80002B010BD6FF00400FAE72DE9F04186B0D7
:1031B80015460DF1060207460E469846FFF7BAFF78
:1031C80030BBBDF806407A688DF8086024EA05042B
:1031D80005EA080544EA050310688DF80A30190A5B
:1031E80093888DF8091002AA0392032204920222FE
:1031F8008DF814209DF81420816842F002028DF8A1
:1032080014208C68012203A9A04706B0BDE8F0810C
:103218006FF00400F9E713B543680446186800F036
:1032280011F918B96FF0150002B010BD0DF10602C2
:103238007E212046FFF77EFF0028F3D1BDF8062047
:1032480045F249439A42EDD10DF106027F2120460D
:10325800FFF770FF0028E5D1BDF8062043F201030F
:103268009A42DFD14FF4C0631A4601212046FFF786
:103278009CFF0028D8D0D5E70D29036904D0102970
:1032880011D06FF0850070479B8BA5214B43A3F5A8
:103298002213191443F609509BB243439B0AC2E90F
:1032A800001300207047DB8B64214B43F1E701F1E9
:1032B8000C00FEF75DBC10B588B003468DF807100A
:1032C8000DF1070102910592012104220391069252
:1032D8000021072200689B888DF810108DF81C20AB
:1032E8009DF81C20816842F002028DF81C208C6831
:1032F800022202A9A04708B010BD1FB503468DF8E9
:103308000120022200689B888DF80010CDF804D0B7
:1033180002928DF80C209DF80C20816842F0020280
:103328008DF80C208C68012201A9A04704B010BDBB
:1033380037B54468056901220F212046FFF7DDFFF4
:10334800002813DBA3689BB14FF0FF324FF0FF3327
:1033580005F10C00FEF740FC01AA00212046FFF70A
:10336800AAFF0028A2BF019BEB61002003B030BD7B
:103378000021422000F042F9EEE738B543681868AA
:10338800846914F010040D4608D14FF08053D3F827
:10339800D0311B6998472870204638BD4FF0FF3060
:1033A800FBE710B54FF080534468D3F8D03120685C
:1033B800DB699847236818331A681207FCD410BDD4
:1033C800436819684B68002003F00F0248609000BA
:1033D800510001F0080100F0040003F00203084363
:1033E80043EAD2031843704702690B4692E8030088
:1033F80083E803000020704707B5002101AAFFF702
:1034080057FE002805DB019B002219791868FFF791
:1034180062FE03B05DF804FB08B54FF08053D3F8A3
:103428008C311B6B9847400C40EAC13008BD08B589
:10343800FEF71CF9052800D0FEE708BD0138FDD1CC
:103448007047704740B1C368587810F001001EBF3C
:103458001878B0FA80F040097047EFF31183202301
:1034680083F31288BFF36F8FFEE708B5FFF7F5FF08
:1034780010B54369044633B90020E268537843F035
:103488000103537010BD98470028F5D00028B8BF35
:103498004042E368FF28A8BFFF201870EDE700F05E
:1034A80020B900F010B970474169836843EA010206
:1034B80012F003020FD1C2600269013A01FB023324
:1034C80082689A4201D900207047C2681A6042692E
:1034D800C3609B1AF4E76FF01500704708B5202405
:1034E800EFF3118384F31288BFF36F8FFFF7E4FBC8
:1034F800F6E790F90E308B4201D0FEF7E3BC0020CE
:10350800704703460020C3E90200C3E9003370474F
:103518003AB18A4205D3C0E90212C0E9000000208E
:1035280070476FF015007047D0E9003213605A6099
:103538000023C0E90033704708B5FFF7F5FF437B68
:1035480023F0020343730023836008BD38B50446A3
:103558000D46FEF719FC637B43F002036373E5B184
:10356800A5602B689D4209D16B68C4E900531C60B3
:103578006C6012E06A689A42F6D01B68002BF3D0A0
:1035880094F90E2093F90E108A42F3D09142F1DD9E
:103598005A68C4E9003214605C6038BD10B5EFF3B6
:1035A8001184202383F31288BFF36F8FFEF7AAFBE1
:1035B80084F31188BFF36F8F10BD10B50146EFF388
:1035C8001184202383F31288BFF36F8F437B13F09A
:1035D800280F0AD183680BB1FFF7AEFF4B7B23F0AE
:1035E80004034B730846FEF78DFB84F31188BFF381
:1035F8006F8F10BD01211838FFF7DFBF38B50446BB
:103608000D46FEF78BFDB5F1FF3F08BFB4F1FF3F54
:103618000246204618D000204FF47A7447F6FF730C
:103628000146C2FB0431B3F5004F71F100020BD320
:103638006FF400429A4243F6FF728A4126BFD80BC4
:1036480040EA41406FF0004038BD08B50246FEF739
:103658000DFF70B1D0E904319B1A61EBE272B3F14E
:10366800004F72F1000104DA002AACBF18460020AE
:1036780008BD6FF00040FBE738B50246EFF311854F
:10368800202383F31288BFF36F8F0368A3B1FEF77B
:10369800EDFE04461046FEF7FBFE844206D1FEF717
:1036A800EDFEFFF7D2FF0021FDF79EFE002085F317
:1036B8001188BFF36F8F38BD6FF01500F7E708B5B5
:1036C800FEF7E4FF08BD0A44914200F1FF3300D140
:1036D800704710B511F8014B03F8014F9142F9D129
:1036E80010BD02440346934200D1704703F8011B02
:1036F800F9E710B5024601448A42134603D01C7804
:103708000132002CF8D1181A10BDF0B5C3F13707F3
:103718000446FFB203F01F031046082BE6B233D06D
:10372800102B3ED06508A40844EA817445EAC175A7
:103738002D194FEA910242EB5102290941EA02711F
:103748006D1842EB1212290A41EA02616D1842EB28
:103758001222290C41EA02416D1842EB1242AD18BF
:1037680042F10002EC0844EA4274D10804EB8402F6
:10377800A6EB4205EDB2092D0CD90134A5F10A05D5
:1037880041F10001EDB212E0E40844EA417406F0A8
:103798000705C908303554EA010200F8015BBCD1BD
:1037A800F0BD240944EA017406F00F050909092D42
:1037B80084BFED19EDB2EDE70148006870470000DD
:0437C800400300209A
:0837CC0040C9FF7F010000006D
:1037D400C51900000000000000000000343800009B
:1037E400000000007438000000000000543800009D
:1037F400450D00000000000055130000000000000B
:10380400F50C00000000000000000000B4380000C7
:10381400000000009438000000000000D4380000CC
:10382400000000001439000000000000F43800001B
:10383400C23B0000783A0000343900008A010020BD
:1038440060030020DD0E0000000000000000000006
:10385400153C0000D03A0000C0390000940100205B
:1038640038000020251200000000000000000000C5
:10387400233C0000003B0000C039000096010020FA
:103884004400002089120000000000000000000035
:10389400D03B00007C3A0000583900008C01002025
:1038A4006C0300202D2E000000000000000000002A
:1038B400DE3B0000883A0000703900008E010020D1
:1038C40014000020B90F00000000000000000000F8
:1038D400B53B00000000000000000000880100204B
:1038E40000000000190D00000000000000000000AE
:1038F400EB3B0000B83A000088390000900100203A
:10390400D00300201F32000000000000000000006F
:10391400FC3B0000C03A0000A439000092010020E2
:10392400800300205510000000000000000000008B
:10393400950D0000750E0000850E0000A10E00001C
:10394400B10E0000C10E00004D2D0000A92D000095
:04395400D10E000090
:10395800FB2D0000000000006B2E0000000000009E
:103968000000000000000000790F000000000000C7
:103978000F2F000000000000000000000000000001
:10398800000000000000000000000000913100006D
:103998000F310000000000000000000000000000DF
:1039A80000000000000000003933000081320000F0
:0839B800000000000000000007
:1039C00083330000AB330000C933000065110000F1
:0439D000F1330000CF
:1039D400000000200000000000000B0602000000B0
:1039E400E839000000000000A63B000026000207A2
:1039F40000000020AE3B000022000B113438000010
:103A04001D000000343800001E000000183A0000B9
:103A140003000000603A000002000000483A000081
:103A240002010000303A0000020200001D00000004
:103A340032000000006000001E0000002F000000A3
:103A4400006000001D000000000000000060000095
:103A54001E0000002F000000006000001D00000098
:103A640000000000006000001E00000000000000D4
:103A740000600000FFFFFFFFB4380000343800008E
:103A84000E00000000200040903A0000983A000028
:103A940001000000A03A000002000000190000002C
:103AA4000E000000004000241A0000000D00000079
:103AB40000400024943800004400000094380000C2
:103AC40041000000000000000000000000B00040C1
:103AD400006CDC02E03A000001000000E83A00005B
:103AE4000200000015000000130000000060002028
:103AF40016000000140000000060000000100040E8
:103B0400006CDC02103B000001000000183B0000C8
:103B1400020000000C0000000F0000000060002004
:103B24000D0000001000000000600000D437000009
:103B3400D4370000FC37000004380000343800009B
:103B44003438000053656E736F72206E6F20657396
:103B540074C3A1206C6973746F0A004572726F722A
:103B640020616C207065646972206D756573747270
:103B7400610A004572726F7220616C206F62746515
:103B84006E6572206C6563747572610A0048756DA8
:103B9400656461643A2025642E25303664206C788F
:103BA4000A00464C4153485F30005352414D5F3048
:103BB40000616E74656E6E615F6D7578300067705C
:103BC400696F4034303032323030300073656E7398
:103BD4006F722D737769746368006932634034309F
:103BE400303032303030006F7074333030312D6CFF
:103BF4006967687440343400686463323031302D4E
:103C040068756D6964697479403431000002068214
:103C140086756172744034303030623030300075F3
:103C24006172744034303030313030300002000181
:103C340003010200036D61696E002A2A2A20426F83
:103C44006F74696E67205A6570687972204F5320CB
:103C54006275696C642076342E312E302D32333403
:103C6400382D676434353366623934303735632030
:103C74002A2A2A0A00286E756C6C29002A666C6F41
:043C840061742A003D
:103C88005D2C000000000000FB2C0000000000007C
:103C980000000000140000201400002001000000B3
:103CA8000100000024000020240000200000000083
:103CB800010000000000000000C201000001030034
:103CC800D83A000000C2010000010300083B0000D0
:083CD800500000205000002004
:103CE00034380000410F0000B4380000DD2E000021
:103CF00000000000AB2C000000000000AB2C000016
:103D000000000000ED12000000000000AB2C0000DD
:103D100000000000AB2C000000000000AB2C0000F5
:103D200000000000AB2C000000000000AB2C0000E5
:103D300000000000AB2C000000000000AB2C0000D5
:103D400000000000AB2C000000000000AB2C0000C5
:103D500000000000AB2C000000000000AB2C0000B5
:103D600000000000AB2C000000000000AB2C0000A5
:103D700000000000AB2C000000000000AB2C000095
:103D800000000000AB2C000000000000AB2C000085
:103D900000000000AB2C000000000000AB2C000075
:103DA00000000000AB2C000000000000AB2C000065
:103DB00000000000AB2C000000000000AB2C000055
:103DC00000000000AB2C000000000000AB2C000045
:103DD00000000000AB2C000000000000AB2C000035
:103DE00000000000AB2C000000000000AB2C000025
:103DF00000000000AB2C000000000000AB2C000015
:103E000000000000AB2C000000000000AB2C000004
:103E100000000000000000000000000000000000A2
:043E200015E015E0B4
:02000002A0005C
:10FFA80000008001100080FFFDFF5800FF02B9F338
:10FFB800FFFFFFFFFFFFFFFFFFFFFFFFFFFFFFFF49
:10FFC800FFFFFFFFFFFFFFFFFFFFFFFFFFFFFFFF39
:10FFD800C50FFEC5FFFFFFFF00FFFFFF00C5C5FF00
:10FFE800000000FF00000000FFFFFFFFFFFFFFFF12
:08FFF800FFFFFFFFFFFFFFFF09
:04000003000007BD35
:00000001FF
