:1000000040460020ED310000AB090100D93100006D
:10001000D9310000D9310000D931000000000000C2
:10002000000000000000000000000000AD320000F1
:10003000D9310000000000004D320000D93100002D
:100040002D3400002D3400002D3400002D3400002C
:100050002D3400002D3400002D3400002D3400001C
:100060002D3400002D3400002D3400002D3400000C
:100070002D3400002D3400002D3400002D340000FC
:100080002D3400002D3400002D3400002D340000EC
:100090002D3400002D3400002D3400002D340000DC
:1000A0002D3400002D3400002D3400002D340000CC
:1000B0002D3400002D3400002D3400002D340000BC
:1000C0002D3400002D3400002D3400002D340000AC
:0800D0002D3400002D34000066
:1000D8004FF0FF0C1CEAD0521EBF1CEAD15392EA23
:1000E8000C0F93EA0C0F6FD01A4480EA010C4002FF
:1000F80018BF5FEA41211ED04FF0006343EA501059
:1001080043EA5111A0FB01310CF00040B1F5000F9A
:100118003EBF490041EAD3715B0040EA010062F149
:100128007F02FD2A1DD8B3F1004F40EBC25008BF33
:1001380020F00100704790F0000F0CF0004C08BF51
:1001480049024CEA502040EA51207F3AC2BFD2F11E
:10015800FF0340EAC250704740F400004FF000032C
:10016800013A5DDC12F1190FDCBF00F00040704766
:10017800C2F10002410021FA02F1C2F1200200FAA4
:1001880002FC5FEA310040F1000053EA4C0308BF6B
:1001980020EADC70704792F0000F00F0004C02BFBC
:1001A800400010F4000F013AF9D040EA0C0093F037
:1001B800000F01F0004C02BF490011F4000F013B91
:1001C800F9D041EA0C018FE70CEAD15392EA0C0FFF
:1001D80018BF93EA0C0F0AD030F0004C18BF31F06A
:1001E800004CD8D180EA010000F00040704790F040
:1001F800000F17BF90F0004F084691F0000F91F0E4
:10020800004F14D092EA0C0F01D142020FD193EAA9
:100218000C0F03D14B0218BF084608D180EA010031
:1002280000F0004040F0FE4040F40000704740F00D
:10023800FE4040F44000704781F0004102E000BFFA
:1002480083F0004330B54FEA41044FEA430594EA8E
:10025800050F08BF90EA020F1FBF54EA000C55EAC9
:10026800020C7FEA645C7FEA655C00F0E2804FEA9A
:100278005454D4EB5555B8BF6D420CDD2C4480EA7C
:10028800020281EA030382EA000083EA010180EAAC
:10029800020281EA0303362D88BF30BD11F0004FFA
:1002A8004FEA01314FF4801C4CEA113102D0404230
:1002B80061EB410113F0004F4FEA03334CEA13336B
:1002C80002D0524263EB430394EA050F00F0A78083
:1002D800A4F10104D5F1200E0DDB02FA0EFC22FA7E
:1002E80005F2801841F1000103FA0EF2801843FA72
:1002F80005F359410EE0A5F120050EF1200E012A63
:1003080003FA0EFC28BF4CF0020C43FA05F3C018A0
:1003180051EBE37101F0004507D54FF0000EDCF119
:10032800000C7EEB00006EEB0101B1F5801F1BD3C2
:10033800B1F5001F0CD349085FEA30004FEA3C0CC6
:1003480004F101044FEA445212F5800F80F09A80BC
:10035800BCF1004F08BF5FEA500C50F1000041EBC0
:10036800045141EA050130BD5FEA4C0C404141EBC4
:100378000101013C28BFB1F5801FE9D291F0000FBF
:1003880004BF01460020B1FA81F308BF2033A3F16E
:100398000B03B3F120020CDA0C3208DD02F1140C65
:1003A800C2F10C0201FA0CF021FA02F10CE002F1A0
:1003B8001402D8BFC2F1200C01FA02F120FA0CFC99
:1003C800DCBF41EA0C019040E41AA2BF01EB0451E2
:1003D800294330BD6FEA04041F3C1CDA0C340EDCE0
:1003E80004F11404C4F1200220FA04F001FA02F323
:1003F80040EA030021FA04F345EA030130BDC4F1E1
:100408000C04C4F1200220FA02F001FA04F340EAD5
:100418000300294630BD21FA04F0294630BD94F086
:10042800000F83F4801306BF81F480110134013D6D
:100438004EE77FEA645C18BF7FEA655C29D094EADE
:10044800050F08BF90EA020F05D054EA000C04BF5C
:100458001946104630BD91EA030F1EBF0021002047
:1004680030BD5FEA545C05D14000494128BF41F0E6
:10047800004130BD14F580043CBF01F5801130BD4A
:1004880001F0004545F0FE4141F470014FF00000D5
:1004980030BD7FEA645C1ABF194610467FEA655C86
:1004A8001CBF0B46024650EA013406BF52EA033528
:1004B80091EA030F41F4002130BD00BF90F0000F16
:1004C80004BF0021704730B54FF4806404F1320452
:1004D8004FF000054FF0000150E700BF90F0000F0B
:1004E80004BF0021704730B54FF4806404F1320432
:1004F80010F0004548BF40424FF000013EE700BF02
:1005080042004FEAE2014FEA31014FEA02701FBF91
:1005180012F07F4393F07F4F81F06051704732F0C3
:100528007F4208BF704793F07F4F04BF41F400211A
:10053800704730B54FF4607401F0004521F0004178
:100548001CE700BF50EA010208BF704730B54FF002
:1005580000050AE050EA010208BF704730B511F003
:10056800004502D5404261EB41014FF4806404F13B
:1005780032045FEA915C3FF4D8AE4FF003025FEAC1
:10058800DC0C18BF03325FEADC0C18BF033202EB45
:10059800DC02C2F1200300FA03FC20FA02F001FA9F
:1005A80003FE40EA0E0021FA02F11444BDE600BF42
:1005B80070B54FF0FF0C4CF4E06C1CEA11541DBFF1
:1005C8001CEA135594EA0C0F95EA0C0F00F0DEF8BC
:1005D8002C4481EA030621EA4C5123EA4C5350EAA1
:1005E800013518BF52EA033541F4801143F48013F2
:1005F80038D0A0FB02CE4FF00005E1FB02E506F083
:100608000042E0FB03E54FF00006E1FB03569CF0D7
:10061800000F18BF4EF0010EA4F1FF04B6F5007FDD
:1006280064F5407404D25FEA4E0E6D4146EB06064F
:1006380042EAC62141EA55514FEAC52040EA5E50D8
:100648004FEACE2EB4F1FD0C88BFBCF5E06F1ED882
:10065800BEF1004F08BF5FEA500E50F1000041EBB9
:10066800045170BD06F0004646EA010140EA020066
:1006780081EA0301B4EB5C04C2BFD4EB0C0541EA88
:10068800045170BD41F480114FF0000E013C00F39D
:10069800AB8014F1360FDEBF002001F0004170BDC1
:1006A800C4F10004203C35DA0C341BDC04F11404DA
:1006B800C4F1200500FA05F320FA04F001FA05F266
:1006C80040EA020001F0004221F0004110EBD37033
:1006D80021FA04F642EB06015EEA430E08BF20EA5F
:1006E800D37070BDC4F10C04C4F1200500FA04F302
:1006F80020FA05F001FA04F240EA020001F0004194
:1007080010EBD37041F100015EEA430E08BF20EA06
:10071800D37070BDC4F1200500FA05F24EEA020E4E
:1007280020FA04F301FA05F243EA020321FA04F07D
:1007380001F0004121FA04F220EA020000EBD37034
:100748005EEA430E08BF20EAD37070BD94F0000F34
:100758000FD101F00046400041EB010111F4801F68
:1007680008BF013CF7D041EA060195F0000F18BF19
:10077800704703F00046520043EB030313F4801F55
:1007880008BF013DF7D043EA0603704794EA0C0F0F
:100798000CEA135518BF95EA0C0F0CD050EA410625
:1007A80018BF52EA4306D1D181EA030101F00041A2
:1007B8004FF0000070BD50EA410606BF10461946CA
:1007C80052EA430619D094EA0C0F02D150EA0136D6
:1007D80013D195EA0C0F05D152EA03361CBF104617
:1007E80019460AD181EA030101F0004141F0FE41B6
:1007F80041F470014FF0000070BD41F0FE4141F43A
:10080800780170BD70B54FF0FF0C4CF4E06C1CEA39
:1008180011541DBF1CEA135594EA0C0F95EA0C0FEE
:1008280000F0A7F8A4EB050481EA030E52EA0335A9
:100838004FEA013100F088804FEA03334FF08055CA
:1008480045EA131343EA12634FEA022245EA1115F7
:1008580045EA10654FEA00260EF000419D4208BFA8
:10086800964244F1FD0404F5407402D25B084FEA55
:100878003202B61A65EB03055B084FEA32024FF401
:1008880080104FF4002CB6EB020E75EB030E22BF5E
:10089800B61A754640EA0C005B084FEA3202B6EB1E
:1008A800020E75EB030E22BFB61A754640EA5C00CD
:1008B8005B084FEA3202B6EB020E75EB030E22BF5D
:1008C800B61A754640EA9C005B084FEA3202B6EB5E
:1008D800020E75EB030E22BFB61A754640EADC001D
:1008E80055EA060E18D04FEA051545EA16754FEA7F
:1008F80006164FEAC30343EA52734FEAC2025FEA9D
:100908001C1CC0D111F4801F0BD141EA00014FF02B
:1009180000004FF0004CB6E711F4801F04BF0143FC
:100928000020B4F1FD0C88BFBCF5E06F3FF6AFAE18
:10093800B5EB030C04BFB6EB020C5FEA500C50F1A8
:10094800000041EB045170BD0EF0004E4EEA11312B
:1009580014EB5C04C2BFD4EB0C0541EA045170BD32
:1009680041F480114FF0000E013C90E645EA060E76
:100978008DE60CEA135594EA0C0F08BF95EA0C0FA4
:100988003FF43BAF94EA0C0F0AD150EA01347FF4EC
:1009980034AF95EA0C0F7FF425AF104619462CE7C3
:1009A80095EA0C0F06D152EA03353FF4FDAE104626
:1009B800194622E750EA410618BF52EA43067FF477
:1009C800C5AE50EA41047FF40DAF52EA43057FF407
:1009D800EBAE12E780F0004002E000BF81F000417A
:1009E80042001FBF5FEA410392EA030F7FEA226CCD
:1009F8007FEA236C6AD04FEA1262D2EB1363C1BF5D
:100A0800D218414048404140B8BF5B42192B88BFCB
:100A1800704710F0004F40F4000020F07F4018BFEE
:100A2800404211F0004F41F4000121F07F4118BF0E
:100A3800494292EA030F3FD0A2F1010241FA03FCB6
:100A480010EB0C00C3F1200301FA03F100F000439E
:100A580002D5494260EB4000B0F5000F13D3B0F166
:100A6800807F06D340084FEA310102F10102FE2AD5
:100A780051D2B1F1004F40EBC25008BF20F0010045
:100A880040EA03007047490040EB0000013A28BFE4
:100A9800B0F5000FEDD2B0FA80FCACF1080CB2EB67
:100AA8000C0200FA0CF0AABF00EBC25052421843E5
:100AB800BCBFD0401843704792F0000F81F400018A
:100AC80006BF80F400000132013BB5E74FEA41035D
:100AD8007FEA226C18BF7FEA236C21D092EA030FC9
:100AE80004D092F0000F08BF0846704790EA010F43
:100AF8001CBF0020704712F07F4F04D1400028BF70
:100B080040F00040704712F100723CBF00F5000051
:100B1800704700F0004343F0FE4040F40000704787
:100B28007FEA226216BF08467FEA23630146420233
:100B380006BF5FEA412390EA010F40F48000704746
:100B48004FF0000304E000BF10F0004348BF4042EC
:100B58005FEA000C08BF704743F0964301464FF028
:100B680000001CE050EA010208BF70474FF0000384
:100B78000AE000BF50EA010208BF704711F00043C5
:100B880002D5404261EB41015FEA010C02BF844695
:100B98000146002043F0B64308BFA3F18053A3F5F4
:100BA8000003BCFA8CF2083AA3EBC25310DB01FA3B
:100BB80002FC634400FA02FCC2F12002BCF1004FBF
:100BC80020FA02F243EB020008BF20F00100704750
:100BD80002F1200201FA02FCC2F1200250EA4C00A4
:100BE80021FA02F243EB020008BF20EADC707047EA
:100BF8004FF0FF3C06E000BF4FF0010C02E000BFE1
:100C08004FF0010C4DF804CD4FEA40024FEA410382
:100C18007FEA226C18BF7FEA236C11D001B052EA38
:100C2800530C18BF90EA010F58BFB2EB030088BFFE
:100C3800C81738BF6FEAE17018BF40F0010070476D
:100C48007FEA226C02D15FEA402C05D17FEA236C4F
:100C5800E4D15FEA412CE1D05DF8040B704700BF96
:100C6800844608466146FFE70FB5FFF7C9FF00282D
:100C780048BF10F1000F0FBD4DF808EDFFF7F4FF66
:100C88000CBF012000205DF808FB00BF4DF808EDFF
:100C9800FFF7EAFF34BF012000205DF808FB00BF22
:100CA8004DF808EDFFF7E0FF94BF012000205DF844
:100CB80008FB00BF4DF808EDFFF7D2FF94BF0120F5
:100CC80000205DF808FB00BF4DF808EDFFF7C8FFEE
:100CD80034BF012000205DF808FB00BF7BB972B962
:100CE8000029BEBF00204FF0004106E008BF0028E1
:100CF8001CBF6FF000414FF0FF3000F077B8ADF146
:100D0800080C6DE904CE002909DB002B1ADB00F082
:100D1800AAF8DDF804E0DDE9022304B07047404298
:100D280061EB4101002B1BDB00F09DF8DDF804E0CE
:100D3800DDE9022304B0404261EB4101524263EB1A
:100D480043037047524263EB430300F08CF8DDF82D
:100D580004E0DDE9022304B0404261EB4101704741
:100D6800524263EB430300F07EF8DDF804E0DDE96E
:100D7800022304B0524263EB4303704753B94AB9A4
:100D8800002908BF00281CBF4FF0FF314FF0FF308B
:100D980000F02CB8ADF1080C6DE904CE00F063F852
:100DA800DDF804E0DDE9022304B07047D0B5FFF7B1
:100DB800A7FB0C4B002206460F46FFF7F9FB00F095
:100DC80017F80446FFF77AFB074B0022FFF7F0FB02
:100DD80002460B4630463946FFF732FA00F008F86B
:100DE8002146D0BD0000F03D0000F041704700BF33
:100DF8004A0011D212F5001211D20DD56FF4787392
:100E0800B3EB62520ED44FEAC12343F0004343EAE6
:100E1800505323FA02F070474FF00000704750EA31
:100E2800013002D14FF0FF3070474FF0000070479B
:100E3800034613F8012B002AFBD1181A0138704712
:100E480010B500210446FFF721FF20B92046BDE870
:100E58001040FFF7ABBF04F10040FFF7A7FF404287
:100E680061EB410110BD2DE9F04786468C460846E6
:100E7800089E154674461946002B40F0C2808542EC
:100E8800B2FA82F245D94AB1C2F1200300FA02FC53
:100E98002EFA03F3954043EA0C0C94404FEA154EA2
:100EA800A8B2BCFBFEF8230C0EFB18CC08FB00F91B
:100EB80043EA0C43994528D9EB1808F1FF3704D2C7
:100EC800994502D9A8F102072B44A3EB0903A4B260
:100ED800B3FBFEFC0EFB1C330CFB00F044EA03449E
:100EE800A04214D92C190CF1FF3304D2A04202D924
:100EF800ACF102032C44241A43EA07401EB1D44043
:100F0800002334607360BDE8F0874746DDE7634639
:100F1800F1E792BB431B01214FEA154EAFB2B3FB79
:100F2800FEFC200C0EFB1C330CFB07F840EA0343C5
:100F3800984562D9EB180CF1FF3004D2984502D9D4
:100F4800ACF102002B44A3EB0803A4B2B3FBFEFCF4
:100F58000EFB1C330CFB07F744EA0344A7424ED9A7
:100F68002C190CF1FF3304D2A74202D9ACF10203C9
:100F78002C44E41B43EA0040C0E7C2F1200320FAF6
:100F880003F1954090402EFA03F303434FEA154EC0
:100F9800AFB2B1FBFEFC0EFB1C10190C0CFB07F8E2
:100FA80041EA0041884504FA02F422D969180CF193
:100FB800FF3004D2884502D9ACF102002944A1EBE4
:100FC80008019BB2B1FBFEFC0EFB1C110CFB07F7E2
:100FD80043EA01439F420ED9EB180CF1FF3104D2CA
:100FE8009F4202D9ACF102012B44DB1B41EA0041CC
:100FF80092E76046E3E76146F7E76046A3E76346A2
:10100800B7E7834206D916B9002108467BE7C6E947
:1010180000E0F9E7B3FA83F78FB9834201D3724549
:1010280008D8BEEB020460EB030301209C461EB9FE
:10103800002168E73846FAE7C6E9004CF8E7C7F147
:10104800200CBB4022FA0CF41C432EFA0CF120FAB7
:101058000CF3B84001434FEA14490EFA07F5B3FB05
:10106800F9F81FFA84FE09FB18300B0C08FB0EFA7E
:1010780043EA00439A4502FA07F240D9E31808F117
:10108800FF3004D29A4502D9A8F102002344A3EB09
:101098000A0389B2B3FBF9F809FB183308FB0EFE03
:1010A80041EA03418E452CD9611808F1FF3304D277
:1010B8008E4502D9A8F10203214443EA0040A0FB6F
:1010C8000298A1EB0E014145CE46434602D306D114
:1010D8004D4504D2B9EB020E68EB04030138002E2B
:1010E800A6D0B5EB0E0261EB030101FA0CFC22FA63
:1010F80007F34CEA0303F940C6E9003198E7404694
:10110800C5E74346D9E7000030B50025A1B00C4635
:101118007C22294601A8009514F0A2F87F2269468E
:10112800204611F000FC00280EDD00F180036B441E
:10113800084803F8805C036803F00703022B03D90F
:10114800054A03210FF057FB204611F0D6FA21B0CB
:1011580030BD00BF500F00206A6001002DE9F04F3C
:1011680083B002AF03F04CFC41490446414804F007
:101178006FFB6CB9204605F0B5F83F48036803F0EB
:101188000703022B10D93D4A03210FF034FB0BE073
:10119800002120460EF093FD0028EBD008212046C0
:1011A8000EF08DFD0028E5D0DFF8D4A0324E4FF0C8
:1011B80000084FF000090023CDE900891A461721DD
:1011C800204605F0B5FD054668B93368590704D0CF
:1011D8002C4A012130460FF00EFB00214FF420303D
:1011E80013F072FEE7E71722514611F0F4FC58B1EC
:1011F80033685A0704D0244A012130460FF0FBFA1D
:10120800284611F07AFAE8E7AC6134B123686BB389
:101218001B7C85F8203085F82A3013F09DFD4FF0AF
:10122800000B421E4BF1FF33284610F0DBF95845FE
:10123800336803DA5B07E3D0144ADDE703F00703FA
:10124800022BCAD96D4688B002AA114BC2E9053AE9
:101258004FF4007393830F4B42F8103F4FF4E6515D
:101268005B46304600F0BEFFAD46B6E71B78FFDEB2
:1012780011110000081F0020500F00207C600100A1
:10128800B360010092600100CB600100F1600100D1
:1012980005610100030000012DE9F04F91B08407BA
:1012A800009302F004030293C2F3C20303F10103A3
:1012B800DDF86880039205460E46059340F0BA8132
:1012C800041D30B1072909D86FF01B0011B0BDE823
:1012D800F08F01F007063444C6F10806009B4FF072
:1012E8000009591E4FF0040A4FF0FF330193CDF85F
:1012F80010904F46CB4653460DB1009A2260059890
:10130800002800F3E8809848009A824203D397485F
:101318008242C0F0E080039AA4EB050E92074FEAE0
:101328009E0000F103810F2F00F2B180002D00F024
:10133800058107F140020DEB020C019A0CF8200C14
:101348000CF8102C049801300490E7E07A285DD856
:101358004B280ED8472859D829282DD8252852D0C7
:1013680054D820287AD02338D0F1000B4BEB000B4F
:1013780074E04C382E2849D8DFE800F07048484817
:1013880048484848484848484B48484848484848D2
:101398004859484B4B595959704B6D487048184B30
:1013A800184848827F4B48484B487F0000204FF040
:1013B800000B4FF0040A38E02A38C0B2012202FAC2
:1013C80000F010EA0E0F49D110F0625C2FD110EA3C
:1013D800020B43D06046013C5444B4FBFAF40AFBC8
:1013E80004F4002D61D0A3EB050CA444B4453FF6EA
:1013F8006BAF002868D1042B47D158F8043B236011
:10140800043404232AE0019A013A01924FF0000BB8
:1014180024E011F8010C6C2834D111F8023C0020AA
:101428006C2B8346C5D14FF0080A5346D3E708F121
:10143800070828F007080734F8E802AB24F0070487
:1014480035B106982044B0423FF63EAFC4E900AB40
:1014580008344FF0000B4FF0080A534611F8010FFB
:10146800002878D0BBF1000F7FF470AF2528F5D1A4
:10147800019B013301934FF0010B4FF0040AECE795
:10148800584694E700208346A5E7082B02D06FF062
:1014980015001BE708F1070828F00708F8E80223F9
:1014A800C4E9002308340823D8E768B9042B02D11B
:1014B80008F10408A4E7082BE9D108F1070828F087
:1014C800070808F10808EDE7059A013A059258F867
:1014D800042B009210E7039A900720D5A4EB050E81
:1014E8004FEA9E004FF0010CBEF5007FCFD20F2FC0
:1014F800CDD8F5B107F140020DEB020EC0B2019A4A
:101508000EF8200C0EF8102CBCF1000F3FF41AAFA7
:1015180060F07F000EF8200C09F101090137C5F1D0
:101528000802043406924FF6DA7E97E74FF0000C73
:10153800DAE7BCF1000F01D00136EFE70298023676
:101548000028EBD10098CDE90631FFF771FCDDE901
:1015580006310644E2E7631BB3F5806F97D23DB9C5
:10156800A6F10804E018B1E68453010038760100BA
:10157800029A28609B082B709DF81030C2B1EB705E
:1015880085F80290B9F1000F05D008A80022C5F12E
:10159800010C97420ED1C5F101030DF120084FF05F
:1015A800000A01930DF1300B574512D1601B8DE6EF
:1015B8006B70E5E710F8013B190608D50CEB040E33
:1015C800B64503F07F033FF67FAE04F8013B0132D6
:1015D800DFE7B9F1000F03D098F90020002A17DBE4
:1015E800029BD3B11AF80B2004F8012B0022019BAF
:1015F80018191044B0423FF667AE98F8000004F896
:10160800010B00990392204613F002FE039A14443A
:101618000AF1010A08F10108C6E798F8002055F810
:1016280022300093029B45F822300098FFF700FC17
:10163800421CDCE76FF00D0048E600BF2DE9F04FD3
:1016480097B000AF90F802A0D7F880B03B62CBF318
:10165800C0030446FA62BB61894641B945780078FF
:101668000AEB800020444D4517D8A0EB0409E37825
:10167800FB61BAF1000F02D01BF0010F16D1FB6914
:1016880053BBFB6A1BB13A6A4946204698474D4608
:1016980028465C37BD46BDE8F08F461C3046FFF74C
:1016A800C7FB0130304409F10109DCE7237862689F
:1016B8007A62FA6A9900796104EB8301002A40F0A2
:1016C80004814D460E4601EB0A094FF000084E45CD
:1016D80050D101EB0A0610E01BF0020FD1D023789D
:1016E8009A007A6162687A62FA6A04EB8301002AD6
:1016F8007BD14D4601EB0A0690461BF0050F0CBF47
:1017080002230123FB62FB6906EB430A0BF0020389
:10171800BB625645BCD016F8021B16F8013C54F8BB
:1017280023909B4B994502D39A4B99453AD3BB6971
:10173800002B44D0786A0EF065FC00283FD096480C
:10174800036813F0060F13D0E9468AB06A46934B34
:1017580053617B6AC2E906314FF400731384904BDE
:1017680042F8103F00234FF4125100F03BFDCD46E4
:10177800023DCEE716F8013BF96254F82300FFF763
:1017880057FBD7F88430F96A01304BB1D7F8883065
:1017980098453EBFD7F8843023F8180008F10108AF
:1017A800054494E7BB6923B1786A0EF02BFC002846
:1017B800C5D11BF0010F05D1FB6AED1AA9E7BB6A79
:1017C800002BA6D04846FFF733FBD7F8843053B137
:1017D800D7F8883098453FBFD7F88420431C22F8B3
:1017E800183008F10108054493E7BAF1000F72D0E8
:1017F8001BF0040672D0D046002607F14800524676
:101808003B61B96213F004FDB96A3B6901EB0A0256
:10181800BA62FA69F9695200FA60BA6A02EB4102DF
:101828003A610BF00202BA603A69B96A8A4257D142
:1018380062787A621BF0020F32440CBF4FEA5801FB
:1018480000211BF0010FD2B240F09F801BF0040F63
:1018580014BF40460020BB616270A070E1703A6A14
:101868007969FB6A20469847051EFFF611AFBB69E8
:1018780023707B6A6370FB69E37041463A6AFB6ACE
:1018880084F802A007F148009847B0F10008C0F2B8
:10189800BB807B693A6AA9EB0A01C91AFB68C91AB5
:1018A800D7E90A0398470028C0F2B080A84408EB9B
:1018B80000054FF0000B07F1380AB34572D3002139
:1018C8003A6AFB6A08469847E2E656464FF000082F
:1018D80007F1380093E75646D04697E7B04695E7B4
:1018E800BA6A12F8021BBA6212F8015C284A54F864
:1018F8002500904202D3274A90421ED3BA6932B1DA
:10190800786A7B600EF07EFB7B6800288CD1BA6811
:1019180002BB08F1280207F1300C08F101009444D9
:1019280007F1580252FA80F008F102080CF8101C6E
:101938005FFA88F800F8105C76E7BA693AB1786A15
:101948007B600EF05FFB7B6800287FF46DAF1BF0B7
:10195800010F09D006F1280207F13000711C161892
:1019680006F8205CCEB25FE71BF0040F3FF45CAFD3
:1019780008F1280207F1300008F1010102EB000824
:1019880008F8105C5FFA81F84EE7002063E700BFB3
:101998008453010038760100480F002020610100BF
:1019A800040000011BF80A3087F8373054F82390F8
:1019B800D7F884302BB3D7F888309B4521D2D7F895
:1019C800843033F81B803A6AFB6A012107F137003B
:1019D800984700281ADB0544B8F1000F06D148469D
:1019E800FFF726FA00F101081FFA88F83A6AFB6A3D
:1019F800414648469847002808DB05440BF1010B8F
:101A08005BE74FF00008DEE7454641E605463FE65E
:101A1800014B1860704700BF4003002080B50546A1
:101A28000E46174698460DF03BFB034613F09CFC08
:101A3800DFF81890044649F80030424630463946E7
:101A4800A84754F8090001F0E7FB00BF08000000B0
:101A580008B54FF08053D3F8E8311B689847082839
:101A680005D1044B0122DA6203F50053DB6A00203A
:101A780008BD00BF0000094070B5044612F015FB10
:101A8800002181F31188BFF36F8F032C25D002D872
:101A9800022C08D070BD043C022CFBD8BDE8704075
:101AA800084609F06DBE09F093FB0E4D04464FF051
:101AB8008056D6F8D83128469B68984704280346AC
:101AC800F7D014F0100000D103B9012009F0DAF8BA
:101AD800054B0122DA62DB6ADCE7BDE870400120D1
:101AE80009F07EBE00400340002009402DE9F04780
:101AF800DFF85880044607464FF0010914B9384604
:101B0800BDE8F08794FAA4F5B5FA85F509FA05F366
:101B18002E0108EB05156FEA030A24EA03042B7B60
:101B2800002BEBD058F806301B694BB94644042209
:101B380073682846196807EA0A070EF0E5FDDDE72D
:101B4800284698470028D9D1F0E700BF145601006D
:101B580030B51049104889B0002213F0B0FA0F4D83
:101B68000F4900220023CDE9062300240E23CDE9E6
:101B78000334CDE901440B4B00944FF440722846DE
:101B88000CF0CAFF0849284613F0ECF8204609B0C3
:101B980030BD00BFB51B000060160020D811002022
:101BA800802700201D1F0000D861010001480CF0AB
:101BB80055BD00BFC41000202DE9F04780462148DC
:101BC8000F460EF079FD0646002833D0002528463A
:101BD800BDE8F087237B83B12368DB680BB120461F
:101BE8009847636883F8069023681B69D3B96368CC
:101BF8000422196820460EF087FD0136103454453A
:101C0800E8D3B8F1000FE2D0002DDFD02846FFF767
:101C18006DFF0546002FF7D000214FF4A47013F094
:101C280053F9F1E7204698470028E0D009FA06F36F
:101C38001D43E2E7044CDFF814A005464FF0010904
:101C4800DDE700BF201F00201456010024560100C4
:101C5800014B53F8200070474C56010008B5034665
:101C680008462BB1044A136000F05EFD002008BD51
:101C78006FF01500FBE700BF4403002010B5044CCB
:101C8800237813B903480CF0E9FC0123237010BD35
:101C98006E260020C410002010B504460B480EF034
:101CA8000BFD5CB1BFF35B8F094B53E8001F013993
:101CB80043E80012002AF8D1BFF35B8F054813F000
:101CC8000AFA0548BDE810400CF0C8BC181F0020EF
:101CD8001C1F002060160020C41000200020064BA6
:101CE800BFF35B8F014653E8000F43E80012002A58
:101CF800F9D1BFF35B8F7047181F002070B5FFF74D
:101D0800EDFF084C084E0546B44200D370BD636829
:101D18005B792BB123685B6813B129462046984745
:101D28001034F1E7145601002456010010B5044C94
:101D3800044920460EF09DFA034B1C6010BD00BFFD
:101D4800040F002038560100101F00200E4A0F48CB
:101D5800002310B513700E4A13600E4A4FF4004169
:101D68001360FFF77BFFFFF7E1FF00F081F90A4BF3
:101D78000A4918468B4200D310BD1A1A5C68121122
:101D8800013222711033F5E76F260020BD060100ED
:101D9800181F00201C1F00201456010024560100A3
:101DA80001460022014800230EF084BA040F0020E7
:101DB80001480EF01DBB00BF040F0020024B014676
:101DC80018680EF069BB00BF101F002001480EF014
:101DD8009EBB00BF040F00202DE9F041364B187858
:101DE800002866D0FFF7E4FF044600285DD1334B96
:101DF800334C1B68002B19DD13F01AF94FF47A7273
:101E0800A0FB020302FB0131C30BD4E9002043EA23
:101E180041439B1A4FEAD13140F2E93261EB0001AC
:101E2800934271F1000101D3FFF768FFD4E9003252
:101E380013F57A7342F10002C4E90032BDE8F041BB
:101E4800FFF7C4BF6B685B793BB121784B0717D5A7
:101E58002B6821461B682846984710354545F1D31D
:101E68002046FFF7ABFFBFF35B8F164B53E8001F0D
:101E7800013943E80012002AF8D1BFF35B8FB6E7B7
:101E880020462688C1F3C20700F08CFAC6F38216F2
:101E98000246002EDCD00028DADB0123394628462A
:101EA80000F07AF9B042D8D3D2E7074DDFF81C80AA
:101EB800D4E7BDE8F08100BF6E260020181F00207F
:101EC800581600201C1F002014560100245601003B
:101ED80070B50D4D297861B90120FFF76DFE0B4CE7
:101EE8000B4EB44206D3FFF777FF0028FBD101233E
:101EF8002B7070BD63685B791BB1236820469B68B3
:101F080098471034EDE700BF6F26002014560100F3
:101F18002456010000212DE9F0470846FFF74CFE42
:101F2800044658B340F267684FF0000913F01CFAF2
:101F38001B4B1C4A1B58136033B11B4B1B68092BE6
:101F480002DD1A480CF08AFB194FDFF860A0002563
:101F580044B12046FFF7CAFD044618B94FF0FF38D0
:101F68004FF0FF39FFF738FF064628B9B5B94246A2
:101F78004B4650460CF0ACFB3546E9E74FF0FF38CE
:101F88004FF0FF39D2E72B689B691BB1002211463D
:101F9800284698471035BD42F5D3E8E7054DFAE7DE
:101FA80008000000141F00201C1F0020C41000207F
:101FB800245601001456010013B518480EF07CFB96
:101FC800174B1B7873B1EFF31184202383F3128826
:101FD800BFF36F8FFFF700FF84F31188BFF36F8F94
:101FE80002B010BD0F4B1B68002BF9D050B900226E
:101FF8000023CDE900230C484FF4004200230DF0E4
:1020080055FBEDE70928EBD1074813F064F80748BA
:1020180002B0BDE810400CF021BB00BF1C1F00201F
:102028006F260020141F002060160020C410002016
:1020380010B5064B1B68044698472146A060044823
:102048000EF0B7F9BDE81040FFF7B6BF4403002013
:10205800040F0020044A054B9B1AB1EBD30F34BF81
:1020680052F8310000207047045501001456010051
:102078000B480C4B30B51B1A0B4CDB080021043005
:10208800994200D130BD10F83120256802F00702CE
:1020980025F007052A4344F8042B0131F0E700BF77
:1020A8000455010014560100480F002000282DE9AE
:1020B800F047884615461F461DDADFF89890264EE9
:1020C8004FF0000AA6EB090636095446B24509F155
:1020D800100902D12046BDE8F08759F80C0C3B46A0
:1020E80000792A464146FFF7E1FF844238BF04469B
:1020F8000AF1010AEAE7194B194AD21AB5EBD20FCD
:1021080026D203EBC5031C79BC4228BF3C46154EBA
:10211800C0B200EB400056F825300722824023EA7F
:10212800020304F00702824013430021032223FA2A
:1021380002F000F00700814202F1030238BF0146B5
:102148001E2AF4D123F007030B4346F82530C1E7D4
:102158000024DCE714560100245601000455010050
:1021680014560100480F0020F8B5094D094BED1A27
:1021780006460F46ED080024AC4200D3F8BD002106
:1021880022B23B46304601340EF0B6FAA4B2F3E769
:10219800145601000455010070B14168097973B102
:1021A800002A17DBCBB20C4951F8220003EB43039A
:1021B800D84000F0070070474FF0FF31EFE70749BC
:1021C8000748401AB2EBD00F3ABF01EBC2010879B9
:1021D8001846704704207047480F00200455010036
:1021E800145601002DE9F04F8FB004AFC1F34A280F
:1021F800B8600D4691467B600C0DB8F1000F67D0B2
:10220800002607F114034FF0040B4FF00A0AC7F831
:102218000C80C7E907667E620193CDF808B0CDF857
:1022280000A007F11C03F96832464846FFF706FA92
:10223800B0F5006F034620D32A48036813F0060F51
:1022480017D06C468AB0D9F8041004AB264DC3E900
:10225800055140F2FF71D9611A464FF40071198493
:10226800224B42F8103F4FF412513346FFF7BAFFA2
:10227800A5462C37BD46BDE8F08FC0F30A0804F127
:102288001700184420F0070080083B60FFF788FD1E
:1022980068F35325044690B13B68154AC7E90836E8
:1022A80000F1100107F11403F961CDE900A3CDF89D
:1022B80008B0F96807F11C034846FFF7BFF968F34F
:1022C80053257B68B9682A4620460EF044FAD0E7C1
:1022D80004F1170020F007008008FFF761FD0446AD
:1022E800EDE700BF540F0020ED610100040000017C
:1022F800330701002DE9F04F87B0DDE91279DDE9F8
:10230800105A0446039193469846DFB1CDF80090E1
:102318003B46524610210020CDF81490FEF7BCFF32
:10232800B0F5006F06460ED31C48036813F0060F7D
:1023380030D01B4A40F2FF73022107B0BDE8F04FCE
:102348000EF062BA3E4605F11700304420F007004F
:1023580004F007048008FFF723FD0BF0070BE400E7
:1023680044EA8B1444EA462444EA0554054640B13D
:102378003FB1CDF800903B46524631461030FEF74B
:102388008BFF039943462246284607B0BDE8F04F25
:102398000EF0E1B907B0BDE8F08F00BF540F002080
:1023A8002C620100406820B1034BC01A40F38F0033
:1023B80070474FF0FF307047480F00200EB403B548
:1023C80003AB014653F8042B0448019301F0C0F90C
:1023D80002B05DF804EB03B0704700BF730801005A
:1023E800CA0605D48B064CBF02490349FFF7E6BF6E
:1023F800704700BF65620100646201002DE9F04F7B
:1024080089B09B46149B06939DF84CA0159B059399
:10241800169B179E049304460D469046BAF1000F8A
:1024280000F09D8006F4807307930EF063F906F0C0
:102438000209024600283ED091492046FFF7BEFF18
:102448000746B9F1000F08D016F0440F35D18D4971
:102458002A462046FFF7B2FF074406F0010353B1AE
:10246800894B8A4953F82A20894B2046002A08BFFD
:102478001A46FFF7A3FF06F48073002B49D006F035
:102488000803002B63D1B8F1000F66D0814942469A
:102498002046FFF793FF0546069B3D44002B6DD170
:1024A800049B002B73D1F30700F1E48031462046EA
:1024B800FFF796FFD8E00746C3E7774B1868002870
:1024C800CAD0764B4FF47A791B68B5FBF3F54FF415
:1024D8006163B5FBF0F100FB115509FB05F54FF001
:1024E8003C0CB1FBF3F203FB1211B5FBF0FEB1FBA0
:1024F800FCF300FB1E550CFB131109FB05F50091BD
:10250800B5FBF0F56649CDE901E52046FFF756FF32
:10251800A2E706F00803EBB1624B634953F82A209F
:102528002046FFF74BFF0546B8F1000F05D0594983
:1025380042462046FFF742FF0544BBF1000FABD0EF
:102548005A495A462046FFF739FF0544A4E74FF099
:10255800000BE1E706F00805E6E745469CE7BBF116
:10256800010F069B06D1002B64D1049B002B7BD066
:1025780000250CE0002BF8D04D485CE04D48069B48
:102588004D4922460DF00DFD049B002B68D0DFF865
:102598002C81DFF82C91049F3146102F204628BF4C
:1025A8001027FFF71DFF4FF0000B5D4545DC059B2D
:1025B80049461A782046FFF701FF4FF0010B1BF040
:1025C800070F03D141462046FFF7F8FE5F453BD988
:1025D800059B494613F80B202046FFF7EFFE0BF149
:1025E800010BBBF1100FEAD1364920464FF0000B22
:1025F800FFF7E4FE5A46059B9A5CA2F120015F2989
:1026080028BF2E2230492046FFF7D8FE0BF1010BD8
:10261800BBF1100F1DD01BF0070F03D14146204618
:10262800FFF7CCFE5F455A46E5D841462046FFF7FE
:10263800C5FEEBE71F485546A1E741462046FFF790
:10264800BDFE0BF1010BB0E720492046FFF7B6FEAF
:10265800C5E7059B3B440593049BDB1B04939AD178
:10266800BAF1000F7FF41FAF204609B0BDE8F04F64
:102678000EF0EEB8064A05492046FFF79FFE15E71B
:102688006C620100706201005C5601007960010013
:102698006762010095620100281F0020241F0020A6
:1026A8007962010070560100996201009F62010081
:1026B800A90801007308010059370000AC62010045
:1026C800A4620100AE620100B0620100AA620100CA
:1026D80073B542F20F738B4228BF0B4605680F4A49
:1026E8000446052168460DF061F863680C495B688B
:1026F80006460B2228460EF09DF863683246694666
:1027080028465B680EF096F8636806495B681B22EA
:1027180028460EF08FF802B070BD00BF3872010075
:10272800CF620100B3620100074A002101239042F1
:1027380006D8064A01B901231360054B1860704793
:1027480040085B000121F2E740420F00241F0020EF
:10275800281F0020F8B5074F0D4604464618B44216
:1027680001D12846F8BD14F8011BBB6801485B6815
:102778009847F4E764540100014B03600020704758
:10278800B8560100F8B50546EFF31186202383F308
:102798001288BFF36F8F094B094F1C6824B986F361
:1027A8001188BFF36F8FF8BDD4E90123002D18BF3E
:1027B80013460BB1387898472468EFE7701F00205C
:1027C800641F002010B50F4BBFF35B8F53E8002F39
:1027D80022F0010143E800100028F7D1BFF35B8F16
:1027E800D3070DD5084C617820780DF04DFF0020F7
:1027F800FFF7C8FF11F046FC0023C4E90033A360CB
:1028080010BD00BF781F0020641F0020F8B50446E3
:1028180000F076F8611C054604D06A1C49D0A54230
:10282800A8BF2546EFF31186202383F31288BFF350
:102838006F8F264B264C187800283CD093E8070069
:1028480084E8070000221A7086F31188BFF36F8F9F
:10285800207868B3A0681F4E1F4A4FF40047002134
:10286800E0FB076100233046FEF788FA28B16B1CAD
:1028780003D00121281A08F071F80CF019FB012087
:10288800FFF780FFBFF35B8F144B53E8001F41F045
:10289800010143E80012002AF7D1BFF35B8F2078CB
:1028A8006178FFF7E9F8FFF78DFF0CF015FB0120C1
:1028B800F8BD2546B6E7294600F0DEF818B107C886
:1028C80084E80700C0E72070BEE700BF581F00205B
:1028D800641F002020A1070040420F00781F00203D
:1028E80001289FBF044B53F820300B60034B94BF63
:1028F800185C0020704700BFB8560100186301003B
:1029080070B5EFF31186202383F31288BFF36F8F1E
:102918000A4B1B687BB1D3E9024512F089FB201AE8
:1029280065EB0101002901DA0020014686F31188D0
:10293800BFF36F8F70BD4FF0FF30F6E77C1F0020AC
:1029480010B5184B1A78824224D15C788C4214D086
:10295800FF2912D0187A90420ED15B7A8B420BD1A4
:10296800BFF35B8F104B53E8001F013143E800129F
:10297800002AF8D1BFF35B8F10BD0C4ABFF35B8F01
:1029880052E800CF0CF1010C42E800C4002CF7D14A
:10299800BFF35B8F1A7A8242EED15B7A8B42DFD02B
:1029A800FF29DCE7540300206003002058030020BF
:1029B80010B5184B1A78824224D15C788C4214D016
:1029C800FF2912D0187A90420ED15B7A8B420BD134
:1029D800BFF35B8F104B53E8001F013943E8001227
:1029E800002AF8D1BFF35B8F10BD0C4ABFF35B8F91
:1029F80052E800CF0CF1FF3C42E800C4002CF7D1AC
:102A0800BFF35B8F1A7A8242EED15B7A8B42DFD0BA
:102A1800FF29DCE75403002060030020580300204E
:102A2800134B1A7882420CD15878884211D0FF296A
:102A38000FD0187A904218D15B7A8B4215D10123B6
:102A480008E01A7A824210D15B7A8B42F7D0FF29CC
:102A5800F4E70023074ABFF35B8F52F83300BFF354
:102A68005B8F003818BF012070470020704700BFF7
:102A780054030020580300202DE9F74FB1F1FF3F20
:102A8800884601A90CBF4FF0FF3A4FF0000AFFF744
:102A980027FF441E24B204EB44040546A40025B9CC
:102AA8002F46384603B0BDE8F08F019B1F19185D0B
:102AB8007978FFF7B5FF064648BB7868DFF858C055
:102AC800164A4FF4004B3146E0FB0BC10023604629
:102AD800FEF754F9DFF840C0104A8146B86831461D
:102AE800E0FB0BC100236046FEF748F90C4B1B685E
:102AF800002B01DB83420AD9BAF1FF3F08BFB8F1C6
:102B0800FF3FCED08144C8457AF10003C9DA013DC0
:102B1800ADB20C3CC3E700BF3F420F0040420F007C
:102B28005003002038B50C4615460DF035FF034B11
:102B380043F8305003EBC0035C6038BDC80D00207B
:102B48002DE9F843054600AF0C46002948D0DFF8C8
:102B5800B890D9F800305A0742D06E468AB0D1E909
:102B68000001A3686A46DFF8A4C04FF00508C2E96F
:102B780005C0C2E9071342F8108F00234FF4215112
:102B88004846FFF72FFBD9F800305B07B54627D03A
:102B98008AB0D4E9030163696A46DFF874C0C2E900
:102BA8000713C2E905C042F8108F002348464FF4C6
:102BB8002151FFF717FBD9F800305807B5460FD059
:102BC800E3690121134A48460DF01EFED9F800308A
:102BD800590705D0A369104A012148460DF014FE93
:102BE800012D0AD1EFF3058307480268520704D084
:102BF8000A4A103B29460DF007FE214628460BF0ED
:102C080045F9BD46BDE8F883C40F00201A630100EA
:102C1800496301007863010087630100B56301001F
:102C280030BFFFF7FDBF00BF2DE9F0410B4EDFF8C5
:102C3800308006EB0807CC1B05463246094920467A
:102C480012F0E6FAA01942460021083C12F008FBEF
:102C58006C6707F10800BDE8F08100BF00000000C4
:102C68000400000024560100054B9A699B689A42AB
:102C78001FBF044A536843F080535360704700BF36
:102C88003026002000ED00E0F8B5374C23685B07DC
:102C980006460D4603D0354920460DF089FE344BD3
:102CA8009B6ADF0451D52368580703D031492E4861
:102CB8000DF07EFE17202E4B9B6A190507D5236859
:102CC8005A0703D02C4928480DF072FE1820284FC7
:102CD800BB6A9B0519D52368580703D027492248A2
:102CE8000DF066FEBB6BBA6A11040DD52268520757
:102CF80004D0234A1C4801210DF086FD26B11C4A48
:102D0800936A23F4004393621920194B9B6A5B056D
:102D180007D523685F0703D01A4913480DF048FE0A
:102D28001A20134B9A6AD60511D52368590703D080
:102D380015490D480DF03CFE1B200D4A936A43F4DB
:102D48007F43936200232B70F8BD1620B3E79B6A7C
:102D58009A04F2D523685B0703D00C4902480DF0AA
:102D680027FE1C20E9E700BFC40F0020C86301004C
:102D780000ED00E0DE630100EF6301000264010082
:102D88001B640100306401004B64010063640100AE
:102D980010B52D4C23685A0703D02C4920460DF056
:102DA80007FE2B4B9B6A9B014BD52368580703D022
:102DB800284925480DF0FCFD1E20254B9B6AD901AA
:102DC80007D523685A0703D023491F480DF0F0FDA3
:102DD8001F201F4B9B6A1B0307D52368580703D086
:102DE8001E4919480DF0E4FD2120194B9B6A59032F
:102DF80007D523685A0703D0194913480DF0D8FDA1
:102E08002220134B9B6A9B0307D52368590703D0DD
:102E180014490D480DF0CCFD23200D4B9B6ADA03B5
:102E280007D523685B0703D00F4907480DF0C0FD9D
:102E38002420074A936A6FEA03436FEA13439362B5
:102E480010BD1D20B9E700BFC40F00209264010027
:102E580000ED00E0AA640100BD640100D764010030
:102E6800F56401001A650100346501002DE9F04799
:102E7800454D2B68894659078046174603D0434974
:102E880028460DF095FD424B9B6ADA0639D52B682A
:102E98005B0703D03F493C480DF08AFD11243C4BA9
:102EA8009B6A1E0707D52B68580703D03A4936484E
:102EB8000DF07EFD1224DFF8D8A0DAF82830990743
:102EC80021D52B685A0703D034492F480DF070FDDF
:102ED800DAF83460DAF828301B0651D52B685C071D
:102EE80005D02F4A2848334601210DF08DFCB9F151
:102EF800000F04D0264A936A23F0800393621324B8
:102F080003E01024CBE76FF01506214B9B6AD80726
:102F180007D52B68590703D022491B480DF048FDF7
:102F280014241B4B9B6A9A0607D52B685B0703D0B2
:102F38001D4915480DF03CFD1524154B9A6AD50618
:102F480002D49A6A90070AD55B68190507D54146E5
:102F5800304600F021FA10B180F3098802240C4BA6
:102F68009A6A920642BF5A6A22F400525A629A6AD0
:102F780042F0FF029A6200233B702046BDE8F087CA
:102F88006FF01506BBE700BFC40F00205F650100A6
:102F980000ED00E075650100EF630100A865010020
:102FA800C0650100D6650100636401002DE9F041A8
:102FB800744B8AB0D3F8048000AF0446C8F30806FF
:102FC800002585F31188BFF36F8F02F07F43B3F1BB
:102FD8007F4F0AD102F00C03082B15D16A48036809
:102FE800590702D069490DF0E3FC00252C4600235F
:102FF800FB71F31E092B00F29F80DFE803F00A91B2
:10300800948D9D9D9D9D9D9712074CBF0C46012553
:10301800EDE75D4E33685B0703D05D4930460DF040
:10302800C7FC0023FB71574BDA6A900708D5336851
:10303800590703D0574954480DF0BAFC00233CE027
:10304800DA6A002A04DA33685A07F7D05249F2E7F5
:10305800DB6A5B00F2D53368580703D04F494A480A
:103068000DF0A6FC474BA1695A6942F480725A6177
:10307800BFF34F8FBFF36F8F5A6931F8021C22F4E8
:1030880080725A61BFF34F8FBFF36F8F4DF6027294
:10309800914208D09A6AD2B28AB3FA1D0121204619
:1030A800FFF7E4FE3AE03368590705D023683C4A45
:1030B800354801210DF0A8FB2368FA79DAB907F140
:1030C800080604F1200C20686168324603C20834FF
:1030D80064451646F7D17A6A002D4DD0C2F308012F
:1030E80021B96FEA52226FEA42227A6207F1080197
:1030F8001846FFF725FD2837BD46BDE8F0819A6AD6
:1031080012F47F4F04D0F91D0120FFF7BDFD05E043
:103118009B6AB3F5803F91D3FFF73AFE0346CCE7AD
:10312800FA1D0021BBE7F91D0020EEE716480368E9
:103138005A0783D01B497FE7134803685B073FF4AE
:103148007DAF194A194B18F4F87FE8468AB018BFC2
:1031580013466A461649C2E905134FF400731384EF
:10316800103E144BD66142F8103F00234FF4115122
:10317800FFF738F8C54661E722F4FF7222F0010232
:10318800B3E700BF00ED00E0C40F00202366010094
:103198004E660100656601008666010094660100BE
:1031A800B3660100CF6601000A660100F5650100FB
:1031B800F366010004000001044B5A6942F0100252
:1031C8005A615A6922F008025A61704700ED00E01E
:1031D800EFF30880EFF3098101B57246FFF7E6FEC9
:1031E80001BD00BF0A4880F30888202080F31188B9
:1031F80008484FF40461401880F30988EFF31480FD
:103208000221084380F31488BFF36F8F00F08CF815
:103218004046002080340020084B9B6883420BD135
:10322800EFF3058343B1064B5A6842F080525A6067
:103238005A6A22F400425A620BF038BF3026002046
:1032480000ED00E014498A684FF030001044EFF3B5
:10325800098C80E8F01F202080F31288BFF36F8F5D
:103268000E4F4FF000668A698A603E60506F0C4CC2
:103278002060906F0023936780F3118804B510468F
:1032880000F0F8F8BDE8044002F1300090E8F01FC3
:103298008CF30988704700003026002004ED00E018
:1032A800801F00201EF0040F0CBFEFF30880EFF31F
:1032B8000980816911F8021C0229FFD001B5724604
:1032C8000DF06BFB01BD00BF0028ACBF00F16040F2
:1032D800064B4FEA4111ACBF00F5614000F00F000A
:1032E800C9B2B4BF195480F80013704714ED00E058
:1032F80040B2002807DB044A4109012300F01F00FF
:10330800834042F82130704700E100E0044B054A51
:1033180023F07F039360BFF34F8FBFF36F8F704726
:103328000000000000ED00E008B5FFF7EFFF0B4AD2
:10333800D2F8883023F47003C2F88830EFF314838E
:1033480023F0040383F31488BFF36F8F0AF0A0FE01
:103358000BF0E0FF00F05AF80AF0ECFE00ED00E098
:1033680042F8203C009B42F81C3C0A49019B42F869
:10337800183C029B42F8143C21F001014FF0807385
:1033880042F8043C42F8081C0023203A026583678F
:10339800704700BF251A0000094A0346906870B1BB
:1033A80013F1160F406E05D0A0F140029A4205D8DD
:1033B800834203D2814228BF002070470020704713
:1033C8003026002008B51546094A0A4B9060426F1E
:1033D8001A600E4600F04EF82C4686F30988002045
:1033E800054B98472046002100220023034C204724
:1033F80030260020801F0020EB090100251A00005C
:10340800014B10221A61704700ED00E004480023C8
:103418002021C2180133262B82F80013F9D17047F6
:1034280000E100E008B572B60A4B5A691AB10022E9
:103438005A61FFF7C7F962B6EFF30583064A103BF6
:1034480002EBC30152F8330049688847BDE80840D9
:10345800FFF70ABC30260020C80D0020024B034AA3
:103468000348012100F090B800400220000000202D
:10347800D8560100426E054B403A1A60044A402172
:10348800C3E901121846012100F088B8841F002002
:1034980000000B1508B503461148D0F89020C2F378
:1034A8000722013A93420AD90E480268520703D00C
:1034B8000D4A01210DF0A8F96FF0150008BDC0F8FC
:1034C80098300A6822F01F021A4342F01002C0F82E
:1034D8009C208A6842F00102C0F8A0201846EDE757
:1034E80000ED00E0600F00200A670100F0B50E460D
:1034F80085B01F4604460025B54210DA606828B337
:10350800AFB1431E18420DD0124803685B0704D0C0
:10351800114A2B4601210DF077F96FF0150210467C
:1035280005B0F0BD1F28EFD921680B42ECD1236804
:1035380001930DF06AFAA36801A90343D0B203937B
:10354800FFF7A8FF10F1160FE7D0421C01350C3425
:10355800D2E700BF600F002030670100044B05224E
:10356800C3F89420BFF34F8FBFF36F8F704700BF2E
:1035780000ED00E0BFF35F8F024B0022C3F89420F8
:10358800704700BF00ED00E010B5034C012322781E
:10359800FFF7ACFF207010BD7126002008B50B4A5C
:1035A80000231278FFF7A2FF10F1160F07D0084A80
:1035B8000021D2F89030C3F30723984200DB08BDFE
:1035C800C2F89800C2F8A0100130F2E77126002076
:1035D80000ED00E02DE9F04357485849D0F8903005
:1035E8000D68C3F307239D4285B000F2A180FFF761
:1035F800C1FF49680022954201F10C011AD1504CD3
:10360800504F25706846FFF7B7F8DFF83C81DFF8C0
:103618003C9106460025AE421FD12378464900203A
:10362800D1F89020C2F3072293427BDBFFF796FF85
:1036380000204CE0C0F8982051F80C3C23F01F0300
:10364800134343F01003C0F89C3051F8043C43F096
:103658000103C0F8A0300132CDE7009800EB051156
:103668004FEA051CCB683B40B3F5000F44D00AD89D
:10367800B3F5001F2ED0B3F5800F34D0B3F5801FFB
:1036880010D00135C7E7B3F1807F3ED0B3F1007F9A
:10369800F7D150F80C3088684A680DF0B6F940F454
:1036A800802009E050F80C3088684A680DF0ADF9C0
:1036B80040F0885040F43020039001A92078CDE9EB
:1036C8000123FFF7E7FE002828DA6FF0150005B0A0
:1036D800BDE8F08350F80C3088684A680DF095F919
:1036E80040EA0800E8E750F80C3088684A680DF0AE
:1036F8008CF940EA0900DFE750F80C3088684A681E
:103708000DF083F940F08270D6E750F80C308868E5
:103718004A680DF07AF940F08870CDE723780133D4
:103728002370AEE7C1F89830C1F8A000013377E7FD
:103738004FF0FF30CBE700BF00ED00E0E45601009A
:10374800712600200000F0FF0000081100000207A9
:10375800F0B587B007460E46144600211022684689
:103768001D4611F07DFD02238DF802302A46054BD7
:10377800019321466846CDE904760CF043F807B07A
:10378800F0BD00BF330A010008B5024B1B6898471B
:10379800002008BD901F0020034B044A186093784E
:1037A80043F0020393707047901F002064030020C9
:1037B80008B50649064821F00701C1F1005202F593
:1037C80010320CF0B1FB002008BD00BF4F6900208B
:1037D800941F002070B54169867A0B4D044659B193
:1037E800437ADB0706D42C2303FB06535B6A1B686A
:1037F8009B689847002363612C20214606FB0050F4
:10380800BDE8704011F0D4B9DC100020827A064B74
:103818002C2101FB02339A6A1B7F1B33801A23F089
:103828000303B0FBF3F07047DC10002038B5074BFA
:10383800827A2C2404FB02335B6AD3E901240C60EE
:103848001568FFF7E3FF04FB005038BDDC100020CB
:103858002DE9F04385B005466846039190461C461D
:1038680011F0E8FBDDE90067EFF31189202383F30A
:103878001288BFF36F8F6B8B002B41D02A8B9A4233
:1038880025D90022002328460AF0B6FE0446F0B1E6
:1038980089F31188BFF36F8F039B002B41D0324609
:1038A8003B46684611F0EAFBA27A264B2C2101FB25
:1038B800023320465B6A1B6803A91D68DDE9002303
:1038C800A847606170BB2046FFF784FF24E0698B3E
:1038D8004B1E6B8389F31188BFF36F8F2B7F2A8B65
:1038E800AC6A1B3323F00303521A02FB0344154B43
:1038F800154AEB1A9B105343A3722B7FE372CBE755
:1039080089F31188BFF36F8F2346424628460AF091
:1039180073FE04460028BFD10024204605B0BDE848
:10392800F0836361012300252381039B6382E27A8C
:103938006560294604F1180011F092FC636925823C
:10394800E360EAE7DC100020A38B2EBA70B50C4CBC
:103958002C2500B970BD037A4668013BDBB20372BF
:10396800002BF7D1C3604360837A05FB03431B6ACE
:1039780013B198473046ECE7FFF72CFFFAE700BF92
:10398800DC10002010B5084C084800210DF0B1F8F3
:10399800204600210DF0BCF804F1080000210DF0CC
:1039A800B7F8002010BD00BF1057010020570100D4
:1039B80070B50C4606460021194815460DF0A8F8C2
:1039C800002118480DF0A4F814F0010115D0304674
:1039D80009F0EAFF2B88B3F5C15F07D043F6070269
:1039E80093420FD040F60202934218D1EB7B03F0CA
:1039F8007F03A3B1002808DA0221BDE870400A4815
:103A08000DF077B895F82430F1E7074801210DF05B
:103A180070F8BDE87040034801210DF079B870BD19
:103A2800105701001857010020570100F7B5064646
:103A38000D460D4883688AB21B68314698470028AE
:103A480010DA00240CE02F1B042F28BF042710F0E5
:103A58001AFB3A46019001A9301911F0D9FB3C44F0
:103A6800A542F0D803B0F0BD2454010010B50346B8
:103A78000DF063F8044609B9002010BD18460DF092
:103A880066F88206F8D44FF4A472002304F14400C7
:103A98000AF01EFE38B10B300ED0094803685B07E8
:103AA80005D16FF00D00002384F84330E5E7054A9F
:103AB80001210CF0A0FEF4E76FF03D00F3E700BF32
:103AC800840F0020866701002DE9F84F00AF0446F7
:103AD8008A4691460DF03BF810F0400F204625D15C
:103AE8000DF035F84FF0040800F010062EBB204604
:103AF80000F0A2FD054600283FD02448036813F0D3
:103B0800060F0FD0E84688B06A46214BD461C2E957
:103B18000539042342F8103F4FF402513346FEF7AB
:103B280061FBC5462846BD46BDE8F88F0DF00FF885
:103B38004FF0010800F01006D8E751464A462046E3
:103B48000DF077F9022183464B46524620460DF088
:103B580009F805460028E5D1BBF1000FE2D00121A4
:103B68002046FFF783FF0028DCD008F1FF3818F063
:103B7800FF08BBD16FF00405D4E751464A462046FA
:103B88000DF057F931468346DEE700BF840F002069
:103B9800A36701002DE9F04F3B4C8BB00023804612
:103BA8000CF0CBFF8DF816308DF817302368039092
:103BB8000D463BB935484FF0FF324FF0FF330CF05C
:103BC80045FF20600DF1170305F12A0A05F1200BC6
:103BD80000935A460DF11603514640460DF026FB58
:103BE8009DF81730009306AA9DF8163029464046DE
:103BF8000DF04DFB061E42DB254FAB683B604FF0D6
:103C080000093B6833B928460EF077FD48460BB0EB
:103C1800BDE8F08F20680CF014FF20689DF816109E
:103C28000C300CF038FF06B32168012206A800F01A
:103C38008FF9386020689DF817100C300CF02BFFB6
:103C48009DF816300093236803985A46514600F0B1
:103C5800B5F8B0B1226829464046FFF735FF00287D
:103C6800D5D123681B8A9944CBE73B6820681A8A18
:103C7800D9680C300CF015FF3B685868D9E7304616
:103C8800C5E76FF01500C2E7A41F0020341100201B
:103C9800A01F00202DE9F74305460CF04EFF04460F
:103CA800002D00F084802E6806B1103606F1020956
:103CB8000122114604F15C0010F084FF012200216A
:103CC80004F1440010F07EFF04210DEB0100FFF722
:103CD800ADFE019B84F841304FF6FF77012384F84D
:103CE8004030678028460CF032FF020748BF94F83E
:103CF8004030278048BF43F00403A780A78704F11A
:103D0800050806F1090748BF84F8403001364246E5
:103D18003B4613F8011902F8011F9E42F9D140F6FB
:103D28000103E381D9F800302361D9F804306361D5
:103D38000822012304F1100128460DF028FF284627
:103D48000CF0FBFE012211461C3010F03BFF17F867
:103D5800013908F8013FBE42F9D128460CF0F2FEBD
:103D68008668BEB173689847430713D5A31D0193AE
:103D780028460CF0E7FE366901AB00220121B04766
:103D880040B10C48036813F0060F03D00A4A022119
:103D98000CF031FD28460CF0D5FE836823B15B6931
:103DA8000021984700B9E08703B0BDE8F0832E46AC
:103DB8007CE700BF840F0020EA6701002DE9F04787
:103DC8001C468AB005468946924600210E2206A85E
:103DD8009DF8487011F044FAD4F80C80CDF80C80A6
:103DE80005F15C064FF0FF324FF0FF3330460AF022
:103DF8006FFC95F8421003A8C9090DF069F803781B
:103E0800012262F30203037095F841309A1885F88D
:103E1800412083702B88ADF82230ADF826309AF80F
:103E28000130022B044610D1BAF802305BBA9AB2BC
:103E3800ADF82430AB8893421BD0002430460AF0FA
:103E48000DFC20460AB0BDE8F087082BF5D104AA7E
:103E58000AF1090311460AF1010A13F8010902F8E7
:103E6800010B9A45F9D10822A81D11F001FA002882
:103E7800E3D199F8013062789BB9022363F3830296
:103E88002378627043F0400323704FF6FF73ADF858
:103E980018300223ADF8203023786FF345132370D0
:103EA8001FE0022B18D163F383022378B9F80210BC
:103EB800627043F0400323704FF6FF739942E4D0D9
:103EC80099F80120022A32D1B9F80230ADF8202041
:103ED8005BBAADF8183004E0082B20D06FF38302EA
:103EE8006270BDF82430002B63780CBF03220222D5
:103EF80062F38713637006AA039B214628460CF0D9
:103F0800F9FFA0EB0803BB421BD00F480268520719
:103F180093D00E4A009701210CF080FC8DE723789E
:103F280042F00C0243F0400362702370C8E7D9F8EE
:103F38000200D9F8061006AB03C30823ADF82030F9
:103F4800CFE701247AE700BF940F00201D68010025
:103F58002DE9F84F90F80D90B0F808B00D7CDFF817
:103F6800F4A004460E46174601F10C08B9F1000FFB
:103F78003ED1BAF80030042101334046AAF8003097
:103F88000CF089FDF368C0225A55F368585DCBF3ED
:103F98000222591902435A5581F801B0F168BAF85A
:103FA8000020AB1CD8B251FA83F34FEA122C01F867
:103FB80000C05A70B9F1000F04D00435F368EDB2AF
:103FC80003F80590338A758AED1A638905F0F805B8
:103FD8002B446381637B1BB98FB1237BEB1ADDB262
:103FE800206805B170B96389DB086373BDE8F88F91
:103FF800052140460CF04FFDF368E022C4E7013587
:10400800EDB2EDE76168C368078A308ACB1AFF1AF8
:10401800FFB2F368AF4228BF2F463A46184411F062
:10402800F7F8394640460CF036FDD4E90002C1687D
:10403800038A511A5B1ADBB2BB4207D1436823607B
:104048000BB1DB686360EF1BFDB2C9E73A446260FD
:10405800F9E700BF6C2600202DE9F04F044693B025
:1040680008B187684FB9A048036813F0060F19D044
:104078009E4A02210CF0BFFB14E0FA68137803F0A3
:10408800F801BF2940F24E81C0290DD1398A032990
:104098000FD8954803685B0704D03B8A944A0121EE
:1040A8000CF0B2FB0220FCE0E02902D1398A042995
:1040B800EEE792F801908F4D1B0203F4F8530026A7
:1040C80049EA03085388A66095F83810AA8E5BBAA7
:1040D800C1461FFA83FA71B1424502D1EB8E5345AE
:1040E8001AD0814803685E0703D0834A01210CF087
:1040F80082FBA760D6E77F488049EB8601262C63C0
:10410800A5F8348085F8386010F007FE79484FF438
:10411800203200230AF0AEFCFB68286B1B7803F002
:10412800F803C02B3AD183687B6087602B6B996852
:104138004FF0000B0F46002F34D1CA680192101DB2
:10414800C8601846009303F0EDFC009B019A9B6839
:10415800DA606FF000439842AB8E18BF00EB0B0794
:10416800BB4240F0D980002E29D12B6B9B68A360FD
:104178002B6B9E6000235F4F1E46A98EEA8E0BB301
:10418800A668F3681B7803F0F803C02B2BD05648B9
:1041980003685D0786D05A4A01216BE739460EF05D
:1041A80063FBC3E7FA68127802F0F802C02A3A8A79
:1041B8007F680CBF04200520121A9344BBE7002334
:1041C8002B63D7E78945DBD15245D9D1286B08B194
:1041D8000EF093FA3846C5E90C6685F8386010F099
:1041E800A8FD0123C9E7716819B330460DF083F8BB
:1041F800054608460DF07FF88542D1F80490074639
:1042080011D8A5684FF0000A65B1B5420AD0284612
:104218000DF071F8874209D2BAF1000F01D0CAF83F
:1042280004104D6031460E464946DDE7AA466D68E2
:10423800EAE7A56855B9204603F0A8F9C0B92A48A5
:1042480003685C073FF42EAF2E4AA5E7E8682A8A80
:10425800037803F0F803C02B0CBF04260526921B35
:10426800811910F0E3FF2B8A9B1B2B826D68E1E715
:1042780020460EF0F3FA282608AB02A9204602933E
:10428800039602F079FD054670B917480368590787
:1042980003D01D4A01210CF0AEFA20460EF0DEFADA
:1042A800012013B0BDE8F08FA8F1280898FA98F813
:1042B80084F8366002A9A0F8048020460EF0A6FC17
:1042C800AB79112BE9D104AB069306A90823204644
:1042D800079302F051FDC8B1A0F8048006A9204652
:1042E8000EF094FCD9E700BF8C0F00206D68010028
:1042F8008B68010098160020B568010013130100AF
:104308002F690100556901007C6901000B480368A9
:104318005A07C2D00A4ABDE716B920460EF0EDF991
:104328000020BEE703F032F90028B9D1034803683A
:104338005B073FF4B7AE034A2EE700BF8C0F00209F
:1043480096690100AF69010073B504460CF0EEFFF1
:1043580085680E46BDB16B689847430713D520465C
:10436800ADF804602D690CF0E1FF01AB02220021D9
:10437800A84740B10548036813F0060F03D0044A64
:1043880002210CF0E6FF02B070BD00BF980F0020BC
:10439800EA69010073B504460CF0C8FF85680E464B
:1043A800BDB16B689847430713D52046ADF8046044
:1043B8002D690CF0BBFF01AB02220121A84740B1D7
:1043C8000548036813F0060F03D0044A02210CF0D5
:1043D800C0FF02B070BD00BF980F0020096A01003D
:1043E80073B504460CF0A2FF85680E46BDB16B6834
:1043F8009847430713D52046ADF804602D690CF0A3
:1044080095FF01AB04220021A84740B10548036885
:1044180013F0060F03D0044A02210CF09AFF02B0F1
:1044280070BD00BF980F0020276A010073B50446CD
:104438000CF07CFF85680E46BDB16B689847430752
:1044480013D520460122ADF804602D690CF06EFFEB
:1044580001AB1146A84740B10548036813F0060FA1
:1044680003D0044A02210CF074FF02B070BD00BFF3
:10447800980F0020516A01002DE9F04106460CF022
:1044880050FF904682690C460546002A42D0CB6808
:104498005B7800F11C07C3F3C013937538464FF0DF
:1044A800FF324FF0FF330CF060FFA268AB6912884F
:1044B8005A81AB6983F8158023685B7803F0C003E1
:1044C800802BAB691DD102221A75A268AB6952888C
:1044D8009A81217CE0680CF07FFD238AAA691B1A67
:1044E800D361E368AA690344936100230A481A4622
:1044F800314602F081FA38460CF029FF0120BDE868
:10450800F08108221A75A168A86902310C300CF0F4
:1045180022FFDEE70220F2E7010054D12DE9F04145
:1045280007460CF0FEFECB681C78022C0E460546AA
:1045380040D1DA78002A3AD109684A7802F0CC02E8
:10454800CC2A34D10A7802F06002602A2FD172682E
:104558001188028891422AD1B3F801204FF6FF73DF
:104568009A4224D000F15C0840464FF0FF324FF0E9
:10457800FF330CF0FAFE28460CF0DDFE18B1404679
:104588000CF0E5FE13E0F3682946B3F8012038463D
:104598000CF050FFB26813686B635368AB63404616
:1045A8000CF0D5FE05F11C000CF0D1FE01242046CC
:1045B800BDE8F081032C2ED15B78012B30D100F1BE
:1045C8005C0840464FF0FF324FF0FF330CF0CDFE51
:1045D80028460CF0B0FEE0B13268537803F0C0030F
:1045E800C02B16D1137803F06003602B11D17368C8
:1045F8001A882B889A420CD1B168082205F1340038
:1046080010F036FE044620B9294638460CF0F2FE72
:10461800B5E70224B3E70648036813F0060F01D193
:104628000224C4E7034A234602210CF0EDF8F7E719
:10463800980F0020766A01002DE9F341044658B32B
:10464800066806B1B66801AA002120460CF012FFE0
:1046580020BBBDF8045025B1B5F5007F0CBF32254D
:104668000C2501AA0021204676880CF003FFBDF82E
:104678000430102B05F108055CD011D8012B4FF040
:10468800000312D0002E49F640400CBF01464FF4FB
:104698007A51A5FB010116E00646D4E70025E0E7BC
:1046A800202B71D044F62061F3E70A2E3FD84CF254
:1046B800503046F2A812002E0CBF01461146A5FB49
:1046C800010105FB03114FF47A720023FCF706FB86
:1046D8000526074603254FF0010804210DEB0100CC
:1046E800FFF7A4F9019A08FA05F3013B1340DBB27E
:1046F80007FB03F009F09AFB002C4BD02368002B32
:1047080048D018688368002B41D09B68984758B1F7
:1047180010F1100F3BD1042D28BF0425013E0135AF
:1047280016F0FF06EDB2D8D102B0BDE8F0814FF423
:104738007A51C4E701AA022120460CF09BFE00BB77
:10474800019B082B284618D8013B072B15D8DFE812
:1047580003F0040C141014141414FCF7F5F90F49A1
:10476800FBF7B6FCFCF76CFBADE7FCF7EDF90C4981
:10477800F6E7FCF7E9F90B49F2E7FCF7E5F90A492E
:10478800EEE7002001469EE74FF47A5181E76FF08B
:104798000400C9E700239B68FFDE00BFC3657845B6
:1047A800C365784452687E44E14A364408B50548F2
:1047B800036813F0060F03D0034A02210CF01BF81C
:1047C800002008BD9C0F0020CF6A010038B54FF0CB
:1047D800FF324FF0FF3305461D480DF0C2F81D4B60
:1047E8001B687BB11A684FF0FF344FF47A705BB9DD
:1047F800631C1BD1184810F09CFABDE838401448D7
:104808000DF0B8B81A46EEE7D9691B8C491B00FBB6
:104818000313002B09DD9C4228BF1C461AB11168FE
:1048280013460A46E3E71146FAE700244FF4004529
:1048380040F2E73000214FF47A720023E4FB0501CF
:10484800FCF79CFA02460B4603480AF013F9D4E732
:104858003010002020210020981700202DE9F04773
:104868000DF044F8244E80464FF0FF3223484FF0B5
:10487800FF330DF076F834682CB1002527684FF423
:104888007A7AA9463CB94046FFF7A0FFBDE8F04751
:104898001A480DF06FB8E369218CA3EB08030AFBF3
:1048A8000133002B224619DCA388022B06D1A1690B
:1048B8001348102304F1080202F09EF823689DB9FA
:1048C80072683360944200D1736094F82230C4F85F
:1048D800009069F3000384F822302A4657B13B68F8
:1048E8003C4615461F46CDE72B6073689C4208BFBF
:1048F8007560EAE73B46F3E72021002030100020EE
:104908000A0060E0002808DD431E054800EB83101C
:10491800044B984228BF002070470020704700BF12
:1049280060110020A01100202DE9F3410CF0DEFFFA
:104938002F4E0023CDE9003304464FF0FF332D48B6
:104948004FF0FF320DF00DF8336873B353F82C298C
:1049580002B12C3AC4F1640401E013460A465D6BC7
:104968002544002D10DC706803F12C018142DB6ABC
:1049780008BF7360684633600CF01AFFAAB1D16AA9
:104988000029EAD02C39E8E74FF4004440F2E73038
:1049980000214FF47A720023C5FB0401FCF7EEF9FD
:1049A80002460B4614480AF065F812480CF0E2FF7C
:1049B800009CCCB1DFF844802C3C012794F83C00E3
:1049C80084F82970FFF79EFF261D0146054610232F
:1049D8003246404602F010F83146284603F034FDCE
:1049E800E46A0CB12C3CE9E702B0BDE8F08100BFF5
:1049F8000821002030100020081700200D0060E07A
:104A0800054B064A934201D1FFF7D0BE044A10680D
:104A1800002808BF1846704760110020A011002028
:104A28004C210020F8B54FF0FF33054617461048D3
:104A38004FF0FF320E460CF094FF0E4B1B680BB183
:104A48001C6823B9BDE8F84009480CF093BF5A68C0
:104A5800AA4200D022B99B683A4631462846984770
:104A68001CB1226823461446EBE72246FAE700BF4A
:104A780030100020B01F002038B504460D460CF059
:104A880072FF072120460CF0FBFE20B3636843B198
:104A980005B12B60002504F114000CF06BFF2846CB
:104AA80038BD4FF0FF324FF0FF330C480CF059FF80
:104AB8000B4BD3F83C2142B96360C3F83C4105B1C4
:104AC8002B6006480CF056FFE4E704480CF052FF50
:104AD8006FF00205DFE76FF08505DCE73010002096
:104AE800C01F002070B504460CF03DFF0B21204686
:104AF8000CF0C6FE034604F114003BBB65682DB3F9
:104B08000CF038FF20460EF07EFE18BB0CF0EEFECF
:104B18004FF0FF334FF0FF32C5F834010E480CF068
:104B280020FF05F598710D480CF042FE0A480CF07C
:104B380021FF0B4810F04BFA08430BD1BDE8704039
:104B480008484FF40042002309F094BFBDE87040C4
:104B58000CF010BF70BD00BF3010002000210020F5
:104B6800E8160020D8160020F7B50CF0BFFE374E27
:104B78000023CDE900334FF0FF3205464FF0FF33F5
:104B880033480CF0EEFE3268B2B3A2F5987312689F
:104B98000AB1A2F59872C5F57A7701E013460A467C
:104BA800D3F834413919002947DC706803F5987146
:104BB8008142D3F8303108BF7360684633600CF027
:104BC800F7FDCAB1D2F830110029E7D0A1F59871E4
:104BD800E4E704F57A744FF4004540F2E730002129
:104BE8004FF47A720023E4FB0501FCF7C7F802468C
:104BF8000B46184809F03EFF15480CF0BBFE009C18
:104C080014B3154DA4F5987494F83831134801334A
:104C1800DBB284F83831A84205D3D4F830419CB1CE
:104C2800A4F59874F0E74268A24201D04030F2E758
:104C3800022BF2D8FFF756FFEFE7641B14F57A7FD3
:104C4800C7D100221346D4E703B0F0BD00210020ED
:104C580030100020D8160020A0110020601100207C
:104C680038B504460CF07FFE656875B10A484FF008
:104C7800FF324FF0FF330CF074FE084805F59871C9
:104C88000CF0A0FD04480CF075FE04F11400BDE81A
:104C980038400CF06FBE00BF30100020002100200B
:104CA8002DE9F8431E4DDFF87C9006460F464D452A
:104CB80001D300242FE028460CF055FE6C6805F15E
:104CC800140824B940460CF055FE4035EFE794F837
:104CD8003D309A0708D52388022B05D18022211D53
:104CE80030460CF0D9FDC8B994F87D309B07E9D55A
:104CF800B4F84030022BE5D1802204F1440130465B
:104D08000CF0CAFD0028DDD0402307B13D604046C5
:104D18001C440CF02FFE2046BDE8F8830023F4E77E
:104D280060110020A0110020F8B5134E134F4FF06A
:104D3800FF3204464FF0FF3330460D460CF011FEAB
:104D4800012384F829301834214638460CF03AFDFE
:104D580038460CF02DFD0CF0C9FD294602462046C8
:104D68000DF044F900230648002209F083FE30467E
:104D7800BDE8F8400CF0FEBD3010002018210020DE
:104D8800681700202DE9F74F054601910CF0EBFD5F
:104D98006F6867B307F184094FF000084FF01C0AE9
:104DA8000AFB087B9BF89860F30717D501994846DA
:104DB8000CF094FD044688B16FF300060D488BF89B
:104DC800986010234A46294601F016FE05F11400A2
:104DD8000CF0D0FD204603B0BDE8F08F08F10108C3
:104DE800B8F1030F09F11C09DAD10024EEE73C46BB
:104DF800ECE700BF040060E02DE9F74F224CDFF834
:104E08008CA080460D464FF01C0B544507D245B187
:104E18002B6833B1A34204D040345445F8D300245E
:104E280028E020460CF09FFD676804F1140927B9B3
:104E380048460CF09FFD4034E7E707F1840100265F
:104E48000BFB067393F89830DB0717D531F8043C51
:104E5800022B13D18022404601910CF01DFD0199CF
:104E680060B105B12C601C2404FB067448468034EC
:104E78000CF080FD204603B0BDE8F08F0136032E0C
:104E880001F11C01DCD1D3E760110020A011002042
:104E9800F0B585B000AF044678600E460CF063FDAF
:104EA80007F10C012046FFF7E7FD002822DB3378E5
:104EB800FF2B1FD1391D3046FFF79EFF18B32B4C2F
:104EC800236813F0060F15D03146022001F0BEFC0E
:104ED8006D4688B06A46264BC2E905304FF4007328
:104EE8009383244B42F8103F4FF4E45120460CF0D2
:104EF80035FDAD460025786814300CF03BFD28469A
:104F08001437BD46F0BDFD6895F8983013F00104DC
:104F180008D095F8B430DA0726D595F8D030DB07F5
:104F2800E8D402241C235C432B19314693F89820BB
:104F380042F0010283F898200222A3F8802004F1AD
:104F480084022A44134606F1100051F8046B43F812
:104F5800046B8142F9D110237968074801F04CFDB0
:104F680004F180031D44C6E70124DBE79C0F002001
:104F7800EB6A010003000001030060E02DE9F0473F
:104F8800074686B00D46914698460CF0ECFC01A900
:104F98003846FFF771FD002878DB7C6844B394F845
:104FA800F9309B0709D504F1E40128460CF096FC7A
:104FB80018B194F8F8304B4518D094F821319E0771
:104FC80016D504F5867128460CF088FC80B194F853
:104FD80020314B450CD12823D4331C4407F114004D
:104FE8000CF0C8FC204606B0BDE8F0870023F3E7C4
:104FF800019C002CF2D094F8F9209007C2F34003EA
:1050080004D594F82131990740D4012328265E431A
:1050180006F1D40A264405F1100E96F8F92086F810
:10502800F89042F0020286F8F920C6F8F47002AE51
:105038002A46A244354610685168B446ACE80300D5
:10504800083272456646F6D10AF110060DF1180CC1
:105058002A4603CA624530607160154606F10806A3
:10506800F6D1282202FB034308F10102D2F100081D
:1050780048EB020893F8F920054868F3000283F822
:10508800F92039460CF03FFC5446A7E70024A5E771
:10509800050060E02DE9F8431E4CDFF87C900646D9
:1050A8000F464C4507D246B1336833B1A34204D00A
:1050B80040344C45F8D3002024E020460CF053FC43
:1050C800656804F11408FDB195F8F9309A0707D519
:1050D80095F8F820394605F1E4000CF0DDFB58B9E5
:1050E80095F821319B070FD595F82021394605F50C
:1050F80086700CF0D1FB38B106B1346040460CF034
:1051080039FC0120BDE8F88340460CF033FC4034FC
:10511800C7E700BF60110020A011002038B54B1C64
:1051280004460D461ED04FF0FF334FF0FF320E48B5
:105138000CF017FC21460D480CF044FB0B480CF012
:1051480037FB0CF0D3FB2946024620460CF04EFFF5
:1051580000230748002209F08DFCBDE838400248CA
:105168000CF008BC38BD00BF301000201021002012
:105178003817002010B590F825309B07044614D541
:105188004FF0FF324FF0FF3308480CF0EAFB21469E
:1051980007480CF017FB0022204611460CF026FFAA
:1051A800BDE8104001480CF0E5BB10BD30100020F0
:1051B8001021002070B5104C4FF0FF324FF0FF3334
:1051C80006460E480D460CF0CCFB94F82230A18818
:1051D800A26913F0010304F1080007D0022905D1E0
:1051E800964203D129460CF079FB00B90024034804
:1051F8000CF0C0FB204670BD282100203010002094
:1052080038B5104C4FF0FF324FF0FF3305460E48CB
:105218000CF0A7FB94F82230A088A169C3F34002E0
:1052280013F0010305D052B1022802D115B18D4205
:1052380000D0002404480CF09DFB204638BD1446DD
:10524800F8E700BF2821002030100020F8B5234ED1
:105258004FF0FF330546174621484FF0FF320C4602
:105268000CF07FFB96F82230DA0734D40222B561BD
:10527800B28043F0010337B323F00603134386F8E3
:10528800223037840CF032FB3146F06115480CF0BF
:105298008FFAF069FFF79AFA134A04F110062068AA
:1052A8006168134603C30834B4421A46F7D10E4A5C
:1052B8000E480A4C1023294601F09EFB08480CF0C2
:1052C80059FB2046F8BD23F0060343F00403378456
:1052D80086F82230E0E70024F0E700BF282100200C
:1052E800301000202021002030210020090060E03B
:1052F80010B504464FF0FF3315484FF0FF320CF05D
:1053080030FB94F8223013F001031ED0A388022B3F
:1053180006D1A1690F48102304F1080201F06CFBC3
:105328000D4821460CF04EFA18B10CF0DFFAFFF7E1
:105338004DFA94F822306FF3000384F822300124E8
:1053480003480CF017FB204610BD1C46F8E700BFC9
:10535800301000200A0060E0202100202DE9F043F1
:1053680085B00023044617468DF80F300D460029F6
:1053780058D00A8848F2FE039A4233D00B78FF2BA4
:1053880004D14B7803F00F03022B2BD0294620467B
:105398000CF0CAFC60B190F82480FCB100970DF1C4
:1053A8000F034246294620460CF041FB044610E014
:1053B8004FF08008F1E7304600970DF10F034246A1
:1053C80029460CF034FB4036002818BF04464E45E9
:1053D800F1D3CCB1204605B0BDE8F083124EDFF81A
:1053E8004C90F4E724B1012120460CF053FCDDE792
:1053F800FFF706FB01210CF04DFC04460028E9D11B
:10540800094D0A4EB54204D305B0BDE8F04301F09A
:1054180033BA012128460CF03DFC04460028D9D1B6
:105428004035EFE70C46D5E760110020A0110020B9
:105438002DE9F04186B01E460023019301AB0546D5
:10544800884617460CF098FA044620B96FF0150004
:1054580006B0BDE8F081BFF35B8F6369BFF35B8F74
:1054680004F11402002BF1D0BFF35B8F581E52E8F1
:10547800001F994204D142E8000CBCF1000FF6D19C
:10548800BFF35B8FE7D1012B03DD002EE0D0346042
:10549800DEE794F83D30B8F1020F6FF3410384F86A
:1054A8003D304ED1002F4CD02846019F0CF05BFABE
:1054B8006B68002B41D094F83D30DB0714D4224EA2
:1054C80022484FF0FF334FF0FF320CF04AFA04F154
:1054D800180130460CF076F9336813B91C480FF000
:1054E80028FC1A480CF046FA0B2128460CF0C8F99B
:1054F800261D98B915484FF0FF324FF0FF330CF0D6
:1055080030FA144804F12C010CF05CF918B131465A
:10551800284602F099FF0D480CF02CFA012F06D10D
:10552800304602A90CF07AF92846FFF72BFC0A4806
:1055380010233246294601F05FFA05F114000CF0F9
:1055480019FA002084E700BF18210020301000203D
:105558006817002008210020020060E0F0B583B041
:1055680000AF0C4678600CF0FEF9391D2046FFF7B5
:1055780097FB7D6808BB164E33685B0716D021463B
:10558800022001F063F96C468AB06A46114BD56176
:10559800C2E905304FF4007313840F4B42F8103FF3
:1055A8004FF4115130460CF0D9F9A54678681430FB
:1055B8000CF0E0F90C37BD46F0BD021D294607483E
:1055C800102301F019FA214628460CF080FCEDE77B
:1055D8009C0F0020176B0100040000010E0060E022
:1055E8002DE9F04106460F4690460CF0BCF9746868
:1055F800002C42D094F8F9309A0709D5394604F1BD
:10560800E4000CF06BF918B194F8F830434531D048
:1056180094F82131C3F340059B0724D5394604F596
:1056280086700CF05BF90546E8B194F820314345E3
:1056380023D128200125D4302044FFF79BFD2823BF
:1056480003FB05453A4695F8F9306FF3410385F8B1
:10565800F9302146434630460CF05DFC0848314697
:105668000CF051F9012506F114000CF083F92846D5
:10567800BDE8F08100200546DDE70025F3E700BF1F
:10568800060060E02DE9FF410CF030F90023CDE978
:10569800023307464FF0FF3332484FF0FF320CF029
:1056A80060F9314B1C68B4B12568DFF8BC804FF055
:1056B800FF36BCB1394620460CF0D1FC68B921460A
:1056C80040460CF07FF802A80CF072F835B32B684E
:1056D8002C461D46EDE72546E7E7864228BF0646E5
:1056E800AC42F3D1731C10D04FF4004440F2E730C1
:1056F80000214FF47A720023E6FB0401FBF73EFB1E
:1057080002460B46194809F0B5F91648184D0CF031
:1057180031F9029C24B904B0BDE8F0812B46D7E7E3
:10572800206A0CF020F994F82530206A6FF34103C1
:1057380084F8253001A9FFF79FF900280FDB94F8BA
:1057480024300199206A04F110020CF0E4FB284689
:10575800216A0CF0D8F8206A14300CF00BF9246890
:10576800D8E700BF30100020102100203817002093
:10577800060060E02DE9F84F0CF0B8F84FF0FF3361
:1057880080464FF0FF322D480CF0EBF82C4B1C688C
:10579800002C4DD054F8185905B1183DDFF8A0A0D9
:1057A800DFF8A0904FF0FF3701E02C461D4604F1CA
:1057B800180B414658460CF052FC064600BB5946A9
:1057C80050460BF0FFFF5846324631460CF00EFCAF
:1057D8001D4848450CD24168A14204D001F140035C
:1057E8009C420BD1012601EB861104310CF06FFBB2
:1057F8005DB1AB69002BD8D0183BD6E74030E8E75D
:10580800874228BF0746A542F2D17B1C10D04FF42F
:10581800004440F2E73000214FF47A720023E7FB9E
:105828000401FBF7ABFA02460B46084809F022F9D7
:10583800BDE8F84F01480CF09DB800BF30100020BB
:1058480018210020A01100206011002068170020F6
:1058580070B50D4D04464FF0FF330C484FF0FF3242
:105868000E460CF07EF8214628460BF0ABFF2B685D
:1058780023606B682C6003B96C606660BDE870409B
:1058880002480CF077B800BFB81F00203010002085
:10589800F8B54FF0FF33054617460E484FF0FF3274
:1058A8000E460CF05EF80C4B1B680BB11C6823B954
:1058B800BDE8F84007480CF05DB85B683A463146E9
:1058C800284698471CB1226823461446EFE722462B
:1058D800FAE700BF30100020B81F00202DE9F04182
:1058E80084B000AF0023C7E901330446BB810D46ED
:1058F800002944D02F4B1B684BB195F82B20082A60
:1059080001F12C013BD8B81D7A710FF081FC0921F7
:105918002046D5F814800BF0B3FFA0B30D21204624
:105928000BF0AEFF38B94FF0FF324FF0FF3304F100
:1059380028000CF016F820460BF081FF2946436832
:10594800204698470D21064620460BF099FF18B9C6
:1059580004F128000CF00EF8002E02DA28460CF0AC
:10596800CCFEB8F1000F03D0314640460BF071FF72
:105978007B7923B13246391D2046FFF789FF10375E
:10598800BD46BDE8F0810C48036813F0060F0DD042
:105998006E4688B06A46094BC2E90534032342F8CB
:1059A800103F4FF4C4510BF0D9FFB5466FF07206A3
:1059B800D4E700BFB81F00209C0F00203E6B0100F9
:1059C8002DE9F8430C464E6900AF0921054690467B
:1059D80099460BF055FFF8B93748036813F0060FDE
:1059E8000DD0E84688B06A46344BC2E90535032332
:1059F80042F8103F4FF4C4510BF0B0FFC5466FF0AA
:105A080072081EB1414630460BF023FF94F82B3044
:105A1800002B46D102202CE0042128460BF030FF51
:105A28000028D9D1012128460BF02AFF70B994F833
:105A380021305BB9A3690BB95B78FFDE1B68002BCB
:105A4800FAD05A7C082A03F1120115D9DEB1B6F84A
:105A58007630C3F38112032A15D1C3F3C203013B85
:105A6800012B10D8284642464B4621460CF094FAA2
:105A78000020BD46BDE8F88384F8212004F1220007
:105A88000FF0C6FBE2E794F83730C3F30213022B9A
:105A9800E8D120460DF0A7FD022809D16FF00408CF
:105AA800AFE7424604F12A012846FFF7F1FEB1E7C5
:105AB8000028DED1D6E700BF9C0F00203E6B010016
:105AC800064B984206D3064A904203D2C01A801168
