:10000000405C002081570000E76B01006D57000045
:100010006D5700006D5700006D5700000000000094
:100020000000000000000000000000005558000023
:100030006D57000000000000F15700006D570000F0
:10004000DD590000DD590000DD590000DD590000D8
:10005000DD590000DD590000DD590000DD590000C8
:10006000DD590000DD590000DD590000DD590000B8
:10007000DD590000DD590000DD590000DD590000A8
:10008000DD590000DD590000DD590000DD59000098
:10009000DD590000DD590000DD590000DD59000088
:1000A000DD590000DD590000DD590000DD59000078
:1000B000DD590000DD590000DD590000DD59000068
:1000C000DD590000DD590000DD590000DD59000058
:0800D000DD590000DD590000BC
:1000D8004FF0FF0C1CEAD0521EBF1CEAD15392EA23
:1000E8000C0F93EA0C0F6FD01A4480EA010C4002FF
:1000F80018BF5FEA41211ED04FF0006343EA501059
:1001080043EA5111A0FB01310CF00040B1F5000F9A
:100118003EBF490041EAD3715B0040EA010062F149
:100128007F02FD2A1DD8B3F1004F40EBC25008BF33
:1001380020F00100704790F0000F0CF0004C08BF51
:1001480049024CEA502040EA51207F3AC2BFD2F11E
:10015800FF0340EAC250704740F400004FF000032C
:10016800013A5DDC12F1190FDCBF00F00040704766
:10017800C2F10002410021FA02F1C2F1200200FAA4
:1001880002FC5FEA310040F1000053EA4C0308BF6B
:1001980020EADC70704792F0000F00F0004C02BFBC
:1001A800400010F4000F013AF9D040EA0C0093F037
:1001B800000F01F0004C02BF490011F4000F013B91
:1001C800F9D041EA0C018FE70CEAD15392EA0C0FFF
:1001D80018BF93EA0C0F0AD030F0004C18BF31F06A
:1001E800004CD8D180EA010000F00040704790F040
:1001F800000F17BF90F0004F084691F0000F91F0E4
:10020800004F14D092EA0C0F01D142020FD193EAA9
:100218000C0F03D14B0218BF084608D180EA010031
:1002280000F0004040F0FE4040F40000704740F00D
:10023800FE4040F44000704781F0004102E000BFFA
:1002480083F0004330B54FEA41044FEA430594EA8E
:10025800050F08BF90EA020F1FBF54EA000C55EAC9
:10026800020C7FEA645C7FEA655C00F0E2804FEA9A
:100278005454D4EB5555B8BF6D420CDD2C4480EA7C
:10028800020281EA030382EA000083EA010180EAAC
:10029800020281EA0303362D88BF30BD11F0004FFA
:1002A8004FEA01314FF4801C4CEA113102D0404230
:1002B80061EB410113F0004F4FEA03334CEA13336B
:1002C80002D0524263EB430394EA050F00F0A78083
:1002D800A4F10104D5F1200E0DDB02FA0EFC22FA7E
:1002E80005F2801841F1000103FA0EF2801843FA72
:1002F80005F359410EE0A5F120050EF1200E012A63
:1003080003FA0EFC28BF4CF0020C43FA05F3C018A0
:1003180051EBE37101F0004507D54FF0000EDCF119
:10032800000C7EEB00006EEB0101B1F5801F1BD3C2
:10033800B1F5001F0CD349085FEA30004FEA3C0CC6
:1003480004F101044FEA445212F5800F80F09A80BC
:10035800BCF1004F08BF5FEA500C50F1000041EBC0
:10036800045141EA050130BD5FEA4C0C404141EBC4
:100378000101013C28BFB1F5801FE9D291F0000FBF
:1003880004BF01460020B1FA81F308BF2033A3F16E
:100398000B03B3F120020CDA0C3208DD02F1140C65
:1003A800C2F10C0201FA0CF021FA02F10CE002F1A0
:1003B8001402D8BFC2F1200C01FA02F120FA0CFC99
:1003C800DCBF41EA0C019040E41AA2BF01EB0451E2
:1003D800294330BD6FEA04041F3C1CDA0C340EDCE0
:1003E80004F11404C4F1200220FA04F001FA02F323
:1003F80040EA030021FA04F345EA030130BDC4F1E1
:100408000C04C4F1200220FA02F001FA04F340EAD5
:100418000300294630BD21FA04F0294630BD94F086
:10042800000F83F4801306BF81F480110134013D6D
:100438004EE77FEA645C18BF7FEA655C29D094EADE
:10044800050F08BF90EA020F05D054EA000C04BF5C
:100458001946104630BD91EA030F1EBF0021002047
:1004680030BD5FEA545C05D14000494128BF41F0E6
:10047800004130BD14F580043CBF01F5801130BD4A
:1004880001F0004545F0FE4141F470014FF00000D5
:1004980030BD7FEA645C1ABF194610467FEA655C86
:1004A8001CBF0B46024650EA013406BF52EA033528
:1004B80091EA030F41F4002130BD00BF90F0000F16
:1004C80004BF0021704730B54FF4806404F1320452
:1004D8004FF000054FF0000150E700BF90F0000F0B
:1004E80004BF0021704730B54FF4806404F1320432
:1004F80010F0004548BF40424FF000013EE700BF02
:1005080042004FEAE2014FEA31014FEA02701FBF91
:1005180012F07F4393F07F4F81F06051704732F0C3
:100528007F4208BF704793F07F4F04BF41F400211A
:10053800704730B54FF4607401F0004521F0004178
:100548001CE700BF50EA010208BF704730B54FF002
:1005580000050AE050EA010208BF704730B511F003
:10056800004502D5404261EB41014FF4806404F13B
:1005780032045FEA915C3FF4D8AE4FF003025FEAC1
:10058800DC0C18BF03325FEADC0C18BF033202EB45
:10059800DC02C2F1200300FA03FC20FA02F001FA9F
:1005A80003FE40EA0E0021FA02F11444BDE600BF42
:1005B80070B54FF0FF0C4CF4E06C1CEA11541DBFF1
:1005C8001CEA135594EA0C0F95EA0C0F00F0DEF8BC
:1005D8002C4481EA030621EA4C5123EA4C5350EAA1
:1005E800013518BF52EA033541F4801143F48013F2
:1005F80038D0A0FB02CE4FF00005E1FB02E506F083
:100608000042E0FB03E54FF00006E1FB03569CF0D7
:10061800000F18BF4EF0010EA4F1FF04B6F5007FDD
:1006280064F5407404D25FEA4E0E6D4146EB06064F
:1006380042EAC62141EA55514FEAC52040EA5E50D8
:100648004FEACE2EB4F1FD0C88BFBCF5E06F1ED882
:10065800BEF1004F08BF5FEA500E50F1000041EBB9
:10066800045170BD06F0004646EA010140EA020066
:1006780081EA0301B4EB5C04C2BFD4EB0C0541EA88
:10068800045170BD41F480114FF0000E013C00F39D
:10069800AB8014F1360FDEBF002001F0004170BDC1
:1006A800C4F10004203C35DA0C341BDC04F11404DA
:1006B800C4F1200500FA05F320FA04F001FA05F266
:1006C80040EA020001F0004221F0004110EBD37033
:1006D80021FA04F642EB06015EEA430E08BF20EA5F
:1006E800D37070BDC4F10C04C4F1200500FA04F302
:1006F80020FA05F001FA04F240EA020001F0004194
:1007080010EBD37041F100015EEA430E08BF20EA06
:10071800D37070BDC4F1200500FA05F24EEA020E4E
:1007280020FA04F301FA05F243EA020321FA04F07D
:1007380001F0004121FA04F220EA020000EBD37034
:100748005EEA430E08BF20EAD37070BD94F0000F34
:100758000FD101F00046400041EB010111F4801F68
:1007680008BF013CF7D041EA060195F0000F18BF19
:10077800704703F00046520043EB030313F4801F55
:1007880008BF013DF7D043EA0603704794EA0C0F0F
:100798000CEA135518BF95EA0C0F0CD050EA410625
:1007A80018BF52EA4306D1D181EA030101F00041A2
:1007B8004FF0000070BD50EA410606BF10461946CA
:1007C80052EA430619D094EA0C0F02D150EA0136D6
:1007D80013D195EA0C0F05D152EA03361CBF104617
:1007E80019460AD181EA030101F0004141F0FE41B6
:1007F80041F470014FF0000070BD41F0FE4141F43A
:10080800780170BD70B54FF0FF0C4CF4E06C1CEA39
:1008180011541DBF1CEA135594EA0C0F95EA0C0FEE
:1008280000F0A7F8A4EB050481EA030E52EA0335A9
:100838004FEA013100F088804FEA03334FF08055CA
:1008480045EA131343EA12634FEA022245EA1115F7
:1008580045EA10654FEA00260EF000419D4208BFA8
:10086800964244F1FD0404F5407402D25B084FEA55
:100878003202B61A65EB03055B084FEA32024FF401
:1008880080104FF4002CB6EB020E75EB030E22BF5E
:10089800B61A754640EA0C005B084FEA3202B6EB1E
:1008A800020E75EB030E22BFB61A754640EA5C00CD
:1008B8005B084FEA3202B6EB020E75EB030E22BF5D
:1008C800B61A754640EA9C005B084FEA3202B6EB5E
:1008D800020E75EB030E22BFB61A754640EADC001D
:1008E80055EA060E18D04FEA051545EA16754FEA7F
:1008F80006164FEAC30343EA52734FEAC2025FEA9D
:100908001C1CC0D111F4801F0BD141EA00014FF02B
:1009180000004FF0004CB6E711F4801F04BF0143FC
:100928000020B4F1FD0C88BFBCF5E06F3FF6AFAE18
:10093800B5EB030C04BFB6EB020C5FEA500C50F1A8
:10094800000041EB045170BD0EF0004E4EEA11312B
:1009580014EB5C04C2BFD4EB0C0541EA045170BD32
:1009680041F480114FF0000E013C90E645EA060E76
:100978008DE60CEA135594EA0C0F08BF95EA0C0FA4
:100988003FF43BAF94EA0C0F0AD150EA01347FF4EC
:1009980034AF95EA0C0F7FF425AF104619462CE7C3
:1009A80095EA0C0F06D152EA03353FF4FDAE104626
:1009B800194622E750EA410618BF52EA43067FF477
:1009C800C5AE50EA41047FF40DAF52EA43057FF407
:1009D800EBAE12E780F0004002E000BF81F000417A
:1009E80042001FBF5FEA410392EA030F7FEA226CCD
:1009F8007FEA236C6AD04FEA1262D2EB1363C1BF5D
:100A0800D218414048404140B8BF5B42192B88BFCB
:100A1800704710F0004F40F4000020F07F4018BFEE
:100A2800404211F0004F41F4000121F07F4118BF0E
:100A3800494292EA030F3FD0A2F1010241FA03FCB6
:100A480010EB0C00C3F1200301FA03F100F000439E
:100A580002D5494260EB4000B0F5000F13D3B0F166
:100A6800807F06D340084FEA310102F10102FE2AD5
:100A780051D2B1F1004F40EBC25008BF20F0010045
:100A880040EA03007047490040EB0000013A28BFE4
:100A9800B0F5000FEDD2B0FA80FCACF1080CB2EB67
:100AA8000C0200FA0CF0AABF00EBC25052421843E5
:100AB800BCBFD0401843704792F0000F81F400018A
:100AC80006BF80F400000132013BB5E74FEA41035D
:100AD8007FEA226C18BF7FEA236C21D092EA030FC9
:100AE80004D092F0000F08BF0846704790EA010F43
:100AF8001CBF0020704712F07F4F04D1400028BF70
:100B080040F00040704712F100723CBF00F5000051
:100B1800704700F0004343F0FE4040F40000704787
:100B28007FEA226216BF08467FEA23630146420233
:100B380006BF5FEA412390EA010F40F48000704746
:100B48004FF0000304E000BF10F0004348BF4042EC
:100B58005FEA000C08BF704743F0964301464FF028
:100B680000001CE050EA010208BF70474FF0000384
:100B78000AE000BF50EA010208BF704711F00043C5
:100B880002D5404261EB41015FEA010C02BF844695
:100B98000146002043F0B64308BFA3F18053A3F5F4
:100BA8000003BCFA8CF2083AA3EBC25310DB01FA3B
:100BB80002FC634400FA02FCC2F12002BCF1004FBF
:100BC80020FA02F243EB020008BF20F00100704750
:100BD80002F1200201FA02FCC2F1200250EA4C00A4
:100BE80021FA02F243EB020008BF20EADC707047EA
:100BF8004FF0FF3C06E000BF4FF0010C02E000BFE1
:100C08004FF0010C4DF804CD4FEA40024FEA410382
:100C18007FEA226C18BF7FEA236C11D001B052EA38
:100C2800530C18BF90EA010F58BFB2EB030088BFFE
:100C3800C81738BF6FEAE17018BF40F0010070476D
:100C48007FEA226C02D15FEA402C05D17FEA236C4F
:100C5800E4D15FEA412CE1D05DF8040B704700BF96
:100C6800844608466146FFE70FB5FFF7C9FF00282D
:100C780048BF10F1000F0FBD4DF808EDFFF7F4FF66
:100C88000CBF012000205DF808FB00BF4DF808EDFF
:100C9800FFF7EAFF34BF012000205DF808FB00BF22
:100CA8004DF808EDFFF7E0FF94BF012000205DF844
:100CB80008FB00BF4DF808EDFFF7D2FF94BF0120F5
:100CC80000205DF808FB00BF4DF808EDFFF7C8FFEE
:100CD80034BF012000205DF808FB00BF7BB972B962
:100CE8000029BEBF00204FF0004106E008BF0028E1
:100CF8001CBF6FF000414FF0FF3000F077B8ADF146
:100D0800080C6DE904CE002909DB002B1ADB00F082
:100D1800BCF8DDF804E0DDE9022304B07047404286
:100D280061EB4101002B1BDB00F0AFF8DDF804E0BC
:100D3800DDE9022304B0404261EB4101524263EB1A
:100D480043037047524263EB430300F09EF8DDF81B
:100D580004E0DDE9022304B0404261EB4101704741
:100D6800524263EB430300F090F8DDF804E0DDE95C
:100D7800022304B0524263EB4303704753B94AB9A4
:100D8800002908BF00281CBF4FF0FF314FF0FF308B
:100D980000F02CB8ADF1080C6DE904CE00F075F840
:100DA800DDF804E0DDE9022304B07047D0B5FFF7B1
:100DB800A7FB0C4B002206460F46FFF7F9FB00F095
:100DC80017F80446FFF77AFB074B0022FFF7F0FB02
:100DD80002460B4630463946FFF732FA00F008F86B
:100DE8002146D0BD0000F03D0000F041704700BF33
:100DF8004A0011D212F5001211D20DD56FF4787392
:100E0800B3EB62520ED44FEAC12343F0004343EAE6
:100E1800505323FA02F070474FF00000704750EA31
:100E2800013002D14FF0FF3070474FF0000070479B
:100E380010F8012B11F8013B012A28BF9A42F7D07C
:100E4800D01A7047034611F8012B03F8012B002A2A
:100E5800F9D17047034613F8012B002AFBD1181A61
:100E68000138704710B500210446FFF70FFF20B97D
:100E78002046BDE81040FFF799BF04F10040FFF796
:100E880095FF404261EB410110BD2DE9F0478646D0
:100E98008C460846089E154674461946002B40F0B5
:100EA800C2808542B2FA82F245D94AB1C2F1200322
:100EB80000FA02FC2EFA03F3954043EA0C0C944026
:100EC8004FEA154EA8B2BCFBFEF8230C0EFB18CC5B
:100ED80008FB00F943EA0C43994528D9EB1808F1B7
:100EE800FF3704D2994502D9A8F102072B44A3EB96
:100EF8000903A4B2B3FBFEFC0EFB1C330CFB00F091
:100F080044EA0344A04214D92C190CF1FF3304D24B
:100F1800A04202D9ACF102032C44241A43EA074048
:100F28001EB1D440002334607360BDE8F0874746A3
:100F3800DDE76346F1E792BB431B01214FEA154EFB
:100F4800AFB2B3FBFEFC200C0EFB1C330CFB07F806
:100F580040EA0343984562D9EB180CF1FF3004D2FC
:100F6800984502D9ACF102002B44A3EB0803A4B2C4
:100F7800B3FBFEFC0EFB1C330CFB07F744EA0344EF
:100F8800A7424ED92C190CF1FF3304D2A74202D93B
:100F9800ACF102032C44E41B43EA0040C0E7C2F171
:100FA800200320FA03F1954090402EFA03F30343FF
:100FB8004FEA154EAFB2B1FBFEFC0EFB1C10190C2C
:100FC8000CFB07F841EA0041884504FA02F422D9EB
:100FD80069180CF1FF3004D2884502D9ACF102003F
:100FE8002944A1EB08019BB2B1FBFEFC0EFB1C11CE
:100FF8000CFB07F743EA01439F420ED9EB180CF1AB
:10100800FF3104D29F4202D9ACF102012B44DB1B11
:1010180041EA004192E76046E3E76146F7E7604648
:10102800A3E76346B7E7834206D916B90021084605
:101038007BE7C6E900E0F9E7B3FA83F78FB98342A3
:1010480001D3724508D8BEEB020460EB030301200C
:101058009C461EB9002168E73846FAE7C6E9004C05
:10106800F8E7C7F1200CBB4022FA0CF41C432EFA17
:101078000CF120FA0CF3B84001434FEA14490EFA78
:1010880007F5B3FBF9F81FFA84FE09FB18300B0CBF
:1010980008FB0EFA43EA00439A4502FA07F240D9E0
:1010A800E31808F1FF3004D29A4502D9A8F10200EA
:1010B8002344A3EB0A0389B2B3FBF9F809FB1833FD
:1010C80008FB0EFE41EA03418E452CD9611808F150
:1010D800FF3304D28E4502D9A8F10203214443EA22
:1010E8000040A0FB0298A1EB0E014145CE464346C5
:1010F80002D306D14D4504D2B9EB020E68EB0403C6
:101108000138002EA6D0B5EB0E0261EB030101FAFF
:101118000CFC22FA07F34CEA0303F940C6E9003154
:1011280098E74046C5E74346D9E7000000000000BD
:101138002DE9F047064688B00F4690461AF031FF71
:101148004FF47A73A0FB034503FB0155E40B012F11
:1011580044EA45444FEAD53507D1294922462B466A
:10116800304614F0E5FC002012E0D8F80470254859
:101178003946FFF75DFE70B123483946FFF758FE40
:1011880048B1304621493A4614F0EEFC6FF00400AD
:1011980008B0BDE8F0872046294617A3D3E9002305
:1011A800FFF79CFD05460C4610461946184A0023D1
:1011B800FFF794FD80460F46104619464EF660220A
:1011C8000023FFF78BFD82468946104619464FF4E7
:1011D8007A720023FFF782FDCDE902A9CDE9062343
:1011E800CDE90401CDE900870A492A46234630465D
:1011F80014F09EFCB7E700BF005C26050000000065
:1012080066DC010077DC01007ADC010083DC010088
:1012180080EE36009BDC0100F0B5A1B0002500AFE0
:101228000C467C222946381D3D601BF096F87F222B
:101238003946204618F0DFF900281CDD00F180034C
:101248001048DA19036802F8805C03F00703022BE0
:1012580011D96E4688B06A460B4BC2E905374FF480
:1012680000739383094B42F8103F4FF4E6512B4625
:1012780001F040F9B546204618F081F88437BD469C
:10128800F0BD00BFB80F0020F6D801000300000130
:101298002DE9F0410129C2B00D4602AF164609D822
:1012A800464914F045FC6FF0150007F58077BD46F8
:1012B800BDE8F0810021FC22381D39601BF04DF893
:1012C800DFF8FC8001243846FFF7C4FD56F82410E7
:1012D800C0F1FF02013438461BF064F8A54209D07A
:1012E8003846FFF7B7FD4146C0F1FF0238461BF00C
:1012F80059F8E8E706F086FF06463846FFF7AAFDE4
:1013080000220023CDE900230023014680461A4627
:10131800304609F0D9FE2B4D044648B92B685907C9
:1013280004D0294A0121284614F0C4F90020BCE75A
:101338004246394618F0B7FA58B12B685A0704D014
:10134800224A0121284614F0B5F9204618F017F86A
:10135800ECE7A66136B1336873B31B7C84F82030A0
:1013680084F82A301AF0A2FC0026421E46F1FF3308
:10137800204616F0F4FCB0422B6805DA5B07E4D08F
:10138800134A10480121DEE703F00703022BCDD9E9
:101398006C4688B002AA0F4BC2E905374FF40073B8
:1013A80093830D4B42F8103F064833464FF4E651FD
:1013B80001F0A0F8A546B9E71B78FFDE08D90100BF
:1013C800A9DB0100B80F00202DD901004ED901007A
:1013D80074D9010088D901000300000138B506F06E
:1013E80011FF1749174D0446174807F033FE6CB92B
:1013F800204608F079FB2B6803F00703022B1DD960
:10140800124A1048032114F055F90BE00021204638
:1014180013F093FB0028EBD00821204613F08DFB36
:101428000028E5D02B6803F00703022B06D9084AE9
:101438000448BDE83840032114F03CB938BD00BF6A
:1014480021120000B80F00209024002099D9010033
:10145800AFD901002DE9F04F91B08407009302F055
:1014680004030293C2F3C20303F10103DDF86880A9
:10147800039205460E46059340F0BA81041D30B12B
:10148800072909D86FF01B0011B0BDE8F08F01F0F3
:1014980007063444C6F10806009B4FF00009591EA0
:1014A8004FF0040A4FF0FF330193CDF810904F46E8
:1014B800CB4653460DB1009A22600598002800F3E8
:1014C800E8809848009A824203D397488242C0F045
:1014D800E080039AA4EB050E92074FEA9E0000F104
:1014E80003810F2F00F2B180002D00F0058107F174
:1014F80040020DEB020C019A0CF8200C0CF8102C91
:10150800049801300490E7E07A285DD84B280ED87B
:10151800472859D829282DD8252852D054D82028EA
:101528007AD02338D0F1000B4BEB000B74E04C3829
:101538002E2849D8DFE800F070484848484848480D
:10154800484848484B484848484848484859484BFC
:101558004B595959704B6D487048184B1848488278
:101568007F4B48484B487F0000204FF0000B4FF05E
:10157800040A38E02A38C0B2012202FA00F010EA60
:101588000E0F49D110F0625C2FD110EA020B43D044
:101598006046013C5444B4FBFAF40AFB04F4002D01
:1015A80061D0A3EB050CA444B4453FF66BAF00280B
:1015B80068D1042B47D158F8043B23600434042332
:1015C8002AE0019A013A01924FF0000B24E011F849
:1015D800010C6C2834D111F8023C00206C2B834696
:1015E800C5D14FF0080A5346D3E708F1070828F099
:1015F80007080734F8E802AB24F0070435B1069869
:101608002044B0423FF63EAFC4E900AB08344FF087
:10161800000B4FF0080A534611F8010F002878D044
:10162800BBF1000F7FF470AF2528F5D1019B013382
:1016380001934FF0010B4FF0040AECE7584694E78A
:1016480000208346A5E7082B02D06FF015001BE7A2
:1016580008F1070828F00708F8E80223C4E900237E
:1016680008340823D8E768B9042B02D108F1040824
:10167800A4E7082BE9D108F1070828F0070808F1C2
:101688000808EDE7059A013A059258F8042B0092EC
:1016980010E7039A900720D5A4EB050E4FEA9E00A9
:1016A8004FF0010CBEF5007FCFD20F2FCDD8F5B18A
:1016B80007F140020DEB020EC0B2019A0EF8200CA1
:1016C8000EF8102CBCF1000F3FF41AAF60F07F0049
:1016D8000EF8200C09F101090137C5F1080204349C
:1016E80006924FF6DA7E97E74FF0000CDAE7BCF186
:1016F800000F01D00136EFE7029802360028EBD13F
:101708000098CDE90631FFF7A5FBDDE9063106446F
:10171800E2E7631BB3F5806F97D23DB9A6F10804E1
:10172800E018B1E630C5010064030200029A28609F
:101738009B082B709DF81030C2B1EB7085F80290B1
:10174800B9F1000F05D008A80022C5F1010C974295
:101758000ED1C5F101030DF120084FF0000A0193E5
:101768000DF1300B574512D1601B8DE66B70E5E724
:1017780010F8013B190608D50CEB040EB64503F02A
:101788007F033FF67FAE04F8013B0132DFE7B9F192
:10179800000F03D098F90020002A17DB029BD3B171
:1017A8001AF80B2004F8012B0022019B1819104489
:1017B800B0423FF667AE98F8000004F8010B0099B4
:1017C800039220461AF0A1FD039A14440AF1010A73
:1017D80008F10108C6E798F8002055F82230009370
:1017E800029B45F822300098FFF734FB421CDCE7E7
:1017F8006FF00D0048E600BF2DE9F04F97B000AF3D
:1018080090F802A0D7F880B03B62CBF3C00304463F
:10181800FA62BB61894641B9457800780AEB8000D5
:1018280020444D4517D8A0EB0409E378FB61BAF1D1
:10183800000F02D01BF0010F16D1FB6953BBFB6AE6
:101848001BB13A6A4946204698474D4628465C37B8
:10185800BD46BDE8F08F461C3046FFF7FBFA013065
:10186800304409F10109DCE7237862687A62FA6A90
:101878009900796104EB8301002A40F004814D4608
:101888000E4601EB0A094FF000084E4550D101EB16
:101898000A0610E01BF0020FD1D023789A007A6173
:1018A80062687A62FA6A04EB8301002A7BD14D46AA
:1018B80001EB0A0690461BF0050F0CBF022301231B
:1018C800FB62FB6906EB430A0BF00203BB62564559
:1018D800BCD016F8021B16F8013C54F823909B4B19
:1018E800994502D39A4B99453AD3BB69002B44D00A
:1018F800786A13F0C5FA00283FD09648036813F0B9
:10190800060F13D0E9468AB06A46934B53617B6A47
:10191800C2E906314FF400731384904B42F8103F2C
:1019280000234FF4125100F0E5FDCD46023DCEE70D
:1019380016F8013BF96254F82300FFF78BFAD7F841
:101948008430F96A01304BB1D7F8883098453EBFEA
:10195800D7F8843023F8180008F10108054494E703
:10196800BB6923B1786A13F08BFA0028C5D11BF044
:10197800010F05D1FB6AED1AA9E7BB6A002BA6D0B7
:101988004846FFF767FAD7F8843053B1D7F888305C
:1019980098453FBFD7F88420431C22F8183008F137
:1019A8000108054493E7BAF1000F72D01BF0040652
:1019B80072D0D046002607F1480052463B61B96212
:1019C8001AF0A3FCB96A3B6901EB0A02BA62FA6928
:1019D800F9695200FA60BA6A02EB41023A610BF007
:1019E8000202BA603A69B96A8A4257D162787A6261
:1019F8001BF0020F32440CBF4FEA580100211BF0C4
:101A0800010FD2B240F09F801BF0040F14BF404674
:101A18000020BB616270A070E1703A6A7969FB6A64
:101A280020469847051EFFF611AFBB6923707B6AF5
:101A38006370FB69E37041463A6AFB6A84F802A066
:101A480007F148009847B0F10008C0F2BB807B69F5
:101A58003A6AA9EB0A01C91AFB68C91AD7E90A0345
:101A680098470028C0F2B080A84408EB00054FF062
:101A7800000B07F1380AB34572D300213A6AFB6AB2
:101A880008469847E2E656464FF0000807F1380046
:101A980093E75646D04697E7B04695E7BA6A12F8F4
:101AA800021BBA6212F8015C284A54F825009042D9
:101AB80002D3274A90421ED3BA6932B1786A7B6052
:101AC80013F0DEF97B6800288CD1BA6802BB08F1F4
:101AD800280207F1300C08F10100944407F158027C
:101AE80052FA80F008F102080CF8101C5FFA88F826
:101AF80000F8105C76E7BA693AB1786A7B6013F04F
:101B0800BFF97B6800287FF46DAF1BF0010F09D087
:101B180006F1280207F13000711C161806F8205C3F
:101B2800CEB25FE71BF0040F3FF45CAF08F1280268
:101B380007F1300008F1010102EB000808F8105C19
:101B48005FFA81F84EE7002063E700BF30C5010067
:101B580064030200AC0F00201DDA0100040000013C
:101B68001BF80A3087F8373054F82390D7F88430B8
:101B78002BB3D7F888309B4521D2D7F8843033F877
:101B88001B803A6AFB6A012107F137009847002851
:101B98001ADB0544B8F1000F06D14846FFF75AF999
:101BA80000F101081FFA88F83A6AFB6A414648467C
:101BB8009847002808DB05440BF1010B5BE74FF061
:101BC8000008DEE7454641E605463FE6014B18605A
:101BD800704700BF4003002080B505460E461746F3
:101BE800984612F025F803461AF094FCDFF818908E
:101BF800044649F80030424630463946A84754F86A
:101C0800090003F0DBFD00BF0800000030B53023F9
:101C18001049434308330B44BFF35B8F1A68BFF383
:101C28005B8FB2B1BFF35B8F541E53E8005F9542E0
:101C380004D143E8004CBCF1000FF6D1BFF35B8F31
:101C4800EAD1012A05D1302358430A1800230B5042
:101C5800536030BD9824002070B54FF0FF331D4805
:101C68004FF0FF3213F04FF91B4B0025BFF35B8F8A
:101C78001A68BFF35B8F82B10135042D03F130037D
:101C8800F4D11AF047FC154B17221A504FF0FF35C4
:101C9800104813F03AF9284670BD30246C43BFF35E
:101CA8005B8F53E8000F013043E800010029F8D1A9
:101CB800BFF35B8F0A4E331932515A609A6204F1AE
:101CC8000C00304419F02AFE04F12000304419F0C9
:101CD800E9FFDDE7A4100020A02400200C0000008C
:101CE800982400202DE9F041164630240F4A444339
:101CF800101911514660C362B6B1F368A3B11AF066
:101D080009FC0B4F0C3450F807801319054640F2B4
:101D18000512304613F0E8F8B8F15F0F04D0EB591C
:101D28005F2B08BF45F80780BDE8F08198240020A4
:101D38000C00000008B54FF08053D3F8E8311B6859
:101D48009847082805D1044B0122DA6203F50053AD
:101D5800DB6A002008BD00BF0000094070B50446DA
:101D680019F000F9002181F31188BFF36F8F032C5C
:101D780025D002D8022C08D070BD043C022CFBD818
:101D8800BDE8704008460EF049B90DF06FFE0E4DE3
:101D980004464FF08056D6F8D83128469B689847B5
:101DA80004280346F7D014F0100000D103B901202D
:101DB8000DF0B6FB054B0122DA62DB6ADCE7BDE811
:101DC800704001200EF05AB900400340002009403D
:101DD8002DE9F047DFF85880044607464FF001091F
:101DE80014B93846BDE8F08794FAA4F5B5FA85F534
:101DF80009FA05F32E0108EB05156FEA030A24EA30
:101E080003042B7B002BEBD058F806301B694BB929
:101E18004644042273682846196807EA0A0713F03B
:101E2800C6FBDDE7284698470028D9D1F0E700BF70
:101E380048C8010030B51049104889B000221AF08E
:101E4800F7F80F4D0F4900220023CDE9062300249F
:101E58000E23CDE90334CDE901440B4B00944FF434
:101E68004072284611F088FB0849284611F0B6FA56
:101E7800204609B030BD00BF991E00002017002081
:101E88006012002040350020F5210000D5DA01005D
:101E9800014811F045B800BF4C1100202DE9F0476A
:101EA800804621480F4613F05AFB0646002833D0D7
:101EB80000252846BDE8F087237B83B12368DB68CB
:101EC8000BB120469847636883F8069023681B691E
:101ED800D3B9636804221968204613F068FB0136F9
:101EE80010345445E8D3B8F1000FE2D0002DDFD00C
:101EF8002846FFF76DFF0546002FF7D000214FF465
:101F0800A47019F099FFF1E7204698470028E0D01F
:101F180009FA06F31D43E2E7044CDFF814A005466E
:101F28004FF00109DDE700BF6825002048C801001F
:101F380058C8010008B5034608462BB1044A136087
:101F480000F07AFD002008BD6FF01500FBE700BF28
:101F58004403002010B5044C237813B9034810F04B
:101F6800DFFF0123237010BD0A3400204C1100202C
:101F780010B504460B4813F0F2FA5CB1BFF35B8F5F
:101F8800094B53E8001F013943E80012002AF8D131
:101F9800BFF35B8F05481AF057F80548BDE81040B5
:101FA80010F0BEBF60250020642500202017002007
:101FB8004C1100200020064BBFF35B8F014653E80D
:101FC800000F43E80012002AF9D1BFF35B8F704776
:101FD8006025002070B5FFF7EDFF084C084E054658
:101FE800B44200D370BD63685B792BB123685B682A
:101FF80013B12946204698471034F1E748C8010034
:1020080058C8010010B5044C0449204613F084F860
:10201800034B1C6010BD00BF680F002030CA0100D0
:10202800582500200E4A0F48002310B513700E4A99
:1020380013600E4A4FF400411360FFF77BFFFFF770
:10204800E1FF00F081F90A4B0A4918468B4200D398
:1020580010BD1A1A5C681211013222711033F5E7AB
:102068000B34002063550100602500206425002002
:1020780048C8010058C80100014600220148002351
:1020880013F06BB8680F0020014813F004B900BFC3
:10209800680F0020024B0146186813F050B900BFC2
:1020A80058250020014813F085B900BF680F0020AB
:1020B8002DE9F041364B1878002866D0FFF7E4FF89
:1020C800044600285DD1334B334C1B68002B19DDC7
:1020D80019F067FF4FF47A72A0FB020302FB01318B
:1020E800C30BD4E9002043EA41439B1A4FEAD1319C
:1020F80040F2E93261EB0001934271F1000101D332
:10210800FFF768FFD4E9003213F57A7342F1000251
:10211800C4E90032BDE8F041FFF7C4BF6B685B79E2
:102128003BB121784B0717D52B6821461B682846F9
:10213800984710354545F1D32046FFF7ABFFBFF36D
:102148005B8F164B53E8001F013943E80012002A41
:10215800F8D1BFF35B8FB6E720462688C1F3C207E4
:1021680000F0A8FAC6F382160246002EDCD000283A
:10217800DADB01233946284600F096F9B042D8D375
:10218800D2E7074DDFF81C80D4E7BDE8F08100BF37
:102198000A3400206025002018170020642500203C
:1021A80048C8010058C8010070B50D4D297861B9BB
:1021B8000120FFF773FE0B4C0B4EB44206D3FFF71A
:1021C80077FF0028FBD101232B7070BD63685B7912
:1021D8001BB1236820469B6898471034EDE700BF81
:1021E8000B34002048C8010058C8010000212DE91F
:1021F800F0470846FFF752FE044658B340F26768B6
:102208004FF000091AF086F91B4B1C4A1B58136043
:1022180033B11B4B1B68092B02DD1A4810F080FEF6
:10222800194FDFF860A0002544B12046FFF7D0FD24
:10223800044618B94FF0FF384FF0FF39FFF738FF61
:10224800064628B9B5B942464B46504610F0A2FE9C
:102258003546E9E74FF0FF384FF0FF39D2E72B68F2
:102268009B691BB100221146284698471035BD428C
:10227800F5D3E8E7054DFAE7080000005C250020E3
:10228800642500204C11002058C8010048C80100EE
:1022980013B5184813F063F9174B1B7873B1EFF3B4
:1022A8001184202383F31288BFF36F8FFFF700FF99
:1022B80084F31188BFF36F8F02B010BD0F4B1B68FA
:1022C800002BF9D050B900220023CDE900230C4897
:1022D8004FF40042002312F011F8EDE70928EBD182
:1022E800074819F0B1FE074802B0BDE8104010F0E9
:1022F80017BE00BF642500200B3400205C25002099
:10230800201700204C11002010B5064B1B6804460E
:1023180098472146A060044812F09EFFBDE810408F
:10232800FFF7B6BF44030020680F0020044A054B9E
:102338009B1AB1EBD30F34BF52F83100002070471D
:1023480018C7010048C801000B480C4B30B51B1AD0
:102358000B4CDB0800210430994200D130BD10F845
:102368003120256802F0070225F007052A4344F8C2
:10237800042B0131F0E700BF18C7010048C801006D
:10238800AC0F0020F8B50B4F0B4DED1B0646ED08C2
:102398000024AC4203D14FF0FF342046F8BD57F873
:1023A800340020B13146FEF743FD0028F5D0013452
:1023B800EFE700BF18C7010048C8010000282DE951
:1023C800F047884615461F461DDADFF89890264ED6
:1023D8004FF0000AA6EB090636095446B24509F142
:1023E800100902D12046BDE8F08759F80C0C3B468D
:1023F80000792A464146FFF7E1FF844238BF044688
:102408000AF1010AEAE7194B194AD21AB5EBD20FB9
:1024180026D203EBC5031C79BC4228BF3C46154EA7
:10242800C0B200EB400056F825300722824023EA6C
:10243800020304F00702824013430021032223FA17
:1024480002F000F00700814202F1030238BF0146A2
:102458001E2AF4D123F007030B4346F82530C1E7C1
:102468000024DCE748C8010058C8010018C701006B
:1024780048C80100AC0F0020F8B5094D094BED1A0A
:1024880006460F46ED080024AC4200D3F8BD0021F3
:1024980022B23B463046013413F081F8A4B2F3E788
:1024A80048C8010018C7010070B14168097973B1C3
:1024B800002A17DBCBB20C4951F8220003EB430387
:1024C800D84000F0070070474FF0FF31EFE70749A9
:1024D8000748401AB2EBD00F3ABF01EBC2010879A6
:1024E8001846704704207047AC0F002018C7010039
:1024F80048C801002DE9F04F8FB004AFC1F34A2856
:10250800B8600D4691467B600C0DB8F1000F67D09E
:10251800002607F114034FF0040B4FF00A0AC7F81E
:102528000C80C7E907667E620193CDF808B0CDF844
:1025380000A007F11C03F96832464846FFF75CF92A
:10254800B0F5006F034620D32A48036813F0060F3E
:1025580017D06C468AB0D9F8041004AB264DC3E9ED
:10256800055140F2FF71D9611A464FF40071198480
:10257800224B42F8103F4FF412513346FFF7BAFF8F
:10258800A5462C37BD46BDE8F08FC0F30A0804F114
:102598001700184420F0070080083B60FFF76CFD27
:1025A80068F35325044690B13B68154AC7E90836D5
:1025B80000F1100107F11403F961CDE900A3CDF88A
:1025C80008B0F96807F11C034846FFF715F968F3E6
:1025D80053257B68B9682A46204613F01BF8D0E7D4
:1025E80004F1170020F007008008FFF745FD0446B6
:1025F800EDE700BFBC0F0020EADA0100040000018B
:10260800F15501002DE9F04F87B0DDE91279DDE9D8
:10261800105A0446039193469846DFB1CDF80090CE
:102628003B46524610210020CDF81490FEF712FFC9
:10263800B0F5006F06460ED31C48036813F0060F6A
:1026480030D01B4A40F2FF73022107B0BDE8F04FBB
:1026580013F039B83E4605F11700304420F0070062
:1026680004F007048008FFF707FD0BF0070BE400F0
:1026780044EA8B1444EA462444EA0554054640B12A
:102688003FB1CDF800903B46524631461030FEF738
:10269800E1FE039943462246284607B0BDE8F04FBD
:1026A80012F0B8BF07B0BDE8F08F00BFBC0F002024
:1026B80029DB0100406820B1034BC01A40F38F00AA
:1026C80070474FF0FF307047AC0F00200EB403B5D1
:1026D80003AB014653F8042B0448019303F012FBA3
:1026E80002B05DF804EB03B0704700BF315701003A
:1026F800CA0605D48B064CBF02490349FFF7E6BF5B
:10270800704700BF3FDF010061DB01002DE9F04F9A
:1027180089B09B46149B06939DF84CA0159B059386
:10272800169B179E049304460D469046BAF1000F77
:1027380000F09D8006F48073079312F02EFF06F0D8
:102748000209024600283ED091492046FFF7BEFF05
:102758000746B9F1000F08D016F0440F35D18D495E
:102768002A462046FFF7B2FF074406F0010353B19B
:10277800894B8A4953F82A20894B2046002A08BFEA
:102788001A46FFF7A3FF06F48073002B49D006F022
:102798000803002B63D1B8F1000F66D08149424687
:1027A8002046FFF793FF0546069B3D44002B6DD15D
:1027B800049B002B73D1F30700F1E48031462046D7
:1027C800FFF796FFD8E00746C3E7774B186800285D
:1027D800CAD0764B4FF47A791B68B5FBF3F54FF402
:1027E8006163B5FBF0F100FB115509FB05F54FF0EE
:1027F8003C0CB1FBF3F203FB1211B5FBF0FEB1FB8D
:10280800FCF300FB1E550CFB131109FB05F50091A9
:10281800B5FBF0F56649CDE901E52046FFF756FF1F
:10282800A2E706F00803EBB1624B634953F82A208C
:102838002046FFF74BFF0546B8F1000F05D0594970
:1028480042462046FFF742FF0544BBF1000FABD0DC
:102858005A495A462046FFF739FF0544A4E74FF086
:10286800000BE1E706F00805E6E745469CE7BBF103
:10287800010F069B06D1002B64D1049B002B7BD053
:1028880000250CE0002BF8D04D485CE04D48069B35
:102898004D49224612F0C3FA049B002B68D0DFF89A
:1028A8002C81DFF82C91049F3146102F204628BF39
:1028B8001027FFF71DFF4FF0000B5D4545DC059B1A
:1028C80049461A782046FFF701FF4FF0010B1BF02D
:1028D800070F03D141462046FFF7F8FE5F453BD975
:1028E800059B494613F80B202046FFF7EFFE0BF136
:1028F800010BBBF1100FEAD1364920464FF0000B0F
:10290800FFF7E4FE5A46059B9A5CA2F120015F2975
:1029180028BF2E2230492046FFF7D8FE0BF1010BC5
:10292800BBF1100F1DD01BF0070F03D14146204605
:10293800FFF7CCFE5F455A46E5D841462046FFF7EB
:10294800C5FEEBE71F485546A1E741462046FFF77D
:10295800BDFE0BF1010BB0E720492046FFF7B6FE9C
:10296800C5E7059B3B440593049BDB1B04939AD165
:10297800BAF1000F7FF41FAF204609B0BDE8F04F51
:1029880012F0C5BE064A05492046FFF79FFE15E727
:1029980069DB01006DDB010044CA010068E1010048
:1029A80064DB010092DB0100702500206C2500200B
:1029B80076DB010058CA010096DB01009CDB0100B0
:1029C80067570100315701000D5D0000A9DB0100C8
:1029D800A1DB0100ABDB01008DE70100A7DB0100F3
:1029E80073B542F20F738B4228BF0B4605680F4A36
:1029F80004460521684611F0B1FD63680C495B681F
:102A080006460B22284612F074FE63683246694671
:102A180028465B6812F06DFE636806495B681B22F6
:102A2800284612F066FE02B070BD00BF0CFF010020
:102A3800C9DB0100ADDB0100074A002101239042F8
:102A480006D8064A01B901231360054B1860704780
:102A580040085B000121F2E740420F006C2500208E
:102A680070250020014B0360002070476CCA0100EC
:102A7800F8B50546EFF31186202383F31288BFF3D8
:102A88006F8F094B094F1C6824B986F31188BFF36F
:102A98006F8FF8BDD4E90123002D18BF13460BB181
:102AA800387898472468EFE78C2500208025002097
:102AB80010B50F4BBFF35B8F53E8002F22F00101D5
:102AC80043E800100028F7D1BFF35B8FD3070DD57B
:102AD800084C6178207812F02AFD0020FFF7C8FF23
:102AE80018F02DFA0023C4E90033A36010BD00BF1D
:102AF8009425002080250020F8B5044600F076F8DB
:102B0800611C054604D06A1C49D0A542A8BF2546C9
:102B1800EFF31186202383F31288BFF36F8F264BC0
:102B2800264C187800283CD093E8070084E8070072
:102B380000221A7086F31188BFF36F8F207868B36C
:102B4800A0681F4E1F4A4FF400470021E0FB0761B1
:102B580000233046FEF712F928B16B1C03D001217F
:102B6800281A0CF049FB10F06BFF0120FFF780FFDB
:102B7800BFF35B8F144B53E8001F41F0010143E89A
:102B88000012002AF7D1BFF35B8F20786178FFF736
:102B9800E5F8FFF78DFF10F067FF0120F8BD254627
:102BA800B6E7294600F0DEF818B107C884E8070040
:102BB800C0E72070BEE700BF7425002080250020F4
:102BC80020A1070040420F009425002001289FBF44
:102BD800044B53F820300B60034B94BF185C002063
:102BE800704700BF6CCA0100F8DB010070B5EFF355
:102BF8001186202383F31288BFF36F8F0A4B1B685B
:102C08007BB1D3E9024519F0CCF9201A65EB010133
:102C1800002901DA0020014686F31188BFF36F8F7F
:102C280070BD4FF0FF30F6E79825002010B5184B1F
:102C38001A78824224D15C788C4214D0FF2912D0B1
:102C4800187A90420ED15B7A8B420BD1BFF35B8F1F
:102C5800104B53E8001F013143E80012002AF8D155
:102C6800BFF35B8F10BD0C4ABFF35B8F52E800CFF8
:102C78000CF1010C42E800C4002CF7D1BFF35B8FC4
:102C88001A7A8242EED15B7A8B42DFD0FF29DCE7E9
:102C98004C030020580300205003002010B5184BA7
:102CA8001A78824224D15C788C4214D0FF2912D041
:102CB800187A90420ED15B7A8B420BD1BFF35B8FAF
:102CC800104B53E8001F013943E80012002AF8D1DD
:102CD800BFF35B8F10BD0C4ABFF35B8F52E800CF88
:102CE8000CF1FF3C42E800C4002CF7D1BFF35B8F26
:102CF8001A7A8242EED15B7A8B42DFD0FF29DCE779
:102D08004C0300205803002050030020134B1A786E
:102D180082420CD15878884211D0FF290FD0187AF6
:102D2800904218D15B7A8B4215D1012308E01A7AB8
:102D3800824210D15B7A8B42F7D0FF29F4E7002357
:102D4800074ABFF35B8F52F83300BFF35B8F00383D
:102D580018BF012070470020704700BF4C030020B7
:102D6800500300202DE9F74FB1F1FF3F884601A934
:102D78000CBF4FF0FF3A4FF0000AFFF727FF441E41
:102D880024B204EB44040546A40025B92F4638466E
:102D980003B0BDE8F08F019B1F19185D7978FFF724
:102DA800B5FF064648BB7868DFF858C0164A4FF4A6
:102DB800004B3146E0FB0BC100236046FDF7DEFF08
:102DC800DFF840C0104A8146B8683146E0FB0BC1C5
:102DD80000236046FDF7D2FF0C4B1B68002B01DB7C
:102DE80083420AD9BAF1FF3F08BFB8F1FF3FCED0FE
:102DF8008144C8457AF10003C9DA013DADB20C3C03
:102E0800C3E700BF3F420F0040420F0048030020C5
:102E180010B5044618F094F803490246204612F00B
:102E280087FE002010BD00BF11DC010073B51346FA
:102E380000220192044601AA58680A2101F0A4FC64
:102E4800019D95B920EAE0744FF40046294640F206
:102E5800E7304FF47A720023C4FB0601FDF78EFFBA
:102E680018F0EAFF284602B070BD2A4602492046FB
:102E780012F07AFE019DF5E73DDC010008B5034A32
:102E8800034912F055FE002008BD00BF2DDD0100EA
:102E980034DD0100F7B517460023054601AA0A21CB
:102EA800B868019301F070FC1749C6B2284612F0C1
:102EB8004DFE019C44B122461449284612F054FEA6
:102EC800019C204603B0F0BD042E09D910493246B2
:102ED800284612F049FE284612F082FE0124F0E747
:102EE8007868FFF74FFA021E07DA7A680949284618
:102EF80012F03AFE6FF01504E3E7334612B22146AA
:102F0800204612F04CFBDCE75FDD0100C5DD010067
:102F1800ECDD010003DE010007B5002300906946DF
:102F280004488DF8043010F0DFFF9DF8040003B06A
:102F38005DF804FBED57010010B504460CF0C2F92A
:102F480007490246204612F0F3FD2046054912F0D3
:102F5800EFFD0548214610F0E1FF002010BD00BF3D
:102F680062DE010081DE0100752F000070B58EB0B1
:102F780004460D46D0F89C6018F09EFE034619F0F2
:102F8800C9FA214A21491058214A002B18BF1A466C
:102F98000092204A2346844218BF0A4628461E4902
:102FA80012F0C6FDD4E90A23CDE90023284694F996
:102FB8000E30227B194912F0BBFD06A920222046BB
:102FC80010F01CFA636E16490246284612F0B0FD4E
:102FD80005A9204618F07EFE024628B11149284668
:102FE80012F0A6FD0EB070BD059B6422F11A4A438B
:102FF8000091B2FBF6F20C49CDE90162284632464F
:1030080012F096FDEEE700BF08000000A9DB010002
:103018008BDE01006EF101008EDE01009ADE0100F8
:10302800C6DE0100DDDE01000ADF0100F0B5002583
:1030380091B00446294608AF1C2209A819F08DF959
:10304800134E1A222021384619F087F921461148D3
:1030580010F064FF07AA4FF40061304618F02EFE06
:10306800079A0097C2F5006164234B43DB0A059376
:103078004FF40063CDE90313CDE901322046064938
:103088002B46A6F1400212F053FD284611B0F0BDC0
:10309800C04A0020A53000005BDF010070B504467F
:1030A800D0F89C6088B00D4607A918F013FE0246B8
:1030B80028B10F49284612F03BFD08B070BD2046E4
:1030C80018F0FAFD079B0096F11ACDE90131094B7A
:1030D80064224A43002818BF0346B2FBF6F20649A9
:1030E800CDE903622846224612F022FDE5E700BF3B
:1030F800DDDE01008BDE0100A4DF010038B51346D8
:10310800054610225868002111F054FA0446FFF7CA
:1031180003FF38B90E492246284612F025FD6FF004
:10312800150038BD19F0F6F90A4B1B589C4204D11A
:103138000949284612F018FDF1E7204610F026FB51
:1031480028460649224612F0F3FC0020E9E700BFB2
:1031580008E001000800000023E001004BE0010046
:1031680038B51346054610225868002111F022FA96
:103178000446FFF7D1FE38B90E492246284612F018
:10318800F3FC6FF0150038BD19F0C4F90A4B1B5851
:103198009C4204D10949284612F0E6FCF1E7204692
:1031A80010F01CFC28460649224612F0C1FC0020FB
:1031B800E9E700BF08E00100080000008AE001001C
:1031C800B0E0010038B513460546102258680021C2
:1031D80011F0F0F90446FFF79FFE38B90E49224670
:1031E800284612F0C1FC6FF0150038BD19F092F9AD
:1031F8000A4B1B589C4204D10949284612F0B4FCDA
:10320800F1E7204602F0DAFA28460649224612F08B
:103218008FFC0020E9E700BF08E00100080000007B
:10322800EBE0010010E101002DE9F04F87B0044602
:1032380068460FF065FA009F284ADFF8A4A0DFF877
:10324800A4B0242303FB00770821204612F063FC76
:10325800009DBD4203D3002007B0BDE8F08F2B6866
:103268000BB11A7832B92B461F4A142101A811F064
:1032780075F901AB52460821204612F04CFC28464D
:1032880018F092FA194B1A4A002808BF5B46082121
:10329800204612F040FC2B6AA3B11E6896B1336831
:1032A80083B1144A0821204612F035FCB1464FF08C
:1032B80000083368104A434506D8104A08212046BA
:1032C80012F029FC2435C4E759F8043F08212046A8
:1032D80012F021FC08F10108EBE700BF57E10100FB
:1032E80066E101004EE1010061E1010048E10100F1
:1032F800ECE701006BE1010067E101003FDF01003D
:103308002DE9F041144688460746102260680021DE
:1033180011F050F9B8F1020F064607D8254A2023C4
:103328000821384612F0F7FB336816E00A2200211C
:10333800A06811F03FF9C5B21E4A2B46082138464D
:1033480012F0E9FBB8F1030F1AD1102D0CD0202D83
:10335800EAD0082D0BD13378DBB2174A082138465A
:1033680012F0D9FB002009E033889BB2F5E7384614
:10337800124A082112F0CFFB6FF01500BDE8F0816A
:10338800E0681022002111F015F90D4A03460446A1
:103398000821384612F0BFFB102D06D0202D07D08B
:1033A800082DE4D1E4B23470DCE7A4B23480D9E764
:1033B8003460D7E7ACE10100D7E10100C1E10100C9
:1033C800E8E101002DE9F04F87B000230193524B4B
:1033D800DFF848A191460122074688461A6002F0A4
:1033E800D3FC4FF0FF3520262C464946524640462E
:1033F80002F0EEFC411C06D16A1C41D1484938460E
:1034080012F0B2FB17E073281AD0772828D0612869
:1034180011D1DFF810B101AADBF80000102101F08A
:10342800B3F9019B0546002BDFD0DBF800203E49AD
:10343800384612F099FB6FF0150007B0BDE8F08F21
:10344800DFF8E0B001AADBF80000002101F09CF9E8
:10345800019B0446002BC8D0DBF800203349E7E77E
:10346800DFF8C0B001AADBF80000002101F08CF9F8
:10347800019B0646002BB8D0DBF800202C49D7E783
:10348800631C01D12B49BAE75FFA86F8C6F3C40674
:10349800002C3FD002AB29461A46A6EB050C0CE0DF
:1034A800B8F1100F1DD0B8F1200F20D0B8F1080FD7
:1034B8002AD10878187031443344A64203D80CEB5B
:1034C80001001028ECD9102CA14628BF4FF0100994
:1034D80029464B46384601F02FF81035A4EB09046D
:1034E800D6E7088880B21870000A5870E3E70868C1
:1034F80018704FEA102E83F801E04FEA104E000EC4
:1035080083F802E0D870D6E70B4A0821384612F053
:1035180002FB90E7204690E7B803002036E201005E
:103528003DE2010054290020FCE101000FE2010006
:1035380022E201005AE20100C1E1010070B50F4E1C
:10354800044633780D4671B123B1BDE870400C498B
:1035580012F00ABB012333700A49204612F0E8FA38
:103568000123337004E083F001033370002BF3D19F
:1035780029462046BDE8704012F050BB0C340020AC
:1035880074E20100AFE2010070B504463B480378DD
:10359800182B02D10B78112B31D0013A0B468D181C
:1035A800AB4225D18B5C0A780370A2F13003092B5A
:1035B800334C04D922F02003413B052B04D823685F
:1035C8003049CA54013323602368022B33D11022B7
:1035D8002C48002110F0EEFF2B4A136803F8010B6A
:1035E80013602A4A1368013313600023236022E022
:1035F80013F8016B182ED3D11E78112ED0D1234D7C
:1036080023492A68204612F093FA20460021FFF742
:1036180095FF204B187870B91F4A2B681168042B46
:103628000ADC08B111602B6013F003010BD112689A
:1036380013681BBA136070BD086800BA41F8040B20
:10364800043B0120EBE75B4203F0030358BF5942F8
:10365800022904D1126813885BBA9BB2EAE70329EE
:10366800E9D1106802681104C2F3074301F47F012D
:103678000B4302F47F4213430360DCE70D34002060
:103688009C2500200F340020A8250020A02500201C
:10369800D9E201000E340020A42500202DE9F84FBE
:1036A8000C462B49DFF8AC80DFF8AC90DFF8ACB003
:1036B80000230B602A4988F8003006460B6015463F
:1036C800012C2F4655F804AF1ED902224946504610
:1036D80018F07DFE80B99AF80220003A18BF01223E
:1036E800924420490222504618F071FE30B9012355
:1036F80088F80030013CE3E70022F1E749465046EC
:10370800FDF796FBA8B9043700221146786810F037
:1037180051FF154B002211461860786810F04AFFD7
:10372800124B134918603046FFF708FF0020BDE828
:10373800F88F9AF800202D2AE6D19AF80120002A5D
:10374800E2D052465946304612F0F2F9D2E700BFAD
:103758009C2500200E340020F3E20100F9E201006C
:10376800A0250020F6E20100A8250020A4250020BD
:103778009135000007B50A4818F016F860B1094AF3
:1037880007491268084804230093012300F03AFF10
:10379800002003B05DF804FB6FF01200F9E700BFEA
:1037A80024C6010034CB010058C8010010B5446894
:1037B800C4E90012A36042681346402153F8404B05
:1037C80053625163002302F13801C2E90413C2E9CC
:1037D8000A33C2E90633082113631162C2F8B8300C
:1037E800A36823B19B6C13B1044920469847A3688A
:1037F8009B6A0BB120469847002010BD093800008D
:103808002DE9F34705460C4683685B6C03B198477E
:10381800AB685B6B73BB4FF0000904F1240704F13C
:103828002808218E238D626B5B1A9BB2D31A9342B0
:1038380028BF1346414601AA384611F0D4FD8246F6
:10384800002844D0AB6801999B69002B33D002460D
:1038580028469847064688B332464146384611F00E
:10386800F8FD56454FF00109DBD0D4E901310020BD
:10387800984703E0284698470028CCD1AB685B6A94
:10388800002B37D1628BE38A9B1A226A9BB2934240
:1038980004F1100704F11A0828BF1346414601AA8B
:1038A800384611F0A0FD064658BB284611F0B0FF77
:1038B800C4F8B86031E06FF05706CDE702464146DC
:1038C800384611F0C6FDB9F1000FD7D0CDE717483B
:1038D800036813F0060F03D0154A022111F0EAFE1F
:1038E800AB689B69002BEED001220DF1030128463D
:1038F8009847E8E7284698470028C3D102B0BDE8B2
:10390800F087AB6801995B6963B10246284698471E
:1039180002464146384611F09CFDD4E901310120A8
:103928009847EBE76FF05702F3E700BF3C10002021
:1039380060E4010010B581680446183101F088F987
:10394800A168034A20461831BDE8104001F026B9A5
:10395800A2E4010038B58368D3F87832DB0704465F
:103968001DD4C06912F092FE606803685B689847CE
:10397800054620B9E06813F05EF8A3681D75A368D2
:103988005B6C13B1294620469847A36818F0C2FD1E
:103998000022C3F82023034B185801F00FFF6FF0E3
:1039A8000F05ECE708000000014911F0CFBF00BF88
:1039B8003FDF0100F7B504468068D0F878325A072F
:1039C8000D4605D5002111F0E9FFE06813F005F870
:1039D800E368DB6873B9002D3BD0A66806F156078B
:1039E800384611F0C0FF002835D0394606F5AB70CF
:1039F800FDF728FAA268E0680DF106035632294659
:103A080012F0EEFF58B9A06800F5AB715630FDF71B
:103A180019FAA068563011F0A6FFADF80600204646
:103A280012F0EFFBA368D3F874329B0603D50B4959
:103A3800606911F08BFF204600F00CFFA268BDF80A
:103A48000630A2F85230A2682046A2F8503012F090
:103A58003DFB03B0F0BD86F85601CBE7CCC90100A9
:103A68002DE9F04FA7B004465422002111A818F000
:103A780074FC0023CDE90533A3682046563302932E
:103A880012F0C6FB204612F00AFB10B96069FFF776
:103A98008BFFA06814220021183018F05EFC204625
:103AA80012F0A3FAA168E068B1F850205631002658
:103AB80012F0CDFF204613F05CF84FF0FF37B24606
:103AC80003960DF14408B3463546B146DDE90532A3
:103AD800012A6DD0132B6ED85FBBBBF1000F0AD043
:103AE800204613F067F8A2681423563211A90DEB8B
:103AF800030012F0F9F8B9F1000F0CD099F8113061
:103B0800FE2B08D1059B26AA02EB830252F8542CFF
:103B18000AB101330593A068059D436A002B40F064
:103B2800B680CEB1C3699E422DD00D9600F118051E
:103B380024E0029A0223414606A812F0D5F8069915
:103B4800D8F804200292034631B101290AD148B1BC
:103B58006D4A204612F00EFC6FF00705284627B084
:103B6800BDE8F08F059B002B34D0D8F8000001F099
:103B78008FF898B166B1A5680D9618350CAE0FCEC2
:103B88000FC533682B602046FFF7D4FE0125E5E713
:103B98005E4A0121204612F0EDFBDDE7059BCBB123
:103BA800D8F800202946204601F014FA022809D145
:103BB800059B132B91D9069B022B8ED1544B554A4A
:103BC8000121C6E7032805D0059B013305934FF073
:103BD800010B7BE7039B33B9D8F8001007AA4846C6
:103BE80012F079F9054608F10408013F9DB3EB6826
:103BF800BBF1000F08D0F3B1204612F009FB2046B4
:103C080012F064FA444AC4E7ABB1A368DDF814A023
:103C1800AE4603F1180CBEE80F00ACE80F00DEF862
:103C28000030CCF80030AB682BB96B7CFE2B04BF9E
:103C38002F7C07F1FF37D5F804C0BCF1000F08D07E
:103C4800AE46BEE80F000CAE0FC6DEF8003033609B
:103C58006646A94603E0059B53B101230393069BDF
:103C680017B9022B7FF432AF059B013305932DE77B
:103C7800A368DB6A13B1DB68002BEED1274B0093F6
:103C8800274A119B0121204612F074FBE5E790F8C2
:103C98002830A5EB0A05BBB190F829104FF6FF7242
:103CA800FF2918BF0A469D4202D313449D420BD9EF
:103CB80083691C4A0121204612F05CFB2046FFF76D
:103CC80039FE6FF0150549E7012111F05CFEA06887
:103CD80000F5437011F07BFEA36811AA294602EB98
:103CE8008A025B6A204698470546A0684FF0FF3273
:103CF8004FF0FF3300F5437011F010FEA06800216B
:103D080011F041FE2AE700BFB0E40100C4E401005D
:103D180025E501001EDE0100E2E4010011E50100D5
:103D280019E8010049E5010010B5836802221A75F7
:103D380083689B6C0446BBB911F0C7FD8368D3F850
:103D48007832DB040BD50321084B094A12F012FB29
:103D5800A0686FF4805100F51E7011F0D0FD204668
:103D6800BDE8104000F0FCBE10BD00BF64E50100D6
:103D780068E101002DE9F04F04468068B1B00121E7
:103D880000F51E7011F0ACFDA3681B7D022B20D13D
:103D980000230993A36860689E6C03681D6909ABDA
:103DA8000EB310221BA9A847099B93B1A068012153
:103DB80011F0E9FD099A1BA92046B047A068002127
:103DC80011F0E1FDA3689B6C002BE3D12046FFF7BF
:103DD800ABFFA0686FF0010100F51E7031B0BDE8BF
:103DE800F04F11F08CBD01220DF12301A847099B6A
:103DF800002BEED09DF923209DF82330A068002ADF
:103E0800C8DB427D032A00F2F482DFE812F00400E6
:103E180075028C02F2020D2B67D00A2B43D0B0F842
:103E28007822092B6FF3CA02A0F8782272D029D819
:103E3800002B00F00381082BA06800F0E9810246FE
:103E4800D2F87412890740F1F980013B162B00F271
:103E5800F580DFE813F0B702FA01FE01F601B102BE
:103E68001002F300F300F300F30014021802F30049
:103E78002D02F3003202F300F300F300F3003402E2
:103E8800F30049021B2BA06841D07F2B00F0CC81A6
:103E9800A3F120015E290246D2D8012111F07EFD4E
:103EA8009DF82310B8E0D0F87822C2F3C7022AB1EF
:103EB800D0F87822C2F3C7020A2AC0D1B0F8782213
:103EC80063F3CA02A0F87822A568B5F85010C1B902
:103ED800284611F063FDE06812F07FFD6069FFF786
:103EE80063FD2046FFF720FF54E7D0F87822C2F39D
:103EF800C702002AE2D0D0F87822C2F3C7020D2AFE
:103F0800DBE72046FFF7ACFDC5F82403E9E701230A
:103F1800437593E0A068D0F874329B0740F18E8017
:103F2800012111F03BFDA068B0F85030FF2B00F0E4
:103F38008580B0F8522000F1560100F5AB7018F0FA
:103F4800E4F9A368B3F852201344002583F85651C6
:103F5800A2681BA9142302F5AB720BA811F0C4FECA
:103F68000B9914296AD830AB03EB810343F8545CEE
:103F7800A368B3F85220002A52D0134493F855305E
:103F8800202B02D0093B042B4AD800294BD100250D
:103F98000A950A9B30AA02EB8303002653F854AC17
:103FA800504611F0E0FCB3468146B046374616AAA3
:103FB8003946284600F0AEFB0346002842D1012EC0
:103FC80068D10A9B30AA02EB830353F8540C11F012
:103FD800CAFCA268064618324146284600F09AFBF9
:103FE8000568284611F0BFFC864205D0821B92B2B4
:103FF800A919204612F005FAA068B0F85230034417
:1040080093F85630202B34D0093B042B31D9D0F803
:104018007432DF0732D42021204600F069FD0DE01C
:104028000129B4D9013900200CAB009301900AABE7
:104038001BAA11F07BFF05460028AAD1606911F080
:10404800F3FDA7E61B6803934A465146184618F045
:10405800BEF960B9039B1846FCF7FCFE584538BF0B
:1040680058461FFA80FB002E08BFB84601360137B4
:104078009DE70121204612F05DF8DFE7002111F0ED
:1040880097FC2021204600F033FDA068012111F0A3
:104098008FFCD3E70490D1D90A9A30AB03EB8202A4
:1040A800C14652F8543C0393184611F05CFCA268D0
:1040B800049B0590A2F840300496A268494618323D
:1040C800284600F027FB039BD0F800A009F101095E
:1040D8004BB1BAF1000F06D0059A1946504618F0B0
:1040E80076F90028E9D1A168BAF1000F4ED1A1F8FC
:1040F80040A0049B013B0493DFD16069FFF754FCA7
:10410800204600F02DFD0A9B30AA02EB830308F13C
:10411800010A53F8540C11F026FC414611AA8146B5
:10412800284600F0F7FA0746A0683968FF2200F52C
:10413800AB7018F05EF93B6803934FF6FF77B8460B
:1041480016AA514628460AF1010B00F0E3FA0028A6
:1041580052D0A168036801F25511002211F801EF4D
:10416800985C704503D110B101324245F6D1B9F1DE
:10417800000F01D04A4507DBBA4206F1FF36A8BF57
:104188003A46012E97B237D0DA46D9E79A480691CF
:1041980011F0E9FB069907914A8F00EB0B07BFB2B4
:1041A800121A504692FBF7F292B2069211F0DBFB1C
:1041B8000799069A3F1AB1F8400000F1010CA1F8DE
:1041C80040C0B0FBF2F102FB110080B2BFB260B98F
:1041D800894B8A4ACDF800A00621204612F0CAF879
:1041E8003946204600F020FB83E7854A53460621DE
:1041F800204612F0BFF8F3E7002F3FF41FAF0399F2
:10420800A7EB090292B24944204612F0FAF815E7E2
:10421800D0F874329E077FF511AF012111F0BEFB73
:10422800204612F00FF909E7D0F874329D077FF5A0
:1042380005AF012111F0B2FBA368D3F87432180757
:10424800EED4204612F0DFF8F8E6204611F0E9FF38
:10425800F4E6204611F0DCFF204611F020FF10B9EB
:104268006069FFF7A1FBA068012111F097FB2046C8
:10427800FFF75AFDE2E6204611F0DCFFDEE62046B5
:1042880011F0E3FFDAE6D2F874329F0603D55D49F0
:10429800606911F05BFBA368D3F874329E0603D5FE
:1042A8005949606911F052FB204600F059FCC5E6F7
:1042B80000212046FFF77EFBC0E60121F9E72046F2
:1042C80011F09FFF204611F000FB0121A06811F0BA
:1042D80065FBA368D3F874329D067FF5AFAE4B49F2
:1042E800606911F033FBA9E6204600F02DFBA068B9
:1042F800012111F053FBA1E65B2B01D1022307E654
:10430800D0F87422900706D5622B08D14FF0FF3100
:10431800204611F038FFA36800225A758EE6662BF6
:10432800F9D10121F4E700224275A268D2F874128B
:1043380089077FF52FAD313B1B2B3FF67FAE01A1DF
:1043480051F823F0C9430000D5430000E9430000B9
:10435800BD430000454000004540000045400000C6
:104368004540000045400000454000004540000031
:104378004540000045400000454000004540000021
:1043880045400000C3420000B94200007F420000DF
:104398005342000045400000C14300004540000072
:1043A800CD43000045400000454000004540000066
:1043B800D943000003235375204611F029FF3DE639
:1043C80003235375204611F01CFF37E6032353756A
:1043D800A068D0F8741201F0010181F0010156E6DD
:1043E80003235375A368D3F874329B077FF526AE71
:1043F80027E700238CE500BFA8DB0100A8E5010042
:1044080068E10100D1C90100D6C90100CCC9010089
:104418002DE9F04104468068154600F51E70002914
:1044280037D04FF4804111F05BFAA368DD6460680F
:10443800036800219B689847002851D1204611F055
:10444800EDFA00284CD1274E274FDFF8A080A0684E
:1044580000F52F704FF0FF324FF0FF3303210FF0BC
:10446800B7FF0546A068CDB140F26762002300F5AA
:10447800437011F053FA98BB20462B461C4A012181
:1044880011F078FFA068BDE8F04100F5437011F025
:104498009EBA6FF4804111F032FAC6E74FF0FF334D
:1044A8004FF0FF3200F5437011F038FA324602211E
:1044B800204611F035FA3A462946204611F030FADE
:1044C80020464246012111F02BFA606803685B69B7
:1044D80003B19847A06800F5437011F078FAB6E781
:1044E800BDE8F0815D3900007D3D0000DB59010029
:1044F800AEE5010010B50B49044611F019FB204642
:10450800094911F015FB2046084911F011FB204616
:10451800074911F00DFB2046064A002100F03EFB3A
:10452800002010BDC5E5010003E6010062E60100B8
:10453800B6E6010050E70100F8B517461E460A46E0
:104548002949044611F0F4FA3EB33A78274920463F
:1045580011F0EEFA01256A0703D12549204611F02A
:10456800E7FAAE421ED97A5D2049204611F0E0FAFA
:104578000135102DEFD11F49204611F0D9FAB6B9EF
:104588001B49204611F0D4FA0125AE422B4610D81B
:104598001749204611F0CCFA15E01749204611F0CA
:1045A800C7FA01251449204611F0C2FAE0E70025B0
:1045B8002B46FA5C1149A2F120035F2B28BF2E225B
:1045C800204611F0B5FA0135102D06D06B07DCD165
:1045D8000749204611F0ACFAD7E720460849BDE85C
:1045E800F84011F0A5BA00BF66E70100A1DB0100A1
:1045F800A9DB0100ABDB0100A7DB01008DE70100AF
:104608006DE701002DE9F043044680688846D0F83C
:10461800201389B015461F46002960D14FF44A720D
:1046280017F09BFEE06812F08AFAA06800F5437064
:1046380017F074F94FF42F794FF41F76A0683044BF
:1046480017F037FEA068002283190121484410366C
:1046580017F001FEB6F52F7F09F11409EED1A36911
:1046680000261E60A068022100F51E7011F038F9BE
:10467800A36850225A87A36818221A8721682046FF
:1046880011F080FAA368174A66F38205C3F87452DA
:104698006068036841461D682346A8470546D0B9A7
:1046A800A36801221A75D4E90A0100220023CDE982
:1046B80006230E230393109B0495CDE90173009400
:1046C800094B4FF400620EF057FFA368C3F82003AC
:1046D800616A0EF083FE284609B0BDE8F0836FF0EA
:1046E8007705F8E77B5901001944000010B5044626
:1046F80013460A460146064801F004FB23691B7964
:1047080023B12046BDE8104011F08EBA10BD00BF9D
:10471800495C010038B50B46154648B91449154A95
:10472800521AB3EB920F05D251F82350284638BDE0
:1047380084680CB90025F9E70F4A94420AD30F4A56
:10474800944207D218462268294690472B68002BC6
:10475800ECD1EFE70A4A944202D30A4A944205D3BD
:10476800246814225343E518E358F0E70133F8E7C7
:1047780088C80100B4C80100CCC90100CCC9010037
:10478800B4C80100CCC90100F7B503782D2B044645
:10479800164605D16FF015033360002003B0F0BD55
:1047A80017F0B8FE0B4F00230546C3510A462046B2
:1047B80001A90FF0FFFEEB59222B02D16FF0210364
:1047C800EAE7002BE6D1019BA342E3D01B78002B3C
:1047D800E4D0DFE70C0000008368D3F874329B064E
:1047E80003D50249406911F03BBC7047DCC90100A0
:1047F800014911F035BC00BF3FDF01000A1E0DDC86
:104808000ED042238168D1F87412890608D5002A8F
:1048180004494069B8BF524211F022BC4123F1E774
:10482800704700BF89E701000A1E0DDC0ED0442343
:104838008168D1F87412890608D5002A04494069AC
:10484800B8BF524211F00CBC4323F1E7704700BFD8
:1048580089E701002DE9F0478568DFF8689004468C
:1048680005F15600FCF7F6FA002395F83C7086B27D
:104878009846A268558FED1BB54209DB002E1FDD57
:10488800563360691049BDE8F0471A4411F0E8BB97
:104898001D442A44563392F856A082F85680A268DE
:1048A80060691A44494611F0DBFBA3682B4483F87E
:1048B80056A0A3685B8FDB1BF61A00272B46D8E7A8
:1048C800BDE8F0871EDE010068E1010008290A46FC
:1048D80017D8836893F83E10914212D083F83E208F
:1048E8008368082AD3F8743205D0990609D5054992
:1048F800406911F0B5BB9B0603D50349406911F027
:10490800AFBB704790E70100E1C9010038B50D461B
:1049180009780446FFF7DAFF6A78072A11D8A368EE
:1049280093F83F1091420CD083F83F20A368D3F846
:1049380074329B0605D560690249BDE8384011F01C
:104948008FBB38BD99E70100F8B58368B3F85020EC
:104958000446002A55D0B3F85210002951D05531D9
:1049680003F156050B441846A84206D3014611F830
:104978000169202E3CD0A8423CD286B29DB2AB1B26
:104988009BB2591C471CD21A0144384617F0CBFC7D
:10499800A268B2F85030711B13FA81F3A2F85030B4
:1049A800A368B3F850201344002283F8562009B2B4
:1049B800204611F0BFFBA368D3F874329A0603D5DA
:1049C8001049606911F04CFB3B460F4A082120460C
:1049D80011F0D0FC2046FFF7FFFEA368D3F874322D
:1049E8009B060ED560690949BDE8F84011F038BB4F
:1049F8000846B9E7014611F80169202EBDD00846DE
:104A0800B9E7F8BDE6C9010068E10100EAC901009B
:104A18002DE9F84F04460F4690460AB1FFF7DCFE31
:104A2800A668D6F87432B6F852505B0724D505F15B
:104A380056003044FCF70EFA2A4E0546B5B9A3686D
:104A4800B3F85020A3F85220A06811F016FB30B13B
:104A5800B8F1000F00D017B16069FFF7C9FE7942BD
:104A6800204609B2BDE8F84F11F064BB60693146D1
:104A780011F0F6FA013DE1E73046FCF7EBF9B6F83C
:104A88005090738F19FA80F915FA80F0B0FBF3F2A1
:104A9800B9FBF3F39A42AA461BD0134DA3684845C5
:104AA800CDDA5A8FB0FBF2F302FB1303461C13B99D
:104AB8006069FFF79DFEA3685344204693F856307B
:104AC8000AF1010B2A46082111F054FCDA46304657
:104AD800E4E75635054A73190821204611F04AFCC7
:104AE800ADE700BF6EF101008DE7010068E101004C
:104AF80013B583688DF80710D3F874220446D007DD
:104B080025D5B3F85210B3F850208A421FD0481C5C
:104B1800A3F852000B449DF8072083F85620A36899
:104B2800D3F87412890710D5D3F8743260690B4929
:104B380013F0040F18BF2A2211F092FA204611F040
:104B4800AEFA10B16069FFF753FE02B010BD012242
:104B58000DF10701204611F01AFCF6E78DE7010078
:104B680010B504468368094A022111F003FCA368C2
:104B7800D3F874329B0707D52046FFF76BFE204613
:104B8800BDE8104011F0B1BA10BD00BF68E10100E6
:104B9800014911F0F1BD00BF3FDF01002DE9F04FE1
:104BA8000E46002189B0044617460D4603AA304632
:104BB80001F10108FFF7AEFDB0B995B127B13A464A
:104BC8000821204611F0D6FB1E4FDFF87C90DFF855
:104BD8007CA0002103AA304601F10108FFF79AFDE5
:104BE80060B909B0BDE8F08F006810B1FCF732F980
:104BF80080B2854238BF05464146D7E703688BB186
:104C08001A787AB1D0F804B04A46CDE900530821A1
:104C18003B46204611F0AEFBBBF1000F04D16069A2
:104C2800FFF7B6FF4146D5E7524620463B460821E6
:104C380011F0A0FBAA1D92B25946204611F0A9FD19
:104C4800F0E700BFB7E70100A2E701009CDB010025
:104C5800F7B50F6805460E46A7B13846FCF7FAF8CF
:104C680084B2094B00932846084A3B46082111F0B4
:104C780081FBE21C716892B2284603B0BDE8F0409F
:104C880011F087BD3C46ECE7B3E70100A9E5010058
:104C980010B507490446FCF7CBF838B1054920465A
:104CA800FCF7C6F8B0FA80F0400910BD0120FCE717
:104CB800A9E70100ACE7010010B58368D3F87432A6
:104CC8009B06044603D50649406911F0D9FDA3683F
:104CD80050225A87A36818221A87002010BD00BFE7
:104CE800EEC9010008B5836902491A6810F020FF6F
:104CF800002008BDBAE701002DE9F3410D490E4C2B
:104D08000E4EDFF83C80054610F012FF0022B44238
:104D180002F1010703D3002002B0BDE8F081636A05
:104D28000093A36892B24146284610F001FF303440
:104D38003A46ECE7CAE7010058C8010088C80100F4
:104D4800E2E7010008B5024910F01CFF002008BD89
:104D580040DF010073B50E4E04460025A268E068E6
:104D68000DF1060302F5AB72012111F039FEBDF811
:104D78000600A36840B12A4603F5AB7331462046C6
:104D880010F0D6FE0135E9E783F8560102B070BD90
:104D9800F3E7010010B5044610F038FF0349024656
:104DA800204610F0C5FE002010BD00BFEFE2010054
:104DB800022907B50BD15368009312680B4B0C49B5
:104DC80010F0D2FE6FF0150003B05DF804FB8368A5
:104DD800084AD3F87432084913F0020F074B18BF7A
:104DE8001A4610F0A5FE0020EEE700BF01E801001A
:104DF80016E80100FDE701001FE801004CDD010095
:104E080010B58368D3F874329A06044603D5074967
:104E1800406911F035FDA368D3F874329B0603D5B9
:104E28000349606911F02CFD002010BDF5C901008F
:104E3800FAC90100F0B5012985B004460AD05368C3
:104E4800009312685D4B5E4910F08EFE6FF01500FE
:104E580005B0F0BD8368D3F87432990603D5594973
:104E6800406911F00DFD6FF0F9012046FFF7C6FC0F
:104E7800FA212046FFF7D8FCA06800254FF480727D
:104E8800294600F5AB708DF80B5017F066FA4E49BD
:104E9800606911F0F5FC606910F0C6FE4FF47A768F
:104EA8006068036801221F690DF10B0103ABB84765
:104EB800039BEBB9013E4FF47A70B6B20DF004FCD7
:104EC800002EEDD1A368D3F874329B0603D53F4971
:104ED800606911F0D5FCA3683D4950225A87A36840
:104EE800182220461A8710F031FE6FF00700AFE74E
:104EF8009DF80B20A3681B2A53D093F856111B2941
:104F0800CED1522A4DD15A19002382F85631A668BB
:104F180096F857215B2A2BD106F25710022510F874
:104F2800011F2A463B2905F10105ADB223D1FF2A0D
:104F3800C8D002F5AB7216FA82F1002211F8010FFF
:104F480018BB86F85601FA2AA16828BFFA224A87B0
:104F5800FA2BA26828BFFA231387A368D3F8743200
:104F68009A0603D51949606911F08AFC00206FE799
:104F780086F85631A6E703EB8303303901EB43018A
:104F8800B5F5807F8BB2CAD19CE7013502EB82026E
:104F9800ADB2303800EB4200B5F5807F82B2CDD19A
:104FA80090E72B440135ADB2092D83F856217FF6E1
:104FB80077AFA368002283F8562183E701E8010050
:104FC80016E8010000CA01006AE8010004CA0100ED
:104FD80030E801002DE9F04F074689B015468946AB
:104FE80021B1104611F0B1FD00285BD1032455E032
:104FF8005C463CE029460AF5AB7017F016FA0646FF
:10500800002854D0FBF726FF82B2601C01323146DB
:10501800304417F088F922465946304617F075F99A
:105028004FF020033355BAF8543001331C44AAF822
:10503800544008F10108002401994B1C03AA484672
:105048000193FFF767FB0646E8B13168002228465E
:1050580011F03AFF0028EFD1D6F800B0D7F808A031
:10506800BBF1000FC4D05846FBF7F4FE84B2BAF87F
:1050780054302344FF2BBDDD0E4A2B46032138460E
:1050880011F078F90124B8F1000F07D0B8682A4662
:1050980000F1540100F5AB7010F0F6FE204609B09F
:1050A800BDE8F08F4FF0000841460224C5E702240E
:1050B800E9E700BF32ED010038B50C46154611F09E
:1050C80089FD034B43F8305003EBC0035C6038BDE7
:1050D8002C0E00202DE9F843054600AF0C460029A8
:1050E80048D0DFF8B890D9F800305A0742D06E4659
:1050F8008AB0D1E90001A3686A46DFF8A4C04FF07E
:105108000508C2E905C0C2E9071342F8108F002359
:105118004FF421514846FDF7EDF9D9F800305B0707
:10512800B54627D08AB0D4E9030163696A46DFF837
:1051380074C0C2E90713C2E905C042F8108F002302
:1051480048464FF42151FDF7D5F9D9F800305807F2
:10515800B5460FD0E3690121134A484610F0B3FA67
:10516800D9F80030590705D0A369104A01214846EB
:1051780010F0A9FA012D0AD1EFF305830748026858
:10518800520704D00A4A103B294610F09CFA2146DF
:1051980028460DF0D5FABD46BDE8F883301000204A
:1051A80084ED0100B3ED0100E2ED0100F1ED010035
:1051B8001FEE010030BFFFF7FDBF00BF2DE9F04132
:1051C8000B4EDFF8308006EB0807CC1B054632464D
:1051D8000949204617F099F8A01942460021083CD1
:1051E80017F0BBF8C5F8A84007F10800BDE8F08142
:1051F8000000000008000000CCC90100054B9A69B6
:105208009B689A421FBF044A536843F08053536017
:10521800704700BFC833002000ED00E0F8B5374CF8
:1052280023685B0706460D4603D03549204611F032
:10523800DDFC344B9B6ADF0451D52368580703D043
:1052480031492E4811F0D2FC17202E4B9B6A1905C4
:1052580007D523685A0703D02C49284811F0C6FC03
:105268001820284FBB6A9B0519D52368580703D017
:105278002749224811F0BAFCBB6BBA6A11040DD554
:105288002268520704D0234A1C48012110F01BFA57
:1052980026B11C4A936A23F4004393621920194BE0
:1052A8009B6A5B0507D523685F0703D01A49134833
:1052B80011F09CFC1A20134B9A6AD60511D5236865
:1052C800590703D015490D4811F090FC1B200D4AD1
:1052D800936A43F47F43936200232B70F8BD162032
:1052E800B3E79B6A9A04F2D523685B0703D00C499D
:1052F800024811F07BFC1C20E9E700BF30100020B9
:1053080032EE010000ED00E048EE010059EE010028
:105318006CEE010085EE01009AEE0100B5EE010089
:10532800CDEE010010B52D4C23685A0703D02C4947
:10533800204611F05BFC2B4B9B6A9B014BD52368E5
:10534800580703D02849254811F050FC1E20254B4A
:105358009B6AD90107D523685A0703D023491F48F8
:1053680011F044FC1F201F4B9B6A1B0307D52368C1
:10537800580703D01E49194811F038FC2120194B51
:105388009B6A590307D523685A0703D0194913485C
:1053980011F02CFC2220134B9B6A9B0307D5236832
:1053A800590703D014490D4811F020FC23200D4B58
:1053B8009B6ADA0307D523685B0703D00F490748C0
:1053C80011F014FC2420074A936A6FEA03436FEA3A
:1053D8001343936210BD1D20B9E700BF30100020B1
:1053E800FCEE010000ED00E014EF010027EF0100E2
:1053F80041EF01005FEF010084EF01009EEF010023
:105408002DE9F047454D2B688946590780461746D0
:1054180003D04349284611F0E9FB424B9B6ADA0660
:1054280039D52B685B0703D03F493C4811F0DEFBB8
:1054380011243C4B9B6A1E0707D52B68580703D0DD
:105448003A49364811F0D2FB1224DFF8D8A0DAF82E
:105458002830990721D52B685A0703D034492F489B
:1054680011F0C4FBDAF83460DAF828301B0651D59D
:105478002B685C0705D02F4A28483346012110F0D5
:1054880022F9B9F1000F04D0264A936A23F0800369
:105498009362132403E01024CBE76FF01506214B29
:1054A8009B6AD80707D52B68590703D022491B48A0
:1054B80011F09CFB14241B4B9B6A9A0607D52B689A
:1054C8005B0703D01D49154811F090FB1524154BB7
:1054D8009A6AD50602D49A6A90070AD55B681905B4
:1054E80007D54146304600F02BFA10B180F3098801
:1054F80002240C4B9A6A920642BF5A6A22F400525E
:105508005A629A6A42F0FF029A6200233B70204670
:10551800BDE8F0876FF01506BBE700BF301000202C
:10552800C9EF010000ED00E0DFEF010059EE0100D6
:1055380012F001002AF0010040F00100CDEE010058
:105548002DE9F041744B8AB0D3F8048000AF0446CB
:10555800C8F30806002585F31188BFF36F8F02F0A2
:105568007F43B3F17F4F0AD102F00C03082B15D10A
:105578006A480368590702D0694911F037FB0025CA
:105588002C460023FB71F31E092B00F29F80DFE8F5
:1055980003F00A91948D9D9D9D9D9D9712074CBF88
:1055A8000C460125EDE75D4E33685B0703D05D4986
:1055B800304611F01BFB0023FB71574BDA6A90074A
:1055C80008D53368590703D05749544811F00EFBE2
:1055D80000233CE0DA6A002A04DA33685A07F7D075
:1055E8005249F2E7DB6A5B00F2D53368580703D00B
:1055F8004F494A4811F0FAFA474BA1695A6942F4EF
:1056080080725A61BFF34F8FBFF36F8F5A6931F8B9
:10561800021C22F480725A61BFF34F8FBFF36F8F61
:105628004DF60272914208D09A6AD2B28AB3FA1D34
:1056380001212046FFF7E4FE3AE03368590705D018
:1056480023683C4A3548012110F03DF82368FA796F
:10565800DAB907F1080604F1200C206861683246BF
:1056680003C2083464451646F7D17A6A002D4DD036
:10567800C2F3080121B96FEA52226FEA42227A6224
:1056880007F108011846FFF725FD2837BD46BDE894
:10569800F0819A6A12F47F4F04D0F91D0120FFF7B8
:1056A800BDFD05E09B6AB3F5803F91D3FFF73AFE55
:1056B8000346CCE7FA1D0021BBE7F91D0020EEE701
:1056C800164803685A0783D01B497FE713480368C5
:1056D8005B073FF47DAF194A194B18F4F87FE84689
:1056E8008AB018BF13466A461649C2E905134FF433
:1056F80000731384103E144BD66142F8103F002308
:105708004FF41151FCF7F6FEC54661E722F4FF722B
:1057180022F00102B3E700BF00ED00E030100020E6
:105728008DF00100B8F00100CFF00100F0F00100A9
:10573800FEF001001DF1010039F1010074F00100D3
:105748005FF001005DF1010004000001044B5A699B
:1057580042F010025A615A6922F008025A617047F1
:1057680000ED00E0EFF30880EFF3098101B5724620
:10577800FFF7E6FE01BD00BF0E4880F30888202031
:1057880080F311880C484FF0AA014FF4046216F018
:1057980035F809484FF40461401880F30988EFF39D
:1057A80014800221084380F31488BFF36F8F00F040
:1057B8008FF80000405C0020804A0020084B9B685E
:1057C80083420BD1EFF3058343B1064B5A6842F08D
:1057D80080525A605A6A22F400425A620EF02EBA77
:1057E800C833002000ED00E015498A684FF030000A
:1057F8001044EFF3098C80E8F01F202080F3128812
:10580800BFF36F8F0F4F4FF000668A698A603E6062
:10581800D2F8A8000C4C2060D2F8AC000023C2F8E3
:10582800AC3080F3118804B5104600F0FBF8BDE8F1
:10583800044002F1300090E8F01F8CF309887047AB
:10584800C833002004ED00E0342900201EF0040FC6
:105858000CBFEFF30880EFF30980816911F8021C8F
:105868000229FFD001B5724611F0B5F901BD00BF9C
:105878000028ACBF00F16040064B4FEA4111ACBFB5
:1058880000F5614000F00F00C9B2B4BF195480F8A8
:105898000013704714ED00E040B2002807DB044A0B
:1058A8004109012300F01F00834042F8213070476E
:1058B80000E100E0044B054A23F07F039360BFF347
:1058C8004F8FBFF36F8F70470000000000ED00E0BE
:1058D80008B5FFF7EFFF0B4AD2F8883023F47003BE
:1058E800C2F88830EFF3148323F0040383F3148899
:1058F800BFF36F8F0DF026F80EF034FB00F05EF862
:105908000DF076F800ED00E042F8203C009B42F8EC
:105918001C3C0A49019B42F8183C029B42F8143C83
:1059280021F001014FF0807342F8043C42F8081C52
:105938000023203A0265C0F8AC307047E11B000034
:105948000A4A0346906878B113F1160FD0F8980008
:1059580005D0A0F140029A4205D8834203D2814281
:1059680028BF002070470020704700BFC8330020C0
:1059780008B515460A4A0B4B9060D0F8A8201A6063
:105988000E4600F04FF82C4686F309880020064B97
:1059980098472046002100220023044C204700BFDE
:1059A800C833002034290020276C0100E11B0000C7
:1059B800014B10221A61704700ED00E004480023F3
:1059C8002021C2180133262B82F80013F9D1704721
:1059D80000E100E008B572B60A4B5A691AB1002214
:1059E8005A61FDF765F862B6EFF30583064A103B86
:1059F80002EBC30152F8330049688847BDE8084004
:105A0800FFF7FCBBC83300202C0E0020024B034AD2
:105A18000348012100F092B8004002200000002055
:105A280098CE0100D0F89820054B403A1A60054AF4
:105A38004021C3E901121846012100F089B800BFCE
:105A48003829002000000B1508B503461148D0F886
:105A58009020C2F30722013A93420AD90E480268FD
:105A6800520703D00D4A01210FF02DFE6FF01500EB
:105A780008BDC0F898300A6822F01F021A4342F0A5
:105A88001002C0F89C208A6842F00102C0F8A020E9
:105A98001846EDE700ED00E0C40F002074F10100A6
:105AA800F0B50E4685B01F4604460025B54210DA0B
:105AB800606828B3AFB1431E18420DD0124803687E
:105AC8005B0704D0114A2B4601210FF0FCFD6FF053
