:1000000080200020012A00001F6A0000ED29000066
:10001000ED290000ED290000ED290000000000009E
:10002000000000000000000000000000D52A0000D1
:10003000ED29000000000000712A0000ED290000F9
:100040005D2C00005D2C00005D2C00005D2C00008C
:100050005D2C00005D2C00005D2C00005D2C00007C
:100060005D2C00005D2C00005D2C00005D2C00006C
:100070005D2C00005D2C00005D2C00005D2C00005C
:100080005D2C00005D2C00005D2C00005D2C00004C
:100090005D2C00005D2C00005D2C00005D2C00003C
:1000A0005D2C00005D2C00005D2C00005D2C00002C
:1000B0005D2C00005D2C00005D2C00005D2C00001C
:1000C0005D2C00005D2C00005D2C00005D2C00000C
:0800D0005D2C00005D2C000016
:1000D8007BB972B90029BEBF00204FF0004106E08D
:1000E80008BF00281CBF6FF000414FF0FF3000F040
:1000F80057B8ADF1080C6DE904CE002909DB002BD7
:100108001ADB00F069F8DDF804E0DDE9022304B049
:100118007047404261EB4101002B1BDB00F05CF8AB
:10012800DDF804E0DDE9022304B0404261EB41015F
:10013800524263EB43037047524263EB430300F0C0
:100148004BF8DDF804E0DDE9022304B0404261EB3E
:1001580041017047524263EB430300F03DF8DDF87C
:1001680004E0DDE9022304B0524263EB4303704725
:1001780053B94AB9002908BF00281CBF4FF0FF3106
:100188004FF0FF3000F00CB8ADF1080C6DE904CE6B
:1001980000F022F8DDF804E0DDE9022304B070473E
:1001A800704700BF10F8012B11F8013B012A28BF46
:1001B8009A42F7D0D01A7047034611F8012B03F87A
:1001C800012B002AF9D17047034613F8012B002AA6
:1001D800FBD1181A013870472DE9F04786468C463E
:1001E8000846089E154674461946002B40F0C28002
:1001F8008542B2FA82F245D94AB1C2F1200300FA27
:1002080002FC2EFA03F3954043EA0C0C94404FEAA3
:10021800154EA8B2BCFBFEF8230C0EFB18CC08FB4D
:1002280000F943EA0C43994528D9EB1808F1FF3740
:1002380004D2994502D9A8F102072B44A3EB09037C
:10024800A4B2B3FBFEFC0EFB1C330CFB00F044EA2B
:100258000344A04214D92C190CF1FF3304D2A04254
:1002680002D9ACF102032C44241A43EA07401EB118
:10027800D440002334607360BDE8F0874746DDE76B
:100288006346F1E792BB431B01214FEA154EAFB21B
:10029800B3FBFEFC200C0EFB1C330CFB07F840EAFA
:1002A8000343984562D9EB180CF1FF3004D2984506
:1002B80002D9ACF102002B44A3EB0803A4B2B3FBB0
:1002C800FEFC0EFB1C330CFB07F744EA0344A74271
:1002D8004ED92C190CF1FF3304D2A74202D9ACF144
:1002E80002032C44E41B43EA0040C0E7C2F12003A8
:1002F80020FA03F1954090402EFA03F303434FEAA6
:10030800154EAFB2B1FBFEFC0EFB1C10190C0CFB1A
:1003180007F841EA0041884504FA02F422D969182D
:100328000CF1FF3004D2884502D9ACF1020029440F
:10033800A1EB08019BB2B1FBFEFC0EFB1C110CFBF0
:1003480007F743EA01439F420ED9EB180CF1FF313E
:1003580004D29F4202D9ACF102012B44DB1B41EAD3
:10036800004192E76046E3E76146F7E76046A3E7A6
:100378006346B7E7834206D916B9002108467BE7EA
:10038800C6E900E0F9E7B3FA83F78FB9834201D3EE
:10039800724508D8BEEB020460EB030301209C46BB
:1003A8001EB9002168E73846FAE7C6E9004CF8E7C5
:1003B800C7F1200CBB4022FA0CF41C432EFA0CF1B6
:1003C80020FA0CF3B84001434FEA14490EFA07F536
:1003D800B3FBF9F81FFA84FE09FB18300B0C08FB75
:1003E8000EFA43EA00439A4502FA07F240D9E318A5
:1003F80008F1FF3004D29A4502D9A8F1020023443B
:10040800A3EB0A0389B2B3FBF9F809FB183308FB1D
:100418000EFE41EA03418E452CD9611808F1FF33DD
:1004280004D28E4502D9A8F10203214443EA0040D0
:10043800A0FB0298A1EB0E014145CE46434602D3EC
:1004480006D14D4504D2B9EB020E68EB040301381E
:10045800002EA6D0B5EB0E0261EB030101FA0CFCED
:1004680022FA07F34CEA0303F940C6E9003198E79A
:100478004046C5E74346D9E72DE9F047064688B028
:100488000F46904606F05BFF4FF47A73A0FB0345D6
:1004980003FB0155E40B012F44EA45444FEAD535E7
:1004A80007D1294922462B46304605F0E0FB0020BB
:1004B80012E0D8F8047025483946FFF773FE70B18A
:1004C80023483946FFF76EFE48B1304621493A467F
:1004D80005F0E9FB6FF0040008B0BDE8F08720469E
:1004E800294617A3D3E90023FFF7F2FD05460C467A
:1004F80010461946184A0023FFF7EAFD80460F46C2
:10050800104619464EF660220023FFF7E1FD8246A9
:100518008946104619464FF47A720023FFF7D8FD32
:10052800CDE902A9CDE90623CDE90401CDE900878B
:100538000A492A462346304605F099FBB7E700BF2B
:10054800005C260500000000AD810000BE810000AF
:10055800C1810000CA81000080EE3600E2810000FF
:1005680008B5024805F0F6F8002008BD9C80000098
:1005780008B5024805F0EEF8002008BDB880000074
:10058800014B1B68184700BF00000020014B186092
:10059800704700BF0000002030B585B004460D4606
:1005A80010220021684607F05EF802238DF8023019
:1005B8002A46044B01932146684604F003FE05B021
:1005C80030BD00BF8905000080B505460E461746B8
:1005D800984604F07DF8034607F00EF9DFF8189006
:1005E800044649F80030424630463946A84754F890
:1005F800090002F023FA00BF08000000014B036065
:1006080000207047507B000010B5044606F0E4FC5B
:1006180003490246204605F02AFB002010BD00BF12
:100628005881000073B5134600220192044601AABE
:1006380058680A2101F0BAFB019D95B920EAE074D7
:100648004FF40046294640F2E7304FF47A7200230F
:10065800C4FB0601FFF78CFD06F0E9FD284602B051
:1006680070BD2A460249204605F01DFB019DF5E7AD
:100678008481000008B5034A034905F0F8FA002010
:1006880008BD00BF748200007B82000007B500230C
:100698000090694604488DF8043004F075F99DF817
:1006A800040003B05DF804FB9F58000010B5044631
:1006B80003F03EF807490246204605F0D8FA2046DE
:1006C800054905F0D4FA0548214604F077F90020D9
:1006D80010BD00BFBD820000DC820000E9060000FA
:1006E80070B58EB004460D46D0F89C6006F0F3FC59
:1006F800034607F081F8214A21491058214A002B66
:1007080018BF1A460092204A2346844218BF0A4658
:1007180028461E4905F0ABFAD4E90A23CDE900239F
:10072800284694F90E30227B194905F0A0FA06A94B
:100738002022204603F0B4FB636E16490246284681
:1007480005F095FA05A9204606F0D3FC024628B123
:100758001149284605F08BFA0EB070BD059B64223E
:10076800F11A4A430091B2FBF6F20C49CDE9016255
:100778002846324605F07BFAEEE700BF0800000085
:10078800A28B0000E6820000BD920000E982000012
:10079800F582000021830000388300006583000093
:1007A800F0B5002591B00446294608AF1C2209A8D7
:1007B80006F059FF134E1A222021384606F053FF3F
:1007C8002146114804F0FAF807AA4FF400613046B0
:1007D80006F083FC079A0097C2F5006164234B4337
:1007E800DB0A05934FF40063CDE90313CDE9013229
:1007F800204606492B46A6F1400205F038FA28465D
:1008080011B0F0BD0013002019080000B6830000E5
:1008180070B50446D0F89C6088B00D4607A906F06C
:1008280068FC024628B10F49284605F020FA08B0AE
:1008380070BD204606F04FFC079B0096F11ACDE9E3
:100848000131094B64224A43002818BF0346B2FB12
:10085800F6F20649CDE903622846224605F007FA72
:10086800E5E700BF38830000E6820000FF83000050
:1008780038B51346054610225868002104F03CFCA0
:100888000446FFF703FF38B90E492246284605F00B
:100898000AFA6FF0150038BD06F0AEFF0A4B1B5878
:1008A8009C4204D10949284605F0FDF9F1E72046A4
:1008B80003F0BCFC28460649224605F0D8F900207A
:1008C800E9E700BF63840000080000007E840000A0
:1008D800A684000038B51346054610225868002142
:1008E80004F00AFC0446FFF7D1FE38B90E49224647
:1008F800284605F0D8F96FF0150038BD06F07CFFE2
:100908000A4B1B589C4204D10949284605F0CBF9EB
:10091800F1E7204603F0B2FD28460649224605F0D5
:10092800A6F90020E9E700BF638400000800000082
:10093800E58400000B85000038B5134605461022F3
:100948005868002104F0D8FB0446FFF79FFE38B929
:100958000E492246284605F0A6F96FF0150038BD65
:1009680006F04AFF0A4B1B589C4204D10949284605
:1009780005F099F9F1E7204602F060F828460649A3
:10098800224605F074F90020E9E700BF63840000FF
:1009980008000000468500006B8500002DE9F04F37
:1009A80087B00446684603F007F8009F284ADFF836
:1009B800A4A0DFF8A4B0242303FB00770821204675
:1009C80005F048F9009DBD4203D3002007B0BDE8FB
:1009D800F08F2B680BB11A7832B92B461F4A1421B5
:1009E80001A804F05DFB01AB52460821204605F042
:1009F80031F9284606F003FB194B1A4A002808BFAC
:100A08005B460821204605F025F92B6AA3B11E682C
:100A180096B1336883B1144A0821204605F01AF9C3
:100A2800B1464FF000083368104A434506D8104ACB
:100A38000821204605F00EF92435C4E759F8043F8B
:100A48000821204605F006F908F10108EBE700BF88
:100A5800B2850000C1850000A9850000BC850000A2
:100A6800A38500002A8C0000C6850000C28500000E
:100A78009A8300002DE9F041144688460746102263
:100A88006068002104F038FBB8F1020F064607D869
:100A9800254A20230821384605F0DCF8336816E09B
:100AA8000A220021A06804F027FBC5B21E4A2B4683
:100AB8000821384605F0CEF8B8F1030F1AD1102DE9
:100AC8000CD0202DEAD0082D0BD13378DBB2174A91
:100AD8000821384605F0BEF8002009E033889BB2AB
:100AE800F5E73846124A082105F0B4F86FF015000A
:100AF800BDE8F081E0681022002104F0FDFA0D4AFB
:100B0800034604460821384605F0A4F8102D06D0FF
:100B1800202D07D0082DE4D1E4B23470DCE7A4B26C
:100B28003480D9E73460D7E70786000032860000B2
:100B38001C860000438600002DE9F04F87B0002393
:100B48000193524BDFF848A1914601220746884697
:100B58001A6002F02BFA4FF0FF3520262C46494642
:100B68005246404602F046FA411C06D16A1C41D161
:100B78004849384605F097F817E073281AD07728BF
:100B880028D0612811D1DFF810B101AADBF80000E4
:100B9800102101F00BF9019B0546002BDFD0DBF893
:100BA80000203E49384605F07EF86FF0150007B082
:100BB800BDE8F08FDFF8E0B001AADBF80000002103
:100BC80001F0F4F8019B0446002BC8D0DBF80020A4
:100BD8003349E7E7DFF8C0B001AADBF800000021DD
:100BE80001F0E4F8019B0646002BB8D0DBF80020A2
:100BF8002C49D7E7631C01D12B49BAE75FFA86F87D
:100C0800C6F3C406002C3FD002AB29461A46A6EB11
:100C1800050C0CE0B8F1100F1DD0B8F1200F20D052
:100C2800B8F1080F2AD10878187031443344A64225
:100C380003D80CEB01001028ECD9102CA14628BFD2
:100C48004FF0100929464B46384600F087FF10350B
:100C5800A4EB0904D6E7088880B21870000A587017
:100C6800E3E7086818704FEA102E83F801E04FEAAE
:100C7800104E000E83F802E0D870D6E70B4A082120
:100C8800384604F0E7FF90E7204690E76000002030
:100C98009186000098860000D4090020578600003D
:100CA8006A8600007D860000B58600001C8600006C
:100CB80070B50F4E044633780D4671B123B1BDE8C7
:100CC80070400C4904F0EFBF012333700A492046F5
:100CD80004F0CDFF0123337004E083F00103337087
:100CE800002BF3D129462046BDE8704005F01FB817
:100CF800280A0020CF8600000A87000070B5044645
:100D08003B480378182B02D10B78112B31D0013ACC
:100D18000B468D18AB4225D18B5C0A780370A2F183
:100D28003003092B334C04D922F02003413B052B17
:100D380004D823683049CA54013323602368022B3E
:100D480033D110222C48002104F0D6F92B4A13681D
:100D580003F8010B13602A4A136801331360002358
:100D6800236022E013F8016B182ED3D11E78112EC0
:100D7800D0D1234D23492A68204604F078FF204625
:100D88000021FFF795FF204B187870B91F4A2B6890
:100D98001168042B0ADC08B111602B6013F0030101
:100DA8000BD1126813681BBA136070BD086800BACB
:100DB80041F8040B043B0120EBE75B4203F003031B
:100DC80058BF5942022904D1126813885BBA9BB2F2
:100DD800EAE70329E9D1106802681104C2F307435E
:100DE80001F47F010B4302F47F4213430360DCE705
:100DF800290A0020780600202B0A002084060020FB
:100E08007C060020348700002A0A00208006002083
:100E18002DE9F84F0C462B49DFF8AC80DFF8AC9091
:100E2800DFF8ACB000230B602A4988F8003006468A
:100E38000B601546012C2F4655F804AF1ED9022227
:100E48004946504606F034FC80B99AF80220003A28
:100E580018BF0122924420490222504606F028FC7D
:100E680030B9012388F80030013CE3E70022F1E7BC
:100E780049465046FFF796F9A8B9043700221146AB
:100E8800786804F039F9154B002211461860786823
:100E980004F032F9124B134918603046FFF708FF87
:100EA8000020BDE8F88F9AF800202D2AE6D19AF89C
:100EB8000120002AE2D052465946304604F0D7FEB7
:100EC800D2E700BF780600202A0A00204E870000DB
:100ED800548700007C06002051870000840600200B
:100EE80080060020050D000013B5094806F087F8B4
:100EF80058B1084A0649126807480024009401239B
:100F080000F092FE204602B010BD6FF01200FAE722
:100F1800AC780000F87B00006479000010B54468E4
:100F2800C4E90012A36042681346402153F8404BBD
:100F380053625163002302F13801C2E90413C2E984
:100F48000A33C2E90633082113631162C2F8B830C4
:100F5800A36823B19B6C13B1044920469847A36842
:100F68009B6A0BB120469847002010BD65590000C8
:100F780010B581680446183101F07CF9A168034A6C
:100F880020461831BDE8104001F01AB9CF8800009A
:100F980038B58368D3F87832DB0704461AD440683A
:100FA80003685B689847054620B9E06805F05AFC75
:100FB800A3681D75A3685B6C13B129462046984742
:100FC800A36806F019FC0022C3F82023034B185825
:100FD80001F034FD6FF00F05ECE700BF08000000DA
:100FE800014904F085BD00BF9A830000F7B50446A7
:100FF8008068D0F878325A070D4605D5002104F0EC
:101008009FFDE06805F000FCE368DB6873B9002D1C
:101018003BD0A66806F15607384604F076FD00284E
:1010280035D0394606F5AB70FFF7C6F8A268E06818
:101038000DF106035632294605F0E9FB58B9A068B8
:1010480000F5AB715630FFF7B7F8A068563004F0DA
:101058005CFDADF80600204605F05CF9A368D3F8FE
:1010680074329B0603D50B49606904F041FD2046A4
:1010780000F002FFA268BDF80630A2F85230A2685C
:101088002046A2F8503005F0AAF803B0F0BD86F863
:101098005601CBE7C07A00002DE9F04FA7B004460F
:1010A8005422002111A806F0DEFA0023CDE9053309
:1010B800A36820465633029305F033F9204605F01D
:1010C80077F810B96069FFF78BFFA0681422002138
:1010D800183006F0C8FA204605F010F8A168E06854
:1010E800B1F850205631002605F0C8FB204605F01F
:1010F80057FC4FF0FF37B24603960DF14408B3464C
:101108003546B146DDE90532012A6DD0132B6ED87C
:101118005FBBBBF1000F0AD0204605F062FCA26855
:101128001423563211A90DEB030004F066FEB9F141
:10113800000F0CD099F81130FE2B08D1059B26AA78
:1011480002EB830252F8542C0AB101330593A068CC
:10115800059D436A002B40F0B680CEB1C3699E421C
:101168002DD00D9600F1180524E0029A022341467D
:1011780006A804F042FE0699D8F804200292034615
:1011880031B101290AD148B16D4A204605F07BF9F1
:101198006FF00705284627B0BDE8F08F059B002BA8
:1011A80034D0D8F8000001F085F898B166B1A56888
:1011B8000D9618350CAE0FCE0FC533682B60204640
:1011C800FFF7D6FE0125E5E75E4A0121204605F036
:1011D8005AF9DDE7059BCBB1D8F80020294620460F
:1011E80001F00AFA022809D1059B132B91D9069B15
:1011F800022B8ED1544B554A0121C6E7032805D04E
:10120800059B013305934FF0010B7BE7039B33B933
:10121800D8F8001007AA484604F0E6FE054608F18B
:101228000408013F9DB3EB68BBF1000F08D0F3B190
:10123800204605F076F8204604F0D1FF444AC4E77A
:10124800ABB1A368DDF814A0AE4603F1180CBEE8F4
:101258000F00ACE80F00DEF80030CCF80030AB68C7
:101268002BB96B7CFE2B04BF2F7C07F1FF37D5F819
:1012780004C0BCF1000F08D0AE46BEE80F000CAEAB
:101288000FC6DEF8003033606646A94603E0059BCA
:1012980053B101230393069B17B9022B7FF432AF96
:1012A800059B013305932DE7A368DB6A13B1DB685F
:1012B800002BEED1274B0093274A119B0121204692
:1012C80005F0E1F8E5E790F82830A5EB0A05BBB191
:1012D80090F829104FF6FF72FF2918BF0A469D4261
:1012E80002D313449D420BD983691C4A012120462D
:1012F80005F0C9F82046FFF73BFE6FF0150549E7F2
:10130800012104F012FCA06800F5437004F031FCE0
:10131800A36811AA294602EB8A025B6A204698470D
:101328000546A0684FF0FF324FF0FF3300F54370D9
:1013380004F0C6FBA068002104F0F7FB2AE700BF11
:10134800DD880000F188000052890000DE8100007D
:101358000F8900003E890000578C00007689000044
:1013680010B5836802221A7583689B6C0446BBB962
:1013780004F07DFB8368D3F87832DB040BD50321B6
:10138800084B094A05F07FF8A0686FF4805100F512
:101398001E7004F086FB2046BDE8104000F0F2BE47
:1013A80010BD00BF91890000C38500002DE9F04FF2
:1013B80004468068B1B0012100F51E7004F062FB9C
:1013C800A3681B7D022B20D100230993A3686068C2
:1013D8009E6C03681D6909AB0EB310221BA9A847B0
:1013E800099B93B1A068012104F09FFB099A1BA9EE
:1013F8002046B047A068002104F097FBA3689B6CC7
:10140800002BE3D12046FFF7ABFFA0686FF0010186
:1014180000F51E7031B0BDE8F04F04F042BB012268
:101428000DF12301A847099B002BEED09DF923203D
:101438009DF82330A068002AC8DB427D032A00F209
:10144800F482DFE812F0040075028C02F2020D2B20
:1014580067D00A2B43D0B0F87822092B6FF3CA0261
:10146800A0F8782272D029D8002B00F00381082B2D
:10147800A06800F0E9810246D2F87412890740F1A9
:10148800F980013B162B00F2F580DFE813F0B70274
:10149800FA01FE01F601B1021002F300F300F300B5
:1014A800F30014021802F3002D02F3003202F300D5
:1014B800F300F300F3003402F30049021B2BA06889
:1014C80041D07F2B00F0CC81A3F120015E29024698
:1014D800D2D8012104F034FB9DF82310B8E0D0F8ED
:1014E8007822C2F3C7022AB1D0F87822C2F3C70221
:1014F8000A2AC0D1B0F8782263F3CA02A0F8782289
:10150800A568B5F85010C1B9284604F019FBE06881
:1015180005F07AF96069FFF763FD2046FFF720FFC1
:1015280054E7D0F87822C2F3C702002AE2D0D0F8F4
:101538007822C2F3C7020D2ADBE72046FFF7ACFD8D
:10154800C5F82403E9E70123437593E0A068D0F8C0
:1015580074329B0740F18E80012104F0F1FAA068F3
:10156800B0F85030FF2B00F08580B0F8522000F121
:10157800560100F5AB7006F04EF8A368B3F8522098
:101588001344002583F85651A2681BA9142302F5B9
:10159800AB720BA804F031FC0B9914296AD830AB54
:1015A80003EB810343F8545CA368B3F85220002A84
:1015B80052D0134493F85530202B02D0093B042B0A
:1015C8004AD800294BD100250A950A9B30AA02EB7C
:1015D8008303002653F854AC504604F096FAB346F9
:1015E8008146B046374616AA3946284600F0A4FB7D
:1015F8000346002842D1012E68D10A9B30AA02EB8B
:10160800830353F8540C04F080FAA2680646183293
:101618004146284600F090FB0568284604F075FA14
:10162800864205D0821B92B2A919204604F072FFA7
:10163800A068B0F85230034493F85630202B34D0C9
:10164800093B042B31D9D0F87432DF0732D420217A
:10165800204600F05FFD0DE00129B4D901390020D2
:101668000CAB009301900AAB1BAA04F0E8FC0546FA
:101678000028AAD1606904F060FBA7E61B68039301
:101688004A465146184606F013F860B9039B1846B7
:10169800FEF79AFD584538BF58461FFA80FB002EC2
:1016A80008BFB846013601379DE70121204604F0FE
:1016B800CAFDDFE7002104F04DFA2021204600F0A2
:1016C80029FDA068012104F045FAD3E70490D1D997
:1016D8000A9A30AB03EB8202C14652F8543C03939A
:1016E800184604F012FAA268049B0590A2F840304C
:1016F8000496A26849461832284600F01DFB039B51
:10170800D0F800A009F101094BB1BAF1000F06D0D9
:10171800059A1946504605F0CBFF0028E9D1A16883
:10172800BAF1000F4ED1A1F840A0049B013B0493ED
:10173800DFD16069FFF754FC204600F023FD0A9BC7
:1017480030AA02EB830308F1010A53F8540C04F0A1
:10175800DCF9414611AA8146284600F0EDFA074611
:10176800A0683968FF2200F5AB7005F0B3FF3B684D
:1017780003934FF6FF77B84616AA514628460AF152
:10178800010B00F0D9FA002852D0A168036801F2D1
:101798005511002211F801EF985C704503D110B182
:1017A80001324245F6D1B9F1000F01D04A4507DBB5
:1017B800BA4206F1FF36A8BF3A46012E97B237D093
:1017C800DA46D9E79A48069104F09FF906990791F5
:1017D8004A8F00EB0B07BFB2121A504692FBF7F282
:1017E80092B2069204F091F90799069A3F1AB1F855
:1017F800400000F1010CA1F840C0B0FBF2F102FB7F
:10180800110080B2BFB260B9894B8A4ACDF800A0F6
:101818000621204604F037FE3946204600F016FB24
:1018280083E7854A53460621204604F02CFEF3E759
:10183800002F3FF41FAF0399A7EB090292B2494466
:10184800204604F067FE15E7D0F874329E077FF54E
:1018580011AF012104F074F9204604F07CFE09E779
:10186800D0F874329D077FF505AF012104F068F9BF
:10187800A368D3F874321807EED4204604F04CFE5F
:10188800F8E6204604F056FDF4E6204604F049FD4B
:10189800204604F08DFC10B96069FFF7A1FBA06831
:1018A800012104F04DF92046FFF75AFDE2E62046F3
:1018B80004F049FDDEE6204604F050FDDAE6D2F8F1
:1018C80074329F0603D55D49606904F011F9A36875
:1018D800D3F874329E0603D55949606904F008F9B3
:1018E800204600F04FFCC5E600212046FFF77EFBAE
:1018F800C0E60121F9E7204604F00CFD204604F07B
:10190800B6F80121A06804F01BF9A368D3F8743273
:101918009D067FF5AFAE4B49606904F0E9F8A9E68A
:10192800204600F023FBA068012104F009F9A1E694
:101938005B2B01D1022307E6D0F87422900706D565
:10194800622B08D14FF0FF31204604F0A5FCA368B4
:1019580000225A758EE6662BF9D10121F4E70022A0
:101968004275A268D2F8741289077FF52FAD313B12
:101978001B2B3FF67FAE01A151F823F0011A00009E
:101988000D1A0000211A0000F51900007D1600004C
:101998007D1600007D1600007D1600007D160000F3
:1019A8007D1600007D1600007D1600007D160000E3
:1019B8007D1600007D1600007D160000FB18000053
:1019C800F1180000B71800008B1800007D16000001
:1019D800F91900007D160000051A00007D160000A8
:1019E8007D1600007D160000111A000003235375B0
:1019F800204604F096FC3DE603235375204604F088
:101A080089FC37E603235375A068D0F8741201F0F7
:101A1800010181F0010156E603235375A368D3F849
:101A280074329B077FF526AE27E700238CE500BFBD
:101A3800A18B0000D5890000C3850000C57A00008D
:101A4800CA7A0000C07A0000F8B5044680681546D6
:101A580000F51E70002935D04FF4804104F012F8CB
:101A6800A368DD646068036800219B6898470028C4
:101A78004AD1204604F07FF8002845D1234E244F50
:101A8800A06800F52F704FF0FF324FF0FF330321AD
:101A980003F02CF90546A068CDB140F26762002337
:101AA80000F5437004F00CF870BB20462B46194A29
:101AB800012104F0E8FCA068BDE8F84000F5437097
:101AC80004F057B86FF4804103F0EBFFC8E74FF01C
:101AD800FF334FF0FF3200F5437003F0F1FF324659
:101AE8000221204603F0EEFF20463A46294603F03D
:101AF800E9FF606803685B6903B19847A06800F56F
:101B0800437004F036F8BBE7F8BD00BF990F00003A
:101B1800B5130000DB89000010B50B49044604F03A
:101B2800A6F82046094904F0A2F82046084904F01E
:101B38009EF82046074904F09AF82046064A0021F4
:101B480000F03EFB002010BDF2890000308A000042
:101B58008F8A0000E38A00007D8B0000F8B51746E5
:101B68001E460A462949044604F081F83EB33A78ED
:101B78002749204604F07BF801256A0703D1254947
:101B8800204604F074F8AE421ED97A5D20492046FA
:101B980004F06DF80135102DEFD11F49204604F0EF
:101BA80066F8B6B91B49204604F061F80125AE4233
:101BB8002B4610D81749204604F059F815E0174964
:101BC800204604F054F801251449204604F04FF843
:101BD800E0E700252B46FA5C1149A2F120035F2BB0
:101BE80028BF2E22204604F042F80135102D06D0D9
:101BF8006B07DCD10749204604F039F8D7E72046BF
:101C08000849BDE8F84004F032B800BF938B0000E3
:101C18009A8B0000A28B0000A48B0000A08B000010
:101C2800C68B0000A68B00002DE9F04304468068AF
:101C38008846D0F8201389B015461F46002960D180
:101C48004FF44A7205F00FFDE06804F08FFEA068BB
:101C580000F5437005F032FA4FF42F794FF41F76F0
:101C6800A068304405F0A2FCA06800228319012175
:101C78004844103605F06CFCB6F52F7F09F11409BD
:101C8800EED1A36900261E60A068022100F51E702F
:101C980003F0F8FEA36850225A87A36818221A870F
:101CA8002168204604F00DF8A368174A66F38205F8
:101CB800C3F874526068036841461D682346A84704
:101CC8000546D0B9A36801221A75D4E90901002292
:101CD8000023CDE906230E230393109B0495CDE939
:101CE80001730094094B4FF4006202F097F9A3685E
:101CF800C3F82003216A02F0C3F8284609B0BDE8FA
:101D0800F0836FF07705F8E71F5B0000511A0000B9
:101D180010B5044613460A460146064801F004F980
:101D280023691B7923B12046BDE8104004F005B8AB
:101D380010BD00BF5B5D000038B50B46154648B9BD
:101D48001449154A521AB3EB920F05D251F8235091
:101D5800284638BD84680CB90025F9E70F4A944233
:101D68000AD30F4A944207D2184622682946904758
:101D78002B68002BECD1EFE70A4A944202D30A4AB7
:101D8800944205D3246814225343E518E358F0E736
:101D98000133F8E790790000BC790000C07A0000B0
:101DA800C07A0000BC790000C07A0000F7B503785B
:101DB8002D2B0446164605D16FF01503336000201D
:101DC80003B0F0BD05F018FD0B4F00230546C351C5
:101DD8000A46204601A903F08FF9EB59222B02D1BC
:101DE8006FF02103EAE7002BE6D1019BA342E3D081
:101DF8001B78002BE4D0DFE70C0000008368D3F8E1
:101E080074329B0603D50249406904F0B2B97047A1
:101E1800D07A0000014904F0ACB900BF9A830000F1
:101E28000A1E0DDC0ED042238168D1F8741289068F
:101E380008D5002A04494069B8BF524204F099B94C
:101E48004123F1E7704700BFC28B00000A1E0DDC7A
:101E58000ED044238168D1F87412890608D5002A67
:101E680004494069B8BF524204F083B94323F1E7FB
:101E7800704700BFC28B00002DE9F0478568DFF886
:101E88006890044605F15600FEF79EF9002395F880
:101E98003C7086B29846A268558FED1BB54209DBA7
:101EA800002E1FDD563360691049BDE8F0471A441B
:101EB80004F05FB91D442A44563392F856A082F8BC
:101EC8005680A26860691A44494604F052F9A3682A
:101ED8002B4483F856A0A3685B8FDB1BF61A0027F8
:101EE8002B46D8E7BDE8F087DE810000C3850000F7
:101EF80008290A4617D8836893F83E10914212D0F1
:101F080083F83E208368082AD3F8743205D09906EE
:101F180009D50549406904F02CB99B0603D5034946
:101F2800406904F026B97047C98B0000D57A0000D3
:101F380038B50D4609780446FFF7DAFF6A78072AAC
:101F480011D8A36893F83F1091420CD083F83F2032
:101F5800A368D3F874329B0605D560690249BDE8C9
:101F6800384004F006B938BDD28B0000F8B5836854
:101F7800B3F850200446002A55D0B3F8521000296F
:101F880051D0553103F156050B441846A84206D3E3
:101F9800014611F80169202E3CD0A8423CD286B2F5
:101FA8009DB2AB1B9BB2591C471CD21A0144384640
:101FB80005F03FFBA268B2F85030711B13FA81F3A9
:101FC800A2F85030A368B3F850201344002283F8D5
:101FD800562009B2204604F036F9A368D3F87432C3
:101FE8009A0603D51049606904F0C3F83B460F4AC6
:101FF8000821204604F047FA2046FFF7FFFEA368B1
:10200800D3F874329B060ED560690949BDE8F840DB
:1020180004F0AFB80846B9E7014611F80169202E67
:10202800BDD00846B9E7F8BDDA7A0000C3850000DC
:10203800DE7A00002DE9F84F04460F4690460AB1B3
:10204800FFF7DCFEA668D6F87432B6F852505B0784
:1020580024D505F156003044FEF7B6F82A4E054659
:10206800B5B9A368B3F85020A3F85220A06804F0CB
:102078008DF830B1B8F1000F00D017B16069FFF7E3
:10208800C9FE7942204609B2BDE8F84F04F0DBB832
:102098006069314604F06DF8013DE1E73046FEF72E
:1020A80093F8B6F85090738F19FA80F915FA80F002
:1020B800B0FBF3F2B9FBF3F39A42AA461BD0134DD7
:1020C800A3684845CDDA5A8FB0FBF2F302FB13033D
:1020D800461C13B96069FFF79DFEA3685344204668
:1020E80093F856300AF1010B2A46082104F0CBF97F
:1020F800DA463046E4E75635054A73190821204682
:1021080004F0C1F9ADE700BFBD920000C68B000026
:10211800C385000013B583688DF80710D3F87422BF
:102128000446D00725D5B3F85210B3F850208A4298
:102138001FD0481CA3F852000B449DF8072083F8D1
:102148005620A368D3F87412890710D5D3F87432CF
:1021580060690B4913F0040F18BF2A2204F009F82C
:10216800204604F025F810B16069FFF753FE02B06D
:1021780010BD01220DF10701204604F091F9F6E7A0
:10218800C68B000010B504468368094A022104F092
:102198007AF9A368D3F874329B0707D52046FFF76E
:1021A8006BFE2046BDE8104004F028B810BD00BF03
:1021B800C3850000014904F0F6B900BF9A83000006
:1021C8002DE9F04F0E46002189B0044617460D460A
:1021D80003AA304601F10108FFF7AEFDB0B995B189
:1021E80027B13A460821204604F04DF91E4FDFF882
:1021F8007C90DFF87CA0002103AA304601F1010899
:10220800FFF79AFD60B909B0BDE8F08F006810B11A
:10221800FDF7DAFF80B2854238BF05464146D7E769
:1022280003688BB11A787AB1D0F804B04A46CDE980
:10223800005308213B46204604F025F9BBF1000F66
:1022480004D16069FFF7B6FF4146D5E752462046FC
:102258003B46082104F017F9AA1D92B259462046B8
:1022680004F0AEF9F0E700BFF58B0000DB8B00004F
:10227800E28B0000F7B50F6805460E46A7B1384651
:10228800FDF7A2FF84B2094B00932846084A3B4653
:10229800082104F0F8F8E21C716892B2284603B0ED
:1022A800BDE8F04004F08CB93C46ECE7F18B000047
:1022B800D689000010B507490446FDF773FF38B109
:1022C80005492046FDF76EFFB0FA80F0400910BDC1
:1022D8000120FCE7E78B0000EA8B000010B583685B
:1022E800D3F874329B06044603D50649406904F0C6
:1022F800DEF9A36850225A87A36818221A8700209B
:1023080010BD00BFE27A000008B5836902491A6867
:1023180003F0ADFC002008BDF88B00002DE9F34167
:102328000D490E4C0E4EDFF83C80054603F09FFC2D
:102338000022B44202F1010703D3002002B0BDE835
:10234800F081236A0093A36892B24146284603F0BD
:102358008EFC2C343A46ECE7088C000064790000C7
:1023680090790000208C000008B5024903F0A9FC10
:10237800002008BD9B83000073B50E4E044600255F
:10238800A268E0680DF1060302F5AB72012104F0C2
:102398003EFABDF80600A36840B12A4603F5AB73C0
:1023A8003146204603F063FC0135E9E783F856011E
:1023B80002B070BD318C000010B5044603F0AFFCCC
:1023C80003490246204603F052FC002010BD00BF1E
:1023D8004A870000022907B50BD153680093126899
:1023E8000B4B0C4903F05FFC6FF0150003B05DF870
:1023F80004FB8368084AD3F87432084913F0020FC3
:10240800074B18BF1A4603F032FC0020EEE700BF66
:102418003F8C0000548C00003B8C00005D8C000059
:102428009382000010B58368D3F874329A06044684
:1024380003D50749406904F03AF9A368D3F8743220
:102448009B0603D50349606904F031F9002010BDEB
:10245800E97A0000EE7A0000F0B5012985B004465B
:102468000AD05368009312685D4B5E4903F01BFC69
:102478006FF0150005B0F0BD8368D3F87432990683
:1024880003D55949406904F012F96FF0F901204663
:10249800FFF7C6FCFA212046FFF7D8FCA068002504
:1024A8004FF48072294600F5AB708DF80B5005F09B
:1024B800DAF84E49606904F0FAF8606903F03DFC07
:1024C8004FF47A766068036801221F690DF10B01E9
:1024D80003ABB847039BEBB9013E4FF47A70B6B231
:1024E80001F04EFA002EEDD1A368D3F874329B06A2
:1024F80003D53F49606904F0DAF8A3683D495022E2
:102508005A87A368182220461A8703F0BEFB6FF08B
:102518000700AFE79DF80B20A3681B2A53D093F858
:1025280056111B29CED1522A4DD15A19002382F8AF
:102538005631A66896F857215B2A2BD106F2571018
:10254800022510F8011F2A463B2905F10105ADB205
:1025580023D1FF2AC8D002F5AB7216FA82F1002205
:1025680011F8010F18BB86F85601FA2AA16828BF8E
:10257800FA224A87FA2BA26828BFFA231387A3688E
:10258800D3F874329A0603D51949606904F08FF8B4
:1025980000206FE786F85631A6E703EB830330394E
:1025A80001EB4301B5F5807F8BB2CAD19CE70135B9
:1025B80002EB8202ADB2303800EB4200B5F5807F05
:1025C80082B2CDD190E72B440135ADB2092D83F805
:1025D80056217FF677AFA368002283F8562183E758
:1025E8003F8C0000548C0000F47A0000A88C000096
:1025F800F87A00006E8C00002DE9F04F074689B08C
:102608001546894621B1104604F0B6F900285BD179
:10261800032455E05C463CE029460AF5AB7005F01A
:1026280075F80646002854D0FDF7CEFD82B2601C2E
:1026380001323146304404F0FCFF22465946304608
:1026480004F0E9FF4FF020033355BAF85430013352
:102658001C44AAF8544008F10108002401994B1CB5
:1026680003AA48460193FFF767FB0646E8B13168BD
:102678000022284604F033FB0028EFD1D6F800B03A
:10268800D7F808A0BBF1000FC4D05846FDF79CFD51
:1026980084B2BAF854302344FF2BBDDD0E4A2B46D2
:1026A8000321384603F0EFFE0124B8F1000F07D0EC
:1026B800B8682A4600F1540100F5AB7003F06DFCD0
:1026C800204609B0BDE8F08F4FF0000841460224CB
:1026D800C5E70224E9E700BF7091000030BFFFF7AB
:1026E800FDBF00BF2DE9F0410B4EDFF8308006EB4F
:1026F8000807CC1B054632460949204604F08BFFE3
:10270800A01942460021083C04F0ADFFC5F8A840D6
:1027180007F10800BDE8F081000000000800000093
:10272800C07A0000054B5A699B689A421FBF044A49
:10273800536843F080535360704700BFEC09002092
:1027480000ED00E070B5264B15469A6A12F0100F9E
:102758009A6A14BF1124102412F0080F9A6A18BF3D
:102768001224920706460AD5586B9A6A140634D57D
:1027780019B19A6A22F080029A62132401E06FF07C
:102788001500174B9A6A12F0010F9A6A18BF1424A1
:1027980012F0200F9A6A18BF1524D20602D49B6A39
:1027A8009B070AD50E4B5B68190506D5314600F024
:1027B80007FA10B180F309880224094B9A6A920635
:1027C80042BF5A6A22F400525A629A6A42F0FF02E1
:1027D8009A6200232B70204670BD6FF01500CCE77D
:1027E80000ED00E0134B9A6A12F0007F9A6A14BF5A
:1027F8001E201D2012F0807F9A6A18BF1F2012F435
:10280800002F9A6A18BF212012F4802F9A6A18BFE5
:10281800222012F4003F9A6A18BF232012F4803F46
:102828009A6A6FEA02426FEA12429A6218BF24203B
:10283800704700BF00ED00E010B5194B0246986ADA
:102848009C6A10F4805F14BF1720162014F4006FE0
:102858009C6A18BF1820A40509D5986B986A0004CB
:1028680004D51AB19A6A22F400429A6219200C4BD4
:102878009A6A12F4806F9A6A18BF1A20D2050CD48B
:102888009B6A13F4005F18BF1C20054A936A43F43F
:102898007F43936200230B7010BD1B20F5E700BF38
:1028A80000ED00E0F0B5484B5B688BB00446C3F31D
:1028B8000803002585F31188BFF36F8F02F07F406E
:1028C800B0F17F4F11D102F00C0008280DD010078D
:1028D8004CBF0C4601250022033B8DF80720032B33
:1028E80005D8DFE803F0246367602C46F3E700238C
:1028F8009DF80720CAB902AE04F120072068616874
:10290800324603C20834BC421646F7D1099A002D54
:1029180054D0C2F3080121B96FEA52226FEA422269
:10292800099202A9184604F06CF80BB0F0BD264BCA
:10293800DA6A9107DBD4DA6A002AD8DBDA6A52004D
:10294800D5D55A69A16942F480725A61BFF34F8F95
:10295800BFF36F8F5A6931F8021C22F480725A61F2
:10296800BFF34F8FBFF36F8F4DF6027291420AD0BB
:102978009A6AD2B24AB10DF1070201212046FFF747
:10298800E1FE0346B4E72368B2E79A6A12F47F4F80
:1029980005D00DF107010120FFF74EFFF1E79B6A13
:1029A800B3F5803FA3D3FFF71DFFEAE70DF1070258
:1029B8000021E3E70DF107010020EDE722F4FF72A3
:1029C80022F00102ACE700BF00ED00E0044B5A69B9
:1029D80042F010025A615A6922F008025A6170479F
:1029E80000ED00E0EFF30880EFF3098101B57246CE
:1029F800FFF758FF01BD00BF0E4880F3088820206C
:102A080080F311880C484FF0AA014FF4046204F0D7
:102A180023FB09484FF40461401880F30988EFF359
:102A280014800221084380F31488BFF36F8F00F0ED
:102A38008FF8000080200020C0120020084B9B68FF
:102A480083420BD1EFF3058343B1064B5A6842F03A
:102A580080525A605A6A22F400425A6201F03EBE1D
:102A6800EC09002000ED00E015498A684FF03000BD
:102A78001044EFF3098C80E8F01F202080F31288BF
:102A8800BFF36F8F0F4F4FF000664A698A603E6050
:102A9800D2F8A8000C4C2060D2F8AC000023C2F891
:102AA800AC3080F3118804B5104600F0F1F8BDE8A9
:102AB800044002F1300090E8F01F8CF30988704759
:102AC800EC09002004ED00E0B40900201EF0040F1A
:102AD8000CBFEFF30880EFF30980816911F8021C3D
:102AE8000229FFD001B5724603F091FF01BD00BF76
:102AF8000028ACBF00F16040064B4FEA4111ACBF63
:102B080000F5614000F00F00C9B2B4BF195480F855
:102B18000013704714ED00E040B2002807DB044AB8
:102B28004109012300F01F00834042F8213070471B
:102B380000E100E0044B054A23F07F039360BFF3F4
:102B48004F8FBFF36F8F70470000000000ED00E06B
:102B580008B5FFF7EFFF0B4AD2F8883023F470036B
:102B6800C2F88830EFF3148323F0040383F3148846
:102B7800BFF36F8F00F0BEFF01F044FF00F05EF876
:102B880001F000F800ED00E042F8203C009B42F81C
:102B98001C3C0A49019B42F8183C029B42F8143C31
:102BA80021F001014FF0807342F8043C42F8081C00
:102BB8000023203A0265C0F8AC307047D105000008
:102BC8000A4A0346906878B113F1160FD0F89800B6
:102BD80005D0A0F140029A4205D8834203D281422F
:102BE80028BF002070470020704700BFEC09002074
:102BF80008B515460A4A0B4B9060D0F8A8201A6011
:102C08000E4600F045F82C4686F309880020064B4E
:102C180098472046002100220023044C204700BF8B
:102C2800EC090020B40900203D6A0000D10500002D
:102C3800014B10221A61704700ED00E004480023A0
:102C48002021C2180133262B82F80013F9D17047CE
:102C580000E100E008B5EFF30583064A103B02EBFC
:102C6800C30152F8330049688847BDE80840FFF7B8
:102C780059BD00BFA0000020024B034A03480121B0
:102C880000F078B80040022000000020047F000017
:102C9800D0F89820054B403A1A60054A4021C3E90C
:102CA80001121846012100F06FB800BFB8090020D2
:102CB80000000B15084AC2F898000B6823F01F03A0
:102CC800034343F01003C2F89C308B6843F00103C0
:102CD800C2F8A030704700BF00ED00E02DE9F043D6
:102CE800DFF8608085B00E461F4604464FF00009A5
:102CF800B14523DA6068D8B13FB1411E08421BD103
:102D08001F2819D92368194216D12368019303F0A3
:102D1800A5FEA36803430393D8F89050C5F307258D
:102D2800D0B2013DA84207D801A9FFF7C3FF421C52
:102D380009F101090C34DBE76FF01502104605B004
:102D4800BDE8F08300ED00E0044B0522C3F89420B1
:102D5800BFF34F8FBFF36F8F704700BF00ED00E0E8
:102D6800BFF35F8F024B0022C3F89420704700BF67
:102D780000ED00E010B5034C01232278FFF7AEFF09
:102D8800207010BD4B0A002008B50B4A00231278AA
:102D9800FFF7A4FF10F1160F07D0084A0021D2F858
:102DA8009030C3F30723984200DB08BDC2F89800AF
:102DB800C2F8A0100130F2E74B0A002000ED00E055
:102DC8002DE9F043534B544CD3F890302568C3F3A6
:102DD80007239D4285B000F29A80FFF7C1FF0020CB
:102DE8000C2685421AD14D4C4D4F25706846FDF78B
:102DF80005FCDFF82081DFF82C9106460025AE425D
:102E080013D1237843490020D1F89020C2F3072238
:102E1800934276DBFFF798FF002042E0616806FBEB
:102E28000011FFF747FF0130DBE7009800EB0511C1
:102E38004FEA051CCB683B40B3F5000F48D00AD8D1
:102E4800B3F5001F30D0B3F5800F36D0B3F5801F2F
:102E580010D00135D3E7B3F1807F42D0B3F1007FC2
:102E6800F7D150F80C3088684A6803F0F7FD40F451
:102E7800802009E050F80C3088684A6803F0EEFDBD
:102E880040F0885040F43020CDE901230390D8F871
:102E980090302078C3F30723013B98422AD96FF07A
:102EA800150005B0BDE8F08350F80C3088684A6812
:102EB80003F0D4FD40EA0900E6E750F80C308868D2
:102EC8004A6803F0CBFD40F0E06040F40030DBE7F7
:102ED80050F80C3088684A6803F0C0FD40F08270F2
:102EE800D2E750F80C3088684A6803F0B7FD40F024
:102EF8008870C9E701A9FFF7DDFE23780133237045
:102F0800A7E7C1F89830C1F8A00001337CE74FF07B
:102F1800FF30C6E700ED00E0107F00004B0A0020FC
:102F28000000F0FF00000811F0B587B007460E4614
:102F380014460021102268461D4604F094FB022323
:102F48008DF802302A46054B019321466846CDE9A3
:102F5800047602F037F907B0F0BD00BF856A0000BB
:102F680008B5024B1B689847002008BDC40900201B
:102F7800034B044A1860937843F002039370704738
:102F8800C40900203800002008B50649064821F089
:102F98000701C1F1005202F5103202F09CFB00203B
:102FA80008BD00BF07270020C809002008B500F0A9
:102FB800B7F80A4941610A490122C0E900220A60BA
:102FC80008490A60084A00231360084A036113602D
:102FD800C0E90233064A136008BD00BF9B830000A6
:102FE8006400002060000020DC090020D8090020CF
:102FF800D40900202DE9F04107460E46154600F099
:103008008FF8C36804461BB943691A78002A41D16E
:103018000023E3606368BB4256F8232008DB324B89
:103028006361204600F062F84FF0FF30BDE8F081A0
:10303800511C616192F80080B8F12D0FEFD1911CFD
:1030480061615178A1602D2904D192786AB9013360
:103058006360E4E749B9244B63614146284604F0BC
:103068001AFB0028DDD0C4F80880D4F80880284668
:10307800414604F010FBB8F13A0F636900D070B90B
:103088001B7813B9636801336360204600F02EF89B
:103098003F20CBE75A1C42611B788360E5E7427802
:1030A8003A2A0BD0002222611B7813B963680133D6
:1030B8006360204600F01AF8A068B7E718786268DD
:1030C800094928B901329742626004DD56F8223076
:1030D800C4E90431EAE761612D783A2D2046D5D15B
:1030E80000F004F82846A1E79B830000074B02681C
:1030F8001A60074B42681A60064B82681A60064BD2
:10310800C2681A60054B02691A60704764000020A3
:1031180060000020DC090020D8090020D409002024
:10312800004870474800002010B5084C08480021A6
:1031380003F0D8FD2046002103F0E3FD04F1080068
:10314800002103F0DEFD002010BD00BF307F00002D
:103158004C7F000008B5074803F051FF38B1064816
:10316800FFF706FF0448FDF711FA002008BD6FF0CD
:103178001200FBE7AC780000853100000A2838B55A
:10318800074D044604D1AB680D215B682846984773
:10319800AB6803485B68E1B29847204638BD00BF7A
:1031A800AC780000F8B502F44034B4F5803F0E4620
:1031B800154614D0B4F5003F4BD0002C58D14FF031
:1031C80080534FF4C042D3F8B43121461B683046CF
:1031D80098472A4B43EA86031C600020F8BD4FF04D
:1031E8000052AB0503F08043134315F4C06204D0CA
:1031F800B2F5C06F3CD143F4306305F03002102AB9
:1032080029D0202A2AD0002A35D143F4C0444FF0CF
:1032180080573046D7F8B4315B689847D7F8B4314F
:1032280000F4E0221B682243002130469847134AE5
:1032380015F4003342EA860209D015F4002F4FF046
:1032480001030ED00E49B340C1F89030012313603A
:10325800C3E70022C5E743F48044D8E743F40054A9
:10326800D5E7690342BF0649B340C1F8A030EDE78E
:103278006FF08500B2E76FF01500AFE7001A44421F
:1032880000200240024BD3F8C0300B60002070478A
:1032980000200240054B01EA020021EA0201C3F8BE
:1032A8009000C3F8A0100020704700BF0020024023
:1032B800024B0020C3F89010704700BF0020024066
:1032C800024B0020C3F8A010704700BF0020024046
:1032D800024B0020C3F8B010704700BF0020024026
:1032E800014BD3F8E00070470020024010B54FF0C2
:1032F80080540420D4F8B8315B699847D4F8B831C1
:103308004FF4A060DB6998470E4B01229A620E4A7F
:10331800936A9B07FCD50D4A136823F47C5343F446
:103328000053136000221046114603F07BFB002077
:10333800FFF7F2FB042000F003FB0128FAD100207C
:1033480010BD00BF00200860002008400030094080
:1033580070B50C4B0269D3F8E060C3F8E0605168BF
:10336800054609B10C6801B970BD8A68324002D0BF
:103378004B68284698471CB1236821461C46F2E74B
:103388002346FAE7002002402DE9F0410B79042B8F
:103398000C4653D82B4AD35C4A79032A4ED8DFE827
:1033A80002F04A044A0243F00803A279032A45D8E6
:1033B800DFE802F00402383B43F02003E779012FED
:1033C80003D0022F37D0002F38D14FF080524568F4
:1033D800D2F8D0210669D2F804802268D5E9000124
:1033E800C0472B6840F2F2725A642B681A6BFFB11F
:1033F80042F440421A632A68D36A43F01003D36246
:10340800136B43F4407343F0010313632A68D36AD0
:1034180023F01003D36294E8030086E80300002039
:10342800BDE8F08143F04003C8E743F06003C5E717
:1034380022F44042DEE76FF08500F1E76FF01500F7
:10344800EEE700BFF291000070B54FF080540669B6
:10345800D4F8B83105465B6904209847D4F8B831E8
:1034680040F20120DB699847D4F8B83140F20120D6
:103478005B6A9847154B01229A62154A936A9B0723
:10348800FCD5042000F05CFA0128FAD1B06803F0FA
:1034980060FD041E18DB31462846FFF775FF6D688E
:1034A8002B6810225A64002211460446242003F097
:1034B800B9FA2420FFF730FB4FF080532868D3F87F
:1034C800D03100219B699847204670BD00200860D4
:1034D8000020084070B54FF080540669D4F8B83120
:1034E80005465B6902209847D4F8B8314FF400705C
:1034F800DB699847D4F8B8314FF400705B6A984795
:10350800154B01229A62154A936A9B07FCD5022043
:1035180000F016FA0128FAD1B06803F01AFD041E6B
:1035280018DB31462846FFF72FFF6D682B681022FD
:103538005A64002211460446052003F073FA052058
:10354800FFF7EAFA4FF080532868D3F8D03100210A
:103558009B699847204670BD0020086000200840FD
:10356800174B01222DE970435A60EFF3118620238F
:1035780083F31288BFF36F8F4FF08053D3F88C31E9
:103588001B6B98470F4AD2E90045D2E90089001B16
:103598004FEA50434FEA434361EB050113EB08043C
:1035A80041EB0905C2E9004586F31188BFF36F8F27
:1035B800400CBDE8704340EAC13001F0EFBA00BFEB
:1035C80000200940500300202DE9F047224B234CEE
:1035D800234F00210020C3E90001012500263E6099
:1035E8004FF08059FD61E562E36A6560D9F8B03152
:1035F80014201B6A9847E36AEFF3118A202383F3A8
:103608001288BFF36F8FFD616560D9F8B03114205F
:103618001B6A4FF004089847C4F81880D9F8843119
:1036280023211B6830469847C7F88052236823F443
:10363800E02343F4803323603D608AF31188BFF3AD
:103648006F8F32463146404603F0ECF94046FFF7AB
:1036580063FA3046BDE8F087500300200020094097
:1036680000002443F8B5431C03D0012803DC0025DF
:1036780007E06FF04040B0F1804FA8BF4FF08040A6
:10368800451EEFF31184202383F31288BFF36F8F55
:103698004FF08053D3F88C311B6B9847DFF884C008
:1036A800214BDCE900679B1B67EB4702181842EBCC
:1036B80001014FF40033C5FB0301400C40044FF0F7
:1036C800FF32824247F6FF7373EB01053CBF194690
:1036D8001046DCE90023801841EB0301000C40EAA6
:1036E8000140EFF31181202383F31288BFF36F8F1A
:1036F8000E4A136BC51AB5F1004F03F106030AD938
:103708001846906181F31188BFF36F8F84F3118895
:10371800BFF36F8FF8BD1D1A002DF2DB984238BF3A
:103728001846EEE750030020FFFF01000020094083
:1037380008B54FF08053D3F88C311B6B9847054B75
:10374800D3E90023801A61EB0301400C40EAC13041
:1037580008BD00BF5003002070B52B4B2B4CD3F88D
:10376800B02F12F0020F01BFD3F8AC3FC3F30743E9
:1037780043F0F00384F85630254B4FF00122C3F88C
:1037880004241B88204BD3F8B45F4FF080530646BF
:10379800D3F8F03128461B68984705F04073B3F119
:1037A800807F02BF637A43F0020363724FF0805355
:1037B8002946D3F8F03130465B689847154B164ACE
:1037C800D3F80C34C3F30531917313F4807F4FF0B1
:1037D8004002C3F3422314BF227784F82C20DB0075
:1037E8000D4A43F46053A2F86A304FF080532846DC
:1037F800D3F8F0319B689847022000F085F8074B12
:103808000122C3F8942470BD0040005000620840B3
:1038180000A00C400010005000B00C4000006042B6
:1038280038B5264BD3F81C43631C08BF002403F0AB
:10383800DEFB234B0022C3F884244FF08053D3F8D7
:10384800F0319B6C98471F4BD3F880312BB11E4B3E
:103858002046D3F88035FFF77FFF1C4B0022C3F8C2
:103868008C211B4A936C23F07F6323F4702343F06D
:103878009C7343F480339364164B9A6AC2F3013203
:10388800012A06D1996A144A0A4042F40031996221
:103898009A62124C01254FF08053E561D3F8B0319C
:1038A80014201B6A98470E4A136843F4E0231360F8
:1038B8000C4A2560D368002BFCD138BD001000509D
:1038C8000000604200002843000020430020084018
:1038D8000020034000000940EFFFFCFC00002443E7
:1038E8000020094000006842064BD3F818334BF615
:1038F8007730C3F30F3383420CBF05204FF0FF30FE
:10390800704700BF0010005030B50A4A0A490B4CF6
:10391800136855689D42FCD1834209D0CB5C0D5C8D
:103928009D4223448CBF5B7813F8013C1360EFE79A
:1039380030BD00BF00600C40239200001F920000C1
:103948000E4BD3F84021D3F89411C30705D483074D
:103958000BD441070CD40120704702F0010301F099
:1039680004010B43F3D1022070479307F1D4FAE71F
:1039780012F0040F0CBF02200120704700200840FD
:1039880070B5044690B103F027FB05460848094A7C
:103998004FF400460021E4FB06010023FCF7E8FB96
:1039A800044603F019FB431BA342FAD370BD00BFC2
:1039B8003F420F0040420F00034A044B02609B1A2B
:1039C8002420B3FBF0F0704764780000F47800001E
:1039D80038B5EFF31185202383F31288BFF36F8F77
:1039E800064B9C6803F01EFB85F31188BFF36F8FAD
:1039F8002046BDE83840FFF721B800BFEC09002099
:103A080038B50A4B53F82040013053F82050A542EE
:103A180000D838BD606830B1037FDB0701D403F0FC
:103A280004FB0834F3E723689847FAE73C80000072
:103A380070B52B4B2B4C2C4D012286B003201A70ED
:103A4800FFF7DEFF01F0D2F903F00AFB0420FFF7CD
:103A5800D7FF2646AE4204F1300410D300F040FDF3
:103A6800204C224EAC4226D300F04EFD03F0ABFDB5
:103A78001F4A137B23F00103137306B070BD54F87B
:103A88000C3C059354F8103C049354F8143C0393ED
:103A980054F8183C029354F81C3C019354F8203C09
:103AA800009354E90A2354E90C0100F03BFA54F856
:103AB800303C5E65CDE7D4E90A23B3F1FF3F08BF88
:103AC800B2F1FF3F05D052EA0301206803D100F0AC
:103AD800DBFD3034C6E73146183000F0DDFFF8E78B
:103AE8004C0A0020F4780000F4780000F37100001C
:103AF8001004002008B50348034A0021121A03F0F5
:103B0800ABFA08BDD8010020500A002070B5174E46
:103B1800174D184986B0B82303FB0066164B05936A
:103B280001220F23CDE903320023CDE90133142309
:103B380003FB005504464FF4C07000FB04110F4B03
:103B480000954FF4A072304600F0ECF9737B0C4AF4
:103B5800EE6023F0040373734FF4046304FB033330
:103B680013442C746B6006B070BD00BF580300206E
:103B7800EC090020001B0020279200009F70000025
:103B8800C0120020BFB50020FFF73AFF2A4B83F38D
:103B980008882A4C2A4F636943F40073636100253F
:103BA800E02384F82230E57725766576A57684F8D3
:103BB8002050636A43F4E023636284F82350FEF7DD
:103BC80005FFFFF735F84FF0FF33A362E362FFF715
:103BD800F7F8FFF751F81B481B4C00F04BFA03F0BD
:103BE8000DFA01F056FE0120FFF70AFF0220FFF749
:103BF80007FF00F0BDFC154B15495C61154B05939B
:103C08000123CDE903534FF480623B46CDE90155CA
:103C18000095204600F086F9627B064622F00402F1
:103C28002046627303F0A4FA2846FFF76FFF3A466E
:103C380031462046FEF7DCFF001B002000ED00E0C7
:103C4800393A0000C804002010040020EC090020C4
:103C5800801C00202C92000038B5064C064D002030
:103C6800AC4200D338BD204603F0FBF90028F9DB4D
:103C78001C34F5E7D8010020D80100202DE9F341D4
:103C8800044617461E46EFF31188202383F3128853
:103C9800BFF36F8FC368334A7BB1806891688842ED
:103CA80019D057EA060318D188F31188BFF36F8F2C
:103CB8006FF00F0002B0BDE8F081916891F90E1025
:103CC80021610133E3609368A36088F31188BFF32F
:103CD8006F8F0020EEE72169F2E791F90E1090F955
:103CE8000E309942A8BF19466FF07E029142B8BFC4
:103CF80011468B422DDD03F0D9F90546CDE9007652
:103D080019482246414600F009FB0028E1D0EFF3AC
:103D18001186202383F31288BFF36F8FA068D0B178
:103D2800236821699C420AD04BB193F90E3099421D
:103D3800A8BF19466FF07E039942B8BF194603F031
:103D4800B5F940B10848314600F086FB6FF00A002B
:103D5800B0E70025D2E7002DF4D186F31188BFF330
:103D68006F8FF3E7EC0900204D0A0020F8B583684F
:103D78000546002B40D0234A926893423FD1C3683E
:103D8800012B03D9013BC3600020F8BDEFF3118775
:103D9800202383F31288BFF36F8F0169806803F0D3
:103DA80085F92C68A54207D10023C5E9023387F3BA
:103DB8001188BFF36F8FE7E7002CF5D0D4E9003204
:103DC80013605A60637B002623F002036373C4E91F
:103DD8000066A66004F1180003F08AFAAC6094F952
:103DE8000E302B612046C4F8B06003F0C1F90648D4
:103DF800394600F031FBC7E76FF01500C5E74FF013
:103E0800FF30C2E7EC0900204D0A002070B5EFF33F
:103E18001186202383F31288BFF36F8F0468A042B2
:103E28001BD0D4B1D4E9003213605A60637B0025FB
:103E380023F00203C4E900556373A56004F1180078
:103E480003F056FAC4F8B050204603F091F9314611
:103E58000A48BDE8704000F0FFBAD0E902329A4241
:103E680018BF013383600221103003F080FB002863
:103E7800EDD186F31188BFF36F8F70BD4D0A002016
:103E880010B5044608B9054B9C681F2204F1780058
:103E980003F020FC002084F8970010BDEC090020F6
:103EA8002DE9F84F0C46A1B39AB390F80D90DFF8BE
:103EB8006880571E0846B9F1000F25D0DFF85CA0CE
:103EC8000025B8F804B019EA0B0F19D0B8F8063075
:103ED800D8F800107E1B9E4228BF1E46324603F0CB
:103EE8009AFB2E4439EA0B0904EB06000CD0BD1BE3
:103EF800012D28BF01252A46514603F08CFB354485
:103F080008F108086019DCE7002303702046BDE8C3
:103F1800F88F0348FBE700BF54800000319200008F
:103F28009B8300002DE9F04FD51D85B025F00705CE
:103F380004461F467F3500F15803C0E9163325F0C3
:103F48003F05129B237300200E46119BDDF838B005
:103F5800DDF84C80A06004213F2DC4E906006173A0
:103F6800A373E07306F1400AA5F1400905D880F370
:103F78001188BFF36F8F084602DF4A463544AA21ED
:103F8800504603F070FB29462046FEF7ABFB07308E
:103F9800109B20F00700C4E926A9C4F8A0000293EA
:103FA8000F9B2D1ACDE900B32A463B4631462046E1
:103FB800FEF7EAFD0F9BE3664FF00009109BC4F87B
:103FC8005490C4E9197B2367EFF31182202181F310
:103FD8001288BFF36F8F104E316A6167346282F3C3
:103FE8001188BFF36F8FB8F1000F11D01F2241461F
:103FF80004F1780003F06EFB84F89790B3680BB176
:10400800D3F8A430C4F8A430284605B0BDE8F08F32
:1040180084F87880F2E700BFEC090020F0B587B09B
:1040280000250595109D04950F9D03950E9D0295FD
:10403800DDE912760D9D01950C9D00950446FFF76C
:1040480071FFB6F1FF3F08BFB7F1FF3F05D056EA51
:10405800070305D1204600F017FB204607B0F0BD46
:1040680003493A46334604F1180000F015FDF4E719
:10407800F371000040F2011383810023C0E9263365
:10408800C0F8A430014B9860704700BFEC090020CD
:104098000A4A93686FF00A01C3F8B0100849C3F8D8
:1040A800AC004B6843F080534B60002383F31188C6
:1040B800BFF36F8F9368D3F8B0007047EC09002006
:1040C80000ED00E070B590F90D20437B002A36DB47
:1040D800D90634D11B4C63F07F032246437352F850
:1040E800183FE169934207D1C0E900210860E06107
:1040F80011E09942F8D01B68002BF5D090F90E50CA
:1041080093F90E60B542F4D0AE42F2DD5968C0E9C9
:10411800003108605860A569954200D005B9E56886
:10412800A3685A7BD20604D1DA897F2A01D9AA6901
:1041380032B1AB4202D0284600F0B0FB656170BDD9
:104148006361FCE7EC09002038B590F90D20437B4A
:10415800002A014604DA03F07F03437302F0CEFF1E
:104168000D4D2A46AB6852F8184F944200D004B956
:10417800EC688B4207D05A7BD20604D1DA897F2AB1
:1041880001D9A2692AB1A34202D0204600F086FBD9
:1041980023466B6138BD00BFEC09002070B590F96B
:1041A8000D20437B002A014604DA03F07F034373A2
:1041B80002F0A4FF4B7B1C4C63F07F0322464B7339
:1041C80052F8183FE069934207D1C1E90020016025
:1041D800E16111E09842F8D01B68002BF5D091F905
:1041E8000E5093F90E60B542F4D0AE42F2DD586835
:1041F800C1E9003001605960A569A368954200D003
:1042080005B9E5688B4207D05A7BD20604D1DA8912
:104218007F2A01D9AA692AB1AB4202D0284600F008
:104228003DFB2B46636170BDEC090020F8B5394CA5
:10423800A2688242074624D1EFF305830BBBEFF354
:104248001186202383F31288BFF36F8F537B03F00B
:104258007F0343F01003537302F050FF234653F8D3
:10426800185F9D4200D005B9E568A3689D4202D059
:10427800284600F013FB65613046BDE8F840FFF7BB
:1042880007BFEFF31185202383F31288BFF36F8FE5
:104298007B7BD90604D585F31188BFF36F8FF8BDF2
:1042A800D90943F0100219D17A73A6691A4B9E42B4
:1042B80000D006B9E668A368B34202D0304600F0E1
:1042C800EDFAA36866619F42E5D1EFF30583002B01
:1042D800E1D13A7BD2070AD42846CEE703F07F0320
:1042E80043F010037B73384602F008FFDDE785F3DF
:1042F8001188BFF36F8F83F31188BFF36F8F042387
:10430800184602DFEFF31180202383F31288BFF3EE
:104318006F8FB2E7EC090020040A0020F8B5124BB1
:104328000C461146114A98681060DDE90676EFF3ED
:104338001182202282F31288BFF36F8F9D6828466E
:1043480002F0EEFEB6F1FF3F08BFB7F1FF3F06D01F
:1043580007493A46334605F1180000F09DFB204610
:10436800BDE8F840FFF794BEEC090020100A0020D1
:10437800F3710000F8B50446EFF31187202383F3A7
:104388001288BFF36F8F437B03F01F02002A0CBF14
:104398000126002649B239D103F07F03437302F0A6
:1043A800ADFE2C4D437B817363F07F032A46437334
:1043B80052F8183F934227D1E869C4E90020046005
:1043C800EC610FE09842F8D01B68002BF5D093F908
:1043D8000EC06145F6D08C45F4DD5968C4E900315A
:1043E8000C605C60AC69944200D004B9EC68AB68BE
:1043F8009C4202D0204600F051FA6C6187F3118884
:10440800BFF36F8F3046F8BDE869DEE79B071ED51E
:10441800856802F073FE81732B689D4209D16B6831
:10442800C4E900531C606C60E8E76A689342F6D000
:104438001B68002BF3D093F90E209142F5D08A42E5
:10444800F3DD5A68C4E9003214605C60D6E7817312
:10445800D4E700BFEC09002049B9EFF3058030B973
:10446800054B5A699B689A4201D0FFF711BE81F348
:104478001188BFF36F8F7047EC09002010B5EFF378
:104488001184202282F31288BFF36F8F427BD106FA
:1044980004D484F31188BFF36F8F10BD22F010028B
:1044A8004273FFF70FFE21460248BDE81040FFF7B0
:1044B800D3BF00BF4D0A0020034648B9EFF3058279
:1044C80032B9064A51699268914201D0FFF7E0BDBE
:1044D80083F31188BFF36F8F704700BFEC0900208A
:1044E800EFF31181202383F31288BFF36F8F054BFD
:1044F8009A68D37B013BD37381F31188BFF36F8F25
:10450800704700BFEC09002070B5EFF31186202337
:1045180083F31288BFF36F8F144DAB68DA7B0132D7
:10452800DA732A4652F8184F944200D004B9EC685E
:104538005A7BD20604D1DA897F2A01D9A2692AB125
:10454800A34202D0204600F0A9F923466B6186F306
:104558001188BFF36F8FEFF31180202383F3128844
:10456800BFF36F8FBDE87040FFF7A6BFEC090020CE
:10457800024B03F11802C3E906227047EC09002038
:1045880070B5EFF31186202383F31288BFF36F8F82
:104598001B4CA168E0690B68814214BF1A460022CF
:1045A80049680B605960A368E1692AB9154AC3E9EB
:1045B80000210B60E3610CE093F90E0092F90E50B4
:1045C800A84218D0854216DD5168C3E900210B6066
:1045D8005360A5690B4B9D4200D005B9E568A368F7
:1045E8009D4202D0284600F059F965613046BDE881
:1045F8007040FFF74DBD8A42D8D01268D5E700BF9A
:10460800EC090020040A002051EA00032DE9F041DA
:1046180005460E4604D1FFF7B3FF0020BDE8F08140
:10462800431C71F1FF3324DB02F085FE4419EFF3DC
:104638001188202383F31288BFF36F8F0F4F104B1D
:10464800B8681860FFF780FDB8680E492A463346F7
:10465800183000F021FABA68537B43F0040353730F
:104668004046FFF715FD02F066FE201A20EAE070CA
:10467800D4E76FF00104241AD9E700BFEC09002041
:10468800100A0020F371000038B50446EFF31185D5
:10469800202383F31288BFF36F8F437B5B070FD50B
:1046A800183002F025FE637B23F004032046637371
:1046B800FFF708FD29460548BDE83840FFF7CCBE9E
:1046C80085F31188BFF36F8F38BD00BF4D0A0020F6
:1046D800014B9868704700BFEC0900202DE9F843AA
:1046E8000446077BEFF31185202383F31288BFF379
:1046F8006F8F437B190705D585F31188BFF36F8F3B
:10470800BDE8F883D90943F008025DD14273A36874
:1047180013B1204602F0FAFC04F1180002F0E8FD9B
:10472800A66D04F15808B04511D04FF0000976B1D4
:10473800304602F0EBFC06F1180002F0D9FDC6F88D
:10474800B0903046FFF7BEFCA66DB045EFD1DFF85C
:10475800C080D8F808309C423ED1EFF30589B9F102
:10476800000918BF4FF00109D8F81860294A964285
:1047780000D00EB9D8F80C60B34202D0304600F031
:104788008DF82046C8F8146000F0E0F8B9F1000F81
:1047980002D02148FFF76EFCD8F808309C4231D18E
:1047A800EFF3058373BB227BD20718D42846FFF7A3
:1047B8006FFCFB07A4D5002383F31188BFF36F8F29
:1047C8000423184602DF9BE703F07F0343F0080346
:1047D800437302F093FC9AE74FF00009C4E785F3AE
:1047E8001188BFF36F8F83F31188BFF36F8F042392
:1047F800184602DFEFF31180202383F31288BFF3FA
:104808006F8FD4E785F31188BFF36F8FD1E700BFAF
:10481800EC090020040A0020C8040020D3B5DDE913
:104828000667089CCDE90067FFF778FD1CB1034BCC
:104838009B681B69236002B0D0BD00BFEC09002053
:10484800044BC01A044BC0105843044B01221A549D
:10485800704700BF80050020ABAAAAAA4D0A002015
:10486800C3897F2B12D80A4B1B6863B1094B90F997
:104878000E201B689A4209DB437BDB0606D1064BF8
:10488800C31A18BF012303F0010070470023FAE799
:10489800180A0020140A00205803002070B50E4B97
:1048A8000E4C1E7C06EB460304EBC304054620466B
:1048B80002F01EFD0A4B002228469A55FFF7D0FF4A
:1048C80048B1084B08491A68013A2046D317BDE891
:1048D800704000F0E1B870BDEC09002080050020B0
:1048E8004D0A0020180A00204948000038B5EFF3A7
:1048F8001185202383F31288BFF36F8F104B114A61
:104908009C681068A04206D1FFF7C8FF85F311889C
:10491800BFF36F8F38BD00211B7C11600A4AD35C3E
:10492800002BF3D02046FFF79BFF0028EED0637BD7
:10493800DB0602D12046FFF731FC2046E4E700BF42
:10494800EC090020100A00204D0A0020EFF3118125
:10495800202383F31288BFF36F8F0A4A136A8342B6
:1049680007D15B6F136281F31188BFF36F8F7047B4
:104978001346002BF7D05A6F8242F9D1426F5A671B
:10498800F1E700BFEC090020F8B505460E46EFF345
:104998001187202383F31288BFF36F8F064B1C6A9D
:1049A80024B987F31188BFF36F8FF8BD20463146CD
:1049B800A847646FF4E700BFEC090020F8B5064685
:1049C8000F46EFF31183202282F31288BFF36F8F13
:1049D8000B490C6A154624B983F31188BFF36F8F0E
:1049E800F8BD83F31188BFF36F8F39462046B0476F
:1049F800EFF3118385F31288BFF36F8F646FEAE7D3
:104A0800EC0900200748084A084908B5121A02F0BC
:104A180025FB0748074A0849BDE80840121A02F072
:104A28001DBB00BF00000020D8010020C09200007C
:104A38000000002000000020C0920000024B18680F
:104A4800984208BF0020704790000020034B1B6865
:104A58000BB9FEF76DBE0020704700BF1C0A00208E
:104A680030B570B10B4B5B6898420AD0036843B10C
:104A7800D3E90421D0E90445121941EB0501C3E942
:104A88000421D0E9003213605A600023C0E90033E2
:104A980030BD00BF90000020B3F1FF3F08BFB2F166
:104AA800FF3F2DE9F84304461D469046184663D05B
:104AB800A160EFF31187202383F31288BFF36F8F70
:104AC800013275F1FF331ADBFFF7C0FF18F101035C
:104AD80045F100051B18064645EBE0750121C4E9C0
:104AE8000435FFF7ABFFDFF8A8E0DEF80480E0B993
:104AF800C4E900E8C8F80040CEF8044027E025499A
:104B0800D1E900256FF001039B1A4FF0FF3262EBE9
:104B18000505B3EB080365EB0005012B75F10002F1
:104B2800BCBF012300250021D9E7D0E9042CD4E932
:104B38000435934275EB0C0920DAD21A43686CEB02
:104B48000505C0E90425C4E900031C604460FFF7BB
:104B580075FF84420CD1104B1B684BB911B9FFF794
:104B680075FF0646304602F0ACFB0021FEF77AFDE1
:104B780087F31188BFF36F8FBDE8F8839B1A65EB45
:104B88000C054045C4E90435B2D00068AFE700BF62
:104B980090000020980500201C0A00202DE9F0470D
:104BA800EFF31185202383F31288BFF36F8FDFF8AB
:104BB800A490DFF8A480C9F80000FFF73FFF0026A3
:104BC8000027D9F80030D8E900ECD91750B1D0E95E
:104BD8000442A34271EB020A1CDAE41A62EB0102F6
:104BE800C0E9044213EB0E034FF000044CEB010143
:104BF8002046C8E90031C9F8004002F062FB2146AE
:104C0800FEF730FD85F31188BFF36F8FBDE8F047DD
:104C1800FFF76CBE14EB0E024CEBE473C0E90467BB
:104C2800C8E90023FFF71CFF85F31188BFF36F8FD6
:104C380083689847EFF31185202383F31288BFF325
:104C48006F8FD9F800301B1BC9F80030FFF7F6FE4C
:104C5800B7E700BF1C0A00209805002010B5EFF345
:104C68001184202383F31288BFF36F8FFFF7EEFEC2
:104C7800054A0346D2E90001181841EBE37184F3B1
:104C88001188BFF36F8F10BD98050020F0B514236D
:104C9800154E03FB01000024202701B9F0BD10F8D0
:104CA800073C40F80C4C03F03F03102BA0F1140C08
:104CB8000CD826FA03F3DB0708D550F8143C2BB1BF
:104CC80050F8105C2B605D6040E9054482F3118860
:104CD800BFF36F8FEFF3118287F31288BFF36F8FE3
:104CE80001396046D9E700BF160101002DE9F74FE9
:104CF8001D46274B9F68012387F8603087F861308D
:104D080052EA050316460CBF0123002307F160028F
:104D1800804602F05CFB8146EFF3118B4FF0200ACE
:104D28008AF31288BFF36F8F97F860404CB9014639
:104D38005A464046FFF7AAFF8BF31188BFF36F8FDF
:104D48000BE0002387F8603056EA050309D18BF39E
:104D58001188BFF36F8F6FF00A04204603B0BDE8D7
:104D6800F08FCDE900650B4A0B485946FFF7D6FA94
:104D78000446EFF311858AF31288BFF36F8F2A4632
:104D880049464046FFF782FF85F31188D6E700BF02
:104D9800EC090020980000204E0A002038B5034690
:104DA800EFF31185202282F31288BFF36F8FC16061
:104DB800012181600068834206D185F31188BFF321
:104DC8006F8F0024204638BDD0E9003213605A6046
:104DD8000023C0E9003302F078FB29460446024864
:104DE800FFF73AFBEEE700BF4E0A0020014800F04B
:104DF800B1BC00BF6C92000007B5074B0093074990
:104E080007484FF0FF334FF4806200F00BF90020A1
:104E180003B05DF804FB00BF94800000C0200020B0
:104E2800A00500202DE9FF414F4E04462027EFF34F
:104E3800118887F31288BFF36F8FD4F8B850F5B98B
:104E4800022104F1D00002F0C1FB002868D004F16F
:104E5800C80500220121284602F010FA0028F8D1DE
:104E6800002302934FF0FF324FF0FF33CDE90023C8
:104E7800414604F1C0023D48FFF7D0FCD7E7D4F81B
:104E8800BC202B68C4F8B830954208BFC4F8BC30C1
:104E9800D4F8D03043F00203C4F8D030EB6823F0E4
:104EA800040343F00103EB606B6888F31188BFF3D8
:104EB8006F8F28469847EFF3118887F31288BFF35E
:104EC8006F8FEB68D80623F0010236D4EA60EB68EE
:104ED8009A0716D5306823F00203EB6088B103689F
:104EE800002170B14268954235D1036869BB726888
:104EF8003360824200D17360002340F8083BFEF71C
:104F080085FFD4F8D03023F00203C4F8D03088F3FA
:104F18001188BFF36F8FDB0589D4FFF731FB86E774
:104F2800D4F8D030D9069BD5C4F8D00088F31188BE
:104F3800BFF36F8F04B0BDE8F08123F01103EB607D
:104F480005F11000FEF762FFC1E70B60736883424A
:104F580008BF7160D0E723B11A68014618461346A6
:104F6800BFE71A46F9E700BF200A00204E0A0020D2
:104F7800F8B5C3689A0704460F46C3F340062CD415
:104F88005B071AD40B680BB983680B60E368DD070D
:104F980044BFA3683B603D684CBF02260126002D34
:104FA8003AD01F4B9B68AB420AD0D5F8D030D8070F
:104FB800C3F3800214D46FF0120600233B6025E08F
:104FC80002F083F8D5F8D0300028F0D1D907C3F320
:104FD800C002F0D552B15B0708D46FF00F06ECE7BA
:104FE800002AFAD1C3F3C003002BF6D100232360B3
:104FF800D5F8BC3063B9C5E92E44284602F0F1FA69
:10500800E36843F00403E3603B68A3603046F8BDFF
:105018001C60C5F8BC40F0E76FF01506CDE700BF8F
:10502800EC090020F0B589B004460020C4E92E0040
:105038000E9D04F1C000C4E9300004F1C800C4E9C1
:1050480032004DB32879002840F2011008BF012032
:10505800C4F8D00000204FF0FF364FF0FF37CDE9FD
:105068000330CDE90100CDE906670C4B00942046DA
:10507800FEF7D4FF55B1296811B12046FEF700FFAD
:105088006B791BB1237B43F001032373204609B0DE
:10509800BDE8F040FFF7F8BA0120D9E72D4E00002F
:1050A8000CB430B589B005460C461C22002101A875
:1050B80002F0D9FA02238DF806300E4B02930595BB
:1050C80023462CB1B4F1004F28BF4FF00043013BF9
:1050D8001D440DAA0C99069501A8009200F072F8DB
:1050E80014B1059B00221A7009B0BDE8304002B027
:1050F800704700BFEF770000242AF0B5044601D8B6
:10510800012A40D102F078FB2D4B16221A5001B12A
:105118000C600020F0BD2F463D4615F8010B2028F5
:10512800F9D0A0F10906042E0346F4D92B282CD077
:105138002D282CD101267B78BD1C302B2DD1287829
:1051480040F02000782824D132F0100021D16B786B
:105158002C46102202350020392B82BF03F1FF3381
:1051680043F02003263B303B9A421AD9A0FB0204A5
:105178000CB9C01801D346F002062F462C4617F882
:10518800013B3D46E8E70746C6E70026D3E7002689
:10519800D3E7002A08BF0822DDE7002A08BF0A2251
:1051A800D9E701B10C60F20748BF4042B307B1D557
:1051B80002F022FB024B22221A504FF0FF30A9E7DF
:1051C8000C0000002DE9F04F8DB0436802938378FE
:1051D80015469A07804640F10D8100240E78002E6E
:1051E80000F00A81252E0BD04B1C03930134029B3F
:1051F8004146304698470028C0F2F6800399EDE70B
:105208004E788B1C252E0393F0D00027B946BB4659
:10521800BBF11F0F38D8A6F12003102B0AD8DFE8FE
:1052280003F02A0909300909092109090928092D62
:1052380009091F00A6F13003092B33D92A2E37D1CB
:105248001BF0400F55F8043B40F08280002BA7BFAD
:105258004BF0200B9946C3F100094BF0280B01E0F5
:105268004BF0010B039B13F8016B0393002ECFD176
:1052780030E04BF0020B4BF0040BF3E74BF0080B5C
:10528800F0E74BF0100BEDE7BBF17F0F19D8A6F153
:105298003003092BD2D81BF0400F03D00A2101FBA1
:1052A8000737DFE70A2101FB09394BF0200BD9E763
:1052B8002E2E06D11BF0400F40F09E804BF0400B85
:1052C800D0E76C2E31D02BD8682E36D06A2E3CD041
:1052D8004C2E3AD0002F46F02003B8BF2BF04002E6
:1052E800A3F16501BCBF1FFA82FB0027022901D97F
:1052F800612B2FD1073525F00705DFF8ACA208355B
:1053080007271BF0080F66D00AEB070B56465E45C9
:1053180063D1A4EB0A0A06EB0A02A9EB07096FE1BD
:10532800742E9FD07A2E9DD0D4E71BF0800F18BF23
:105338004BF4007B4BF0800B94E71BF4807F18BF85
:105348004BF4007B4BF4807B8CE74BF4207B89E7A4
:105358001F4687E7A6F16301122900F2F080DFE813
:1053680011F013004F00EE00EE00EE00EE004F00CB
:10537800EE00EE00EE00EE00EE00FE00E900EE00AA
:10538800EE001B00EE00AF0055F8043B8DF8183016
:1053980001270DF1180AB4E755F804AB834BBAF1AD
:1053A800000F08BF9A461BF0400F14BF39464FF054
:1053B800FF31504602F09EF90746A2E7029B41469C
:1053C8002020984700280FDB013EB742F6D34C4413
:1053D800A41BB14698E74E46F7E716F8010B029B67
:1053E80041469847002892DA98F8023043F00403BF
:1053F80088F802304FF0FF3420460DB0BDE8F08F3A
:105408001BF0800F34D01BF4007F2CD0073525F01B
:105418000705AA4669685AF8080B2BF010050029F9
:10542800ADB237DA404261EB410145F480650DF1D8
:10543800180B0A235A4602F07FF9A0EB0B030193DD
:105448006B0662D5019B25F001019F4289B240F3AA
:10545800A180002E00F0998015F0100240F09C8089
:10546800BB460D4623E0AA465AF8040BC117D4E7F9
:10547800AA461BF4807F5AF8041B01D10846F5E7B9
:105488001BF4007F15BF48B208B241F3C01141F3C5
:10549800C031C2E750EA0103C9D11BF0400FC6D0A2
:1054A800002FC4D12BF0110295B2BB46019740F2F0
:1054B800064115EA01021CBF0BF1010B00222CE08A
:1054C8002BF010021FFA82FB0A231BF0800C49D034
:1054D8001BF400711DBF073525F00705AA46AA462B
:1054E8001ABF5AF8080B69685AF8040B50EA010504
:1054F80045D12BF016051BF0400FADB242D0002F5E
:1055080040D12BF0170295B2019715F0100248D040
:10551800019B002E42D103F1010B29075AD4EB0756
:1055280006D5D9456FDD0199A9EB0B035F18CB466A
:105538005B4649E04BF0100B10237826C5E7782B23
:1055480004D1C6F1780343F01003BEE7029B41463D
:10555800252098470028FFF647AF023447E608237E
:105568000026B2E7AA461BF480715AF8040BBDD096
:105578001BF400711ABFC0B2614680B2B6E72BF0C7
:10558800060295B20DF1180B54E725F01105ADB2DE
:10559800BB468CE70D46B8E73B460D4603F1020BC8
:1055A800BBE7DDF804B082E7B7920000B0920000D4
:1055B800CDE904324146029B202098470028FFF697
:1055C80013AF049B059A01339945F1DCA4EB0B0159
:1055D800CC189B460AB3029B4146302098470028C6
:1055E800FFF602AF8EB901342744019B391B99425B
:1055F80024DC1D465DBB019AA9EB0B0922445546E4
:105608001446914435E0019F92E702344146304602
:10561800029B98470028E7DAE6E640F206410D4289
:10562800E2D015F0020F14BF2B20202015F4806F54
:1056380004F10104414618BF2D20E9E7029B4146C9
:1056480030209847002804F10104CEDACCE606ABF6
:10565800013D4146585D029B98470028CADAC3E6D7
:10566800029B414620209847002804F10104FFF6D8
:10567800BBAEA9EB0403002BF2DCBFE5704700EBDF
:10568800C100408840087047F8B50346FFF7F7FFA8
:10569800B0FA80F0C0F11F0003EB800CCA00DCF800
:1056A8001060171D0C4606328DB256B9012101FA59
:1056B80000F0D9680143D960CCF81040DD539D5201
:1056C800F8BDF1000431585AD85303EBC0009E527C
:1056D800C5805D52F4E7043A2DE9F041CC1D114430
:1056E80024F0070421F007010E1BF708B7FA87F228
:1056F800C2F12405AD004FF000080735C2F12002C1
:10570800ED0804604146A760C4F80C80920004F1DB
:10571800100001F0A8FF6B0043F00103638004EB65
:10572800C5027B1B5900A4F800805180A21924F8F7
:105738003550A2F80280A35304EBC70329465A88C0
:1057480042F001025A802046BDE8F041FFF79CBFB5
:10575800002070470FB407B504A951F8040B019154
:10576800FAF71AFF03B05DF804EB04B0704770B5A0
:105778000C8806468888241A3069A4B2844285B207
:1057880024BF641BA4B22D1BA8B2984228BF184698
:105798003368234413600B8803440B8070BD70B4D6
:1057A800838985880669ED1AADB2731B934228BFB9
:1057B800134670BC0A46011DFFF7D9BF70B40E46E8
:1057C8000146C58831F80A3FEC1AA3B2934228BFB4
:1057D8001346324670BCFFF7CABF10B54B880C8819
:1057E800E41AA4B294420ED31A4492B28B884A8027
:1057F8000A800069D21A92B2824201D2002010BDFA
:1058080003448B80FAE76FF01500F8E72DE9F341C0
:1058180006460F4615464FF000082A4601A93046AD
:10582800FFF7BDFF044640B102463946019801F032
:10583800F2FE2D1BA0442744EFD14246311D3046CD
:10584800FFF7CBFF404602B0BDE8F0812DE9F341F8
:1058580007460E4615464FF000082A4601A9384665
:10586800FFF7ACFF044648B12EB102460199304615
:1058780001F0D1FE26442D1BA044EED1424607F18B
:105888000A013846FFF7A9FF404602B0BDE8F0819B
:105898007047FDF7C5BF0B68834204BF01230B7136
:1058A800704783681B6A03B11847704708B5436897
:1058B800197311B11868FFF7F4FF002008BD10B57F
:1058C800406824301C46FFF7C1FF2060002010BD4F
:1058D80010B5406850F8804B01F033FD2046FFF7C3
:1058E800E0FFA368DB6A0BB120469847002010BD93
:1058F8002DE9F04145681E462B7B0C46174693B1AF
:1059080001EB0208A04507D13760D5E90131012034
:1059180098470020BDE8F081286814F8011B8368C7
:105928005B689847EEE705F11000FFF76FFF05F198
:10593800B80330600121BFF35B8F53E8002F43E8C1
:1059480000100028F9D1BFF35B8F002AE1D1286845
:105958008368DB69002BDCD09847DAE72DE9F34749
:1059680005460C4683685B6C03B19847AB685B6B74
:105978006BBB4FF0000904F1240704F12808218EBD
:10598800238D626B5B1A9BB2D31A934228BF1346CE
:10599800414601AA3846FFF7EAFEAB68824600286E
:1059A80041D09B69019993B3024628469847064619
:1059B80080B3324641463846FFF70FFF56454FF051
:1059C8000109DCD0D4E901310020984703E02846DA
:1059D80098470028CDD1AB685B6A6BBB628BE38AC2
:1059E8009B1A226A9BB2934204F1100704F11A0829
:1059F80028BF1346414601AA3846FFF7B8FE0646B7
:105A080008BB2846FFF74DFFC4F8B86027E06FF0E1
:105A18005706CEE7024641463846FFF7DEFEB9F1A3
:105A2800000FD8D0CEE79B69002BF8D001220DF1EA
:105A3800030128469847F2E7284698470028CDD121
:105A480002B0BDE8F087AB6801995B6963B10246B3
:105A580028469847024641463846FFF7BEFED4E935
:105A6800013101209847EBE76FF05702F3E78268AE
:105A7800002382F856308268A2F852308268A2F871
:105A88005030704710B50346BFF35B8F53E8000FE3
:105A980040EA010243E80024002CF7D1BFF35B8FF2
:105AA80010BD10B50346BFF35B8F53E8000F00EA43
:105AB800010243E80024002CF7D1BFF35B8F10BD2F
:105AC800FEF7DCB873B50901856801F51F71044656
