:1000000040110020A1040000D52300008D04000051
:100010008D0400008D0400008D040000000000002D
:10002000000000000000000000000000610500006A
:100030008D04000000000000010500008D04000098
:10004000E1060000E1060000E1060000E106000014
:10005000E1060000E1060000E1060000E106000004
:10006000E1060000E1060000E1060000E1060000F4
:10007000E1060000E1060000E1060000E1060000E4
:10008000E1060000E1060000E1060000E1060000D4
:10009000E1060000E1060000E1060000E1060000C4
:1000A000E1060000E1060000E1060000E1060000B4
:1000B000E1060000E1060000E1060000E1060000A4
:1000C000E1060000E1060000E1060000E106000094
:0800D000E1060000E10600005A
:1000D80008B50648064C02F05FF9204602F05CF9C4
:1000E80000214FF4004002F03FFBF6E7502B0000E0
:1000F8007B2B0000014B1B68184700BF0000002045
:10010800014B1860704700BF0000002030B585B073
:1001180004460D4610220021684602F098FB02238F
:100128008DF802302A46044B01932146684601F0B7
:100138006BFE05B030BD00BFFD00000080B5054670
:100148000E461746984601F0EDFB034602F0EAFB1F
:10015800DFF81890044649F80030424630463946E0
:10016800A84754F8090000F0B1F900BF08000000E2
:10017800014B036000207047302A000030BFFFF7B2
:10018800FDBF00BF2DE9F0410B4EDFF8308006EBD4
:100198000807CC1B054632460949204602F049FBB0
:1001A800A01942460021083C02F051FB2C6707F1D8
:1001B8000800BDE8F08100BF000000000400000056
:1001C800302A0000054B5A699B689A421FBF044AAF
:1001D800536843F080535360704700BF44030020C6
:1001E80000ED00E070B5264B15469A6A12F0100F24
:1001F8009A6A14BF1124102412F0080F9A6A18BFC3
:100208001224920706460AD5586B9A6A140634D502
:1002180019B19A6A22F080029A62132401E06FF001
:100228001500174B9A6A12F0010F9A6A18BF142426
:1002380012F0200F9A6A18BF1524D20602D49B6ABE
:100248009B070AD50E4B5B68190506D5314600F0A9
:10025800FDF910B180F309880224094B9A6A9206C5
:1002680042BF5A6A22F400525A629A6A42F0FF0266
:100278009A6200232B70204670BD6FF01500CCE702
:1002880000ED00E0134B9A6A12F0007F9A6A14BFDF
:100298001E201D2012F0807F9A6A18BF1F2012F4BA
:1002A800002F9A6A18BF212012F4802F9A6A18BF6B
:1002B800222012F4003F9A6A18BF232012F4803FCC
:1002C8009A6A6FEA02426FEA12429A6218BF2420C1
:1002D800704700BF00ED00E010B5194B0246986A60
:1002E8009C6A10F4805F14BF1720162014F4006F66
:1002F8009C6A18BF1820A40509D5986B986A000451
:1003080004D51AB19A6A22F400429A6219200C4B59
:100318009A6A12F4806F9A6A18BF1A20D2050CD410
:100328009B6A13F4005F18BF1C20054A936A43F4C4
:100338007F43936200230B7010BD1B20F5E700BFBD
:1003480000ED00E0F0B5484B5B688BB00446C3F3A2
:100358000803002585F31188BFF36F8F02F07F40F3
:10036800B0F17F4F11D102F00C0008280DD0100712
:100378004CBF0C4601250022033B8DF80720032BB8
:1003880005D8DFE803F0246367602C46F3E7002311
:100398009DF80720CAB902AE04F1200720686168F9
:1003A800324603C20834BC421646F7D1099A002DDA
:1003B80054D0C2F3080121B96FEA52226FEA4222EF
:1003C800099202A9184601F0F7FF0BB0F0BD264BC1
:1003D800DA6A9107DBD4DA6A002AD8DBDA6A5200D3
:1003E800D5D55A69A16942F480725A61BFF34F8F1B
:1003F800BFF36F8F5A6931F8021C22F480725A6178
:10040800BFF34F8FBFF36F8F4DF6027291420AD040
:100418009A6AD2B24AB10DF1070201212046FFF7CC
:10042800E1FE0346B4E72368B2E79A6A12F47F4F05
:1004380005D00DF107010120FFF74EFFF1E79B6A98
:10044800B3F5803FA3D3FFF71DFFEAE70DF10702DD
:100458000021E3E70DF107010020EDE722F4FF7228
:1004680022F00102ACE700BF00ED00E0044B5A693E
:1004780042F010025A615A6922F008025A61704724
:1004880000ED00E0EFF30880EFF3098101B5724653
:10049800FFF758FF01BD00BF0A4880F308882020F5
:1004A80080F3118808484FF40461401880F30988E4
:1004B800EFF314800221084380F31488BFF36F8F91
:1004C80000F08CF84011002080030020084B9B6846
:1004D80083420BD1EFF3058343B1064B5A6842F0D0
:1004E80080525A605A6A22F400425A6201F020BAD5
:1004F8004403002000ED00E014498A684FF0300002
:100508001044EFF3098C80E8F01F202080F3128854
:10051800BFF36F8F0E4F4FF000664A698A603E60E6
:10052800106F0C4C2060506F0023536780F31188C4
:1005380004B5104600F0EEF8BDE8044002F13000C2
:1005480090E8F01F8CF309887047000044030020EE
:1005580004ED00E0180300201EF0040F0CBFEFF3B9
:100568000880EFF30980816911F8021C0229FFD085
:1005780001B5724601F026FF01BD00BF0028ACBFDF
:1005880000F16040064B4FEA4111ACBF00F56140F5
:1005980000F00F00C9B2B4BF195480F800137047B7
:1005A80014ED00E040B2002807DB044A41090123AA
:1005B80000F01F00834042F82130704700E100E05E
:1005C800044B054A23F07F039360BFF34F8FBFF3BB
:1005D8006F8F70470000000000ED00E008B5FFF7DE
:1005E800EFFF0B4AD2F8883023F47003C2F8883042
:1005F800EFF3148323F0040383F31488BFF36F8F9E
:1006080000F08EFE01F0B6FA00F05AF800F0CCFEC9
:1006180000ED00E042F8203C009B42F81C3C0A49EF
:10062800019B42F8183C029B42F8143C21F001015E
:100638004FF0807342F8043C42F8081C0023203A2B
:1006480002654367704700BF45010000094A034639
:10065800906870B113F1160F006E05D0A0F140023A
:100668009A4205D8834203D2814228BF00207047AE
:10067800002070474403002008B51546094A0A4B74
:100688009060026F1A600E4600F044F82C4686F31C
:1006980009880020054B98472046002100220023A6
:1006A800034C20474403002018030020F3230000D4
:1006B80045010000014B10221A61704700ED00E06F
:1006C800044800232021C2180133262B82F8001386
:1006D800F9D1704700E100E008B5EFF30583064A59
:1006E800103B02EBC30152F8330049688847BDE864
:1006F8000840FFF767BD00BF34000020024B034AE3
:100708000348012100F076B80040022000000020D4
:10071800302A0000026E054B403A1A60044A402114
:10072800C3E901121846012100F06EB81C0300202D
:1007380000000B15084AC2F898000B6823F01F0345
:10074800034343F01003C2F89C308B6843F0010365
:10075800C2F8A030704700BF00ED00E02DE9F0437B
:10076800DFF8608085B00E461F4604464FF000094A
:10077800B14523DA6068D8B13FB1411E08421BD1A8
:100788001F2819D92368194216D12368019301F04B
:1007980040FEA36803430393D8F89050C5F3072598
:1007A800D0B2013DA84207D801A9FFF7C3FF421CF8
:1007B80009F101090C34DBE76FF01502104605B0AA
:1007C800BDE8F08300ED00E0044B0522C3F8942057
:1007D800BFF34F8FBFF36F8F704700BF00ED00E08E
:1007E800BFF35F8F024B0022C3F89420704700BF0D
:1007F80000ED00E010B5034C01232278FFF7AEFFAF
:10080800207010BD7403002008B50B4A002312782D
:10081800FFF7A4FF10F1160F07D0084A0021D2F8FD
:100828009030C3F30723984200DB08BDC2F8980054
:10083800C2F8A0100130F2E77403002000ED00E0D8
:100848002DE9F043534B544CD3F890302568C3F34B
:1008580007239D4285B000F29A80FFF7C1FF002070
:100868000C2685421AD14D4C4D4F25706846FFF72E
:100878007FFCDFF82081DFF82C9106460025AE4288
:1008880013D1237843490020D1F89020C2F30722DE
:10089800934276DBFFF798FF002042E0616806FB91
:1008A8000011FFF747FF0130DBE7009800EB051167
:1008B8004FEA051CCB683B40B3F5000F48D00AD877
:1008C800B3F5001F30D0B3F5800F36D0B3F5801FD5
:1008D80010D00135D3E7B3F1807F42D0B3F1007F68
:1008E800F7D150F80C3088684A6801F092FD40F45E
:1008F800802009E050F80C3088684A6801F089FDCA
:1009080040F0885040F43020CDE901230390D8F816
:1009180090302078C3F30723013B98422AD96FF01F
:10092800150005B0BDE8F08350F80C3088684A68B7
:1009380001F06FFD40EA0900E6E750F80C308868DE
:100948004A6801F066FD40F0E06040F40030DBE703
:1009580050F80C3088684A6801F05BFD40F08270FE
:10096800D2E750F80C3088684A6801F052FD40F030
:100978008870C9E701A9FFF7DDFE237801332370EA
:10098800A7E7C1F89830C1F8A00001337CE74FF021
:10099800FF30C6E700ED00E03C2A000074030020A9
:1009A8000000F0FF0000081108B5024B1B689847CB
:1009B800002008BD28030020034B044A18609378E0
:1009C80043F00203937070472803002004000020BE
:1009D80008B50649064821F00701C1F1005202F5A1
:1009E800103201F09AFC002008BD00BF87110020DA
:1009F8002C03002010B5084C0848002101F01EFD0A
:100A08002046002101F029FD04F10800002101F031
:100A180024FD002010BD00BF5C2A00006C2A0000E5
:100A280008B5074801F007FE38B10648FFF7C4FFCC
:100A38000448FFF765FB002008BD6FF01200FBE7D4
:100A4800B8290000510A00000A2838B5074D0446A5
:100A580004D1AB680D215B6828469847AB6803480A
:100A68005B68E1B29847204638BD00BFB82900004E
:100A7800F8B502F44034B4F5803F0E46154614D05C
:100A8800B4F5003F4BD0002C58D14FF080534FF4B1
:100A9800C042D3F8B43121461B68304698472A4BE8
:100AA80043EA86031C600020F8BD4FF00052AB05F6
:100AB80003F08043134315F4C06204D0B2F5C06F4D
:100AC8003CD143F4306305F03002102A29D0202AA3
:100AD8002AD0002A35D143F4C0444FF0805730461D
:100AE800D7F8B4315B689847D7F8B43100F4E022FE
:100AF8001B682243002130469847134A15F40033F7
:100B080042EA860209D015F4002F4FF001030ED0F7
:100B18000E49B340C1F8903001231360C3E70022A7
:100B2800C5E743F48044D8E743F40054D5E76903A4
:100B380042BF0649B340C1F8A030EDE76FF0850029
:100B4800B2E76FF01500AFE7001A444200200240F8
:100B5800024BD3F8C0300B600020704700200240E1
:100B6800054B01EA020021EA0201C3F89000C3F82C
:100B7800A0100020704700BF00200240024B002058
:100B8800C3F89010704700BF00200240024B0020BD
:100B9800C3F8A010704700BF00200240024B00209D
:100BA800C3F8B010704700BF00200240014BD3F8D3
:100BB800E00070470020024010B54FF08054042038
:100BC800D4F8B8315B699847D4F8B8314FF4A060CD
:100BD800DB6998470E4B01229A620E4A936A9B077B
:100BE800FCD50D4A136823F47C5343F40053136077
:100BF80000221046114601F0F0FB0020FFF7D2FC5E
:100C0800042000F0DBFA0128FAD1002010BD00BF53
:100C180000200860002008400030094070B50C4BE7
:100C28000269D3F8E060C3F8E0605168054609B18D
:100C38000C6801B970BD8A68324002D04B682846FA
:100C480098471CB1236821461C46F2E72346FAE779
:100C5800002002402DE9F0410B79042B0C4653D8B3
:100C68002B4AD35C4A79032A4ED8DFE802F04A04BB
:100C78004A0243F00803A279032A45D8DFE802F0C4
:100C88000402383B43F02003E779012F03D0022FF9
:100C980037D0002F38D14FF080524568D2F8D02194
:100CA8000669D2F804802268D5E90001C0472B689C
:100CB80040F2F2725A642B681A6BFFB142F4404258
:100CC8001A632A68D36A43F01003D362136B43F4A0
:100CD800407343F0010313632A68D36A23F01003B7
:100CE800D36294E8030086E803000020BDE8F081A1
:100CF80043F04003C8E743F06003C5E722F44042ED
:100D0800DEE76FF08500F1E76FF01500EEE700BF52
:100D1800D62B000070B54FF080550669D5F8B8316C
:100D280004465B6904209847D5F8B83140F20120A1
:100D3800DB699847D5F8B83140F201205B6A9847DB
:100D48000B4B01229A620B4A936A9B07FCD504203D
:100D580000F034FA0128FAD1B06801F054FC0028F8
:100D680005DB31462046BDE87040FFF773BF70BD14
:100D7800002008600020084070B54FF080550669D3
:100D8800D5F8B83104465B6902209847D5F8B831E0
:100D98004FF40070DB699847D5F8B8314FF400700C
:100DA8005B6A98470B4B01229A620B4A936A9B072E
:100DB800FCD5022000F002FA0128FAD1B06801F04F
:100DC80022FC002805DB31462046BDE87040FFF7CD
:100DD80041BF70BD0020086000200840174B012269
:100DE8002DE970435A60EFF31186202383F31288AC
:100DF800BFF36F8F4FF08053D3F88C311B6B98473C
:100E08000F4AD2E90045D2E90089001B4FEA504356
:100E18004FEA434361EB050113EB080441EB090575
:100E2800C2E9004586F31188BFF36F8F400CBDE817
:100E3800704340EAC13000F069BF00BF002009409C
:100E4800700100202DE9F047224B234C234F00214D
:100E58000020C3E90001012500263E604FF08059BB
:100E6800FD61E562E36A6560D9F8B03114201B6A58
:100E78009847E36AEFF3118A202383F31288BFF3BC
:100E88006F8FFD616560D9F8B03114201B6A4FF08F
:100E980004089847C4F81880D9F8843123211B68BE
:100EA80030469847C7F88052236823F4E02343F478
:100EB800803323603D608AF31188BFF36F8F324619
:100EC8003146404601F089FA4046FFF76BFB304651
:100ED800BDE8F0877001002000200940000024438D
:100EE800F8B5431C03D0012803DC002507E06FF0A8
:100EF8004040B0F1804FA8BF4FF08040451EEFF34F
:100F08001184202383F31288BFF36F8F4FF080532F
:100F1800D3F88C311B6B9847DFF884C0214BDCE990
:100F280000679B1B67EB4702181842EB01014FF45F
:100F38000033C5FB0301400C40044FF0FF328242EE
:100F480047F6FF7373EB01053CBF19461046DCE911
:100F58000023801841EB0301000C40EA0140EFF345
:100F68001181202383F31288BFF36F8F0E4A136B0E
:100F7800C51AB5F1004F03F106030AD91846906166
:100F880081F31188BFF36F8F84F31188BFF36F8FDC
:100F9800F8BD1D1A002DF2DB984238BF1846EEE75F
:100FA80070010020FFFF01000020094008B54FF044
:100FB8008053D3F88C311B6B9847054BD3E900233A
:100FC800801A61EB0301400C40EAC13008BD00BF44
:100FD8007001002070B52B4B2B4CD3F8B02F12F0BA
:100FE800020F01BFD3F8AC3FC3F3074343F0F0034C
:100FF80084F85630254B4FF00122C3F804241B888F
:10100800204BD3F8B45F4FF080530646D3F8F03145
:1010180028461B68984705F04073B3F1807F02BFEC
:10102800637A43F0020363724FF080532946D3F882
:10103800F03130465B689847154B164AD3F80C34A4
:10104800C3F30531917313F4807F4FF04002C3F36B
:10105800422314BF227784F82C20DB000D4A43F486
:101068006053A2F86A304FF080532846D3F8F03125
:101078009B689847022000F085F8074B0122C3F8C7
:10108800942470BD004000500062084000A00C404D
:101098000010005000B00C400000604238B5264BEC
:1010A800D3F81C43631C08BF002401F0BCFA234B8F
:1010B8000022C3F884244FF08053D3F8F0319B6C9E
:1010C80098471F4BD3F880312BB11E4B2046D3F8DD
:1010D8008035FFF77FFF1C4B0022C3F88C211B4A89
:1010E800936C23F07F6323F4702343F09C7343F4E1
:1010F80080339364164B9A6AC2F30132012A06D1EF
:10110800996A144A0A4042F4003199629A62124C70
:1011180001254FF08053E561D3F8B03114201B6AE4
:1011280098470E4A136843F4E02313600C4A25607D
:10113800D368002BFCD138BD00100050000060427D
:1011480000002843000020430020084000200340FE
:1011580000000940EFFFFCFC000024430020094088
:1011680000006842064BD3F818334BF67730C3F3C8
:101178000F3383420CBF05204FF0FF30704700BF8C
:101188000010005030B50A4A0A490B4C13685568DC
:101198009D42FCD1834209D0CB5C0D5C9D42234427
:1011A8008CBF5B7813F8013C1360EFE730BD00BFDC
:1011B80000600C40FB2B0000F72B00000E4BD3F80F
:1011C8004021D3F89411C30705D483070BD44107F2
:1011D8000CD40120704702F0010301F004010B4315
:1011E800F3D1022070479307F1D4FAE712F0040F05
:1011F8000CBF0220012070470020084038B5EFF3EB
:101208001185202383F31288BFF36F8F064B9C68E8
:1012180001F024FA85F31188BFF36F8F2046BDE8EB
:101228003840FFF753B900BF4403002038B50A4BD4
:1012380053F82040013053F82050A54200D838BD5B
:10124800606830B1037FDB0701D401F00AFA083483
:10125800F3E723689847FAE7382B000070B52B4B63
:101268002B4C2C4D012286B003201A70FFF7DEFFAD
:1012780000F0C4FD01F010FA0420FFF7D7FF26465E
:10128800AE4204F1300410D300F054FA204C224E40
:10129800AC4226D300F062FAFEF71AFF1F4A137B0E
:1012A80023F00103137306B070BD54F80C3C05938A
:1012B80054F8103C049354F8143C039354F8183C25
:1012C800029354F81C3C019354F8203C009354E9D1
:1012D8000A2354E90C0100F0E3F854F8303C5E6549
:1012E800CDE7D4E90A23B3F1FF3F08BFB2F1FF3FCE
:1012F80005D052EA0301206803D100F0EFFA303438
:10130800C6E73146183000F07FFCF8E77503002087
:10131800F8290000F829000069270000F8010020DA
:1013280008B50348034A0021121A01F0B1F908BDB3
:10133800700100207803002070B5002386B00122D8
:10134800CDE90423134E144D01930F22CDE9023247
:101358001249142303FB005506EBC01604464FF44C
:10136800C07000FB04110E4B00954FF4A07230467C
:1013780000F096F8737B0B4AEE6023F00403737356
:101388004FF4046304FB033313442C746B6006B0FE
:1013980070BD00BF7801002044030020C00B00206E
:1013A800D726000080030020BFB50020FFF73EFFCE
:1013B8002A4B83F308882A4C2A4F636943F4007345
:1013C80063610025E02384F82230E5772576657689
:1013D800A57684F82050636A43F4E023636284F8B6
:1013E8002350FFF743F8FFF765F94FF0FF33A36287
:1013F800E362FFF725FAFFF781F91B481B4C00F061
:101408009BF801F017F900F0D5FF0120FFF70EFF58
:101418000220FFF70BFF00F0D5F9154B15495C6169
:10142800154B05930123CDE903534FF480623B46E6
:10143800CDE901550095204600F032F8627B06465A
:1014480022F004022046627301F05EF92846FFF795
:1014580073FF3A4631462046FFF70EF9C00B0020CD
:1014680000ED00E06512000078020020F80100207D
:1014780044030020400D0020FF2B000038B5064C27
:10148800064D0020AC4200D338BD204601F005F9D6
:101498000028F9DB1C34F5E76C0100206C01002002
:1014A8002DE9F043073285B022F007020E461F46A9
:1014B8001099017300F158037F32C0E916330446CE
:1014C800002322F03F020421836041733F2A0F98D2
:1014D800A073C4E90633E37306F14009A2F140089A
:1014E80005D883F31188BFF36F8F084602DFB5185C
:1014F80029462046FEF746FE07300E9B20F00700DF
:10150800A066C4E9189802930D9B01932D1A0C9BB1
:1015180000932A463B4631462046FFF77BF80023D6
:101528006365044B9B6803B1DB6EE366284605B030
:10153800BDE8F0834403002040F2011383810023B7
:10154800C0E91833C366014B986070474403002014
:10155800094A93686FF00A019967084958674B6808
:1015680043F080534B60002383F31188BFF36F8FE0
:101578009368986F704700BF4403002000ED00E0B7
:1015880070B590F90D20437B002A36DBD90634D19B
:101598001B4C63F07F032246437352F8183FE169FE
:1015A800934207D1C0E900210860E06111E0994247
:1015B800F8D01B68002BF5D090F90E5093F90E6007
:1015C800B542F4D0AE42F2DD5968C0E90031086096
:1015D8005860A569954200D005B9E568A3685A7BAB
:1015E800D20604D1DA897F2A01D9AA6932B1AB427D
:1015F80002D0284600F066FA656170BD6361FCE7B9
:101608004403002038B590F90D20437B002A014699
:1016180004DA03F07F03437301F064F80D4D2A46A2
:10162800AB6852F8184F944200D004B9EC688B426A
:1016380007D05A7BD20604D1DA897F2A01D9A26958
:101648002AB1A34202D0204600F03CFA23466B613F
:1016580038BD00BF4403002070B590F90D20437BCE
:10166800002A014604DA03F07F03437301F03AF8D5
:101678004B7B1C4C63F07F0322464B7352F8183F98
:10168800E069934207D1C1E900200160E16111E0FE
:101698009842F8D01B68002BF5D091F90E5093F9B9
:1016A8000E60B542F4D0AE42F2DD5868C1E90030B0
:1016B80001605960A569A368954200D005B9E5683D
:1016C8008B4207D05A7BD20604D1DA897F2A01D906
:1016D800AA692AB1AB4202D0284600F0F3F92B469A
:1016E800636170BD4403002049B9EFF3058030B948
:1016F800054B5A699B689A4201D0FFF729BF81F3CD
:101708001188BFF36F8F704744030020034648B920
:10171800EFF3058232B9064A51699268914201D0C5
:10172800FFF716BF83F31188BFF36F8F704700BFB1
:1017380044030020EFF31181202383F31288BFF3C1
:101748006F8F054B9A68D37B013BD37381F3118864
:10175800BFF36F8F704700BF4403002070B5EFF3ED
:101768001186202383F31288BFF36F8F144DAB6863
:10177800DA7B0132DA732A4652F8184F944200D0C5
:1017880004B9EC685A7BD20604D1DA897F2A01D9D8
:10179800A2692AB1A34202D0204600F093F9234659
:1017A8006B6186F31188BFF36F8FEFF311802023ED
:1017B80083F31288BFF36F8FBDE87040FFF7A6BFB1
:1017C80044030020024B03F11802C3E906227047C4
:1017D8004403002070B5EFF31186202383F31288A9
:1017E800BFF36F8F1B4CA168E0690B68814214BF7F
:1017F8001A46002249680B605960A368E1692AB952
:10180800154AC3E900210B60E3610CE093F90E006F
:1018180092F90E50A84218D0854216DD5168C3E9E6
:1018280000210B605360A5690B4B9D4200D005B9A0
:10183800E568A3689D4202D0284600F043F9656137
:101848003046BDE87040FFF783BE8A42D8D01268A0
:10185800D5E700BF440300205C03002051EA0003E1
:101868002DE9F04105460E4604D1FFF7B3FF0020ED
:10187800BDE8F081431C71F1FF3324DB00F0D5FF94
:101888004419EFF31188202383F31288BFF36F8F75
:101898000F4F104BB8681860FFF7B4FEB8680E49D0
:1018A8002A463346183000F0AFF9BA68537B43F044
:1018B800040353734046FFF74BFE00F0B6FF201AAF
:1018C80020EAE070D4E76FF00104241AD9E700BFDA
:1018D80044030020640300206927000038B504464B
:1018E800EFF31185202383F31288BFF36F8F437BB7
:1018F8005B070FD5183000F075FF637B23F00403F6
:1019080020466373FFF73CFE29460548BDE838408A
:10191800FFF7EABE85F31188BFF36F8F38BD00BFAC
:1019280076030020014B9868704700BF44030020ED
:101938002DE9F8430446077BEFF31185202383F351
:101948001288BFF36F8F437B190705D585F311887C
:10195800BFF36F8FBDE8F883D90943F008025AD165
:101968004273A36813B1204600F0C4FE04F11800C6
:1019780000F038FFA66D04F15808B04511D04FF0BB
:10198800000976B1304600F0B5FE06F1180000F007
:1019980029FFC6F878903046FFF7F2FDA66DB045EE
:1019A800EFD1DFF8B880D8F808309C423BD1EFF38C
:1019B8000589B9F1000918BF4FF00109D8F8186076
:1019C800274A964200D00EB9D8F80C60B34202D02C
:1019D800304600F077F8C8F81460B9F1000F02D06B
:1019E8002048FFF7A9FDD8F808309C4231D1EFF321
:1019F800058373BB227BD20718D42846FFF7A8FDBE
:101A0800FB07A7D5002383F31188BFF36F8F042347
:101A1800184602DF9EE703F07F0343F00803437391
:101A280000F060FE9DE74FF00009C7E785F31188D5
:101A3800BFF36F8F83F31188BFF36F8F04231846AA
:101A480002DFEFF31180202383F31288BFF36F8F37
:101A5800D4E785F31188BFF36F8FD1E744030020E3
:101A68005C03002078020020044BC01A044BC0100D
:101A78005843044B01221A54704700BFF802002053
:101A8800ABAAAAAA76030020C3897F2B12D80A4BD7
:101A98001B6863B1094B90F90E201B689A4209DB59
:101AA800437BDB0606D1064BC31A18BF012303F09C
:101AB800010070470023FAE76C0300206803002048
:101AC8007801002070B50E4B0E4C1E7C06EB4603C9
:101AD80004EBC3040546204600F084FE0A4B0022AE
:101AE80028469A55FFF7D0FF48B1084B08491A68AD
:101AF800013A2046D317BDE8704000F085B870BDA4
:101B080044030020F8020020760300206C03002024
:101B1800711A000038B5EFF31185202383F312887A
:101B2800BFF36F8F104B114A9C681068A04206D112
:101B3800FFF7C8FF85F31188BFF36F8F38BD002109
:101B48001B7C11600A4AD35C002BF3D02046FFF7B8
:101B58009BFF0028EED0637BDB0602D12046FFF70F
:101B68007BFD2046E4E700BF440300206403002017
:101B7800760300200748084A084908B5121A00F0F9
:101B880089FD0748074A0849BDE80840121A00F0CD
:101B980081BD00BF000000206C010020502C000017
:101BA8000000002000000020502C0000024B1868A4
:101BB800984208BF002070472C000020034B1B6888
:101BC8000BB9FFF7F3B90020704700BF700300207E
:101BD80030B570B10B4B5B6898420AD0036843B1CB
:101BE800D3E90421D0E90445121941EB0501C3E901
:101BF8000421D0E9003213605A600023C0E90033A1
:101C080030BD00BF2C000020B3F1FF3F08BFB2F188
:101C1800FF3F2DE9F84304461D469046184663D019
:101C2800A160EFF31187202383F31288BFF36F8F2E
:101C3800013275F1FF331ADBFFF7C0FF18F101031A
:101C480045F100051B18064645EBE0750121C4E97E
:101C58000435FFF7ABFFDFF8A8E0DEF80480E0B951
:101C6800C4E900E8C8F80040CEF8044027E0254958
:101C7800D1E900256FF001039B1A4FF0FF3262EBA8
:101C88000505B3EB080365EB0005012B75F10002B0
:101C9800BCBF012300250021D9E7D0E9042CD4E9F1
:101CA8000435934275EB0C0920DAD21A43686CEBC1
:101CB8000505C0E90425C4E900031C604460FFF77A
:101CC80075FF84420CD1104B1B684BB911B9FFF753
:101CD80075FF0646304600F06EFD0021FFF700F95B
:101CE80087F31188BFF36F8FBDE8F8839B1A65EB04
:101CF8000C054045C4E90435B2D00068AFE700BF21
:101D08002C00002010030020700300202DE9F0476C
:101D1800EFF31185202383F31288BFF36F8FDFF869
:101D2800A490DFF8A480C9F80000FFF73FFF002661
:101D38000027D9F80030D8E900ECD91750B1D0E91C
:101D48000442A34271EB020A1CDAE41A62EB0102B4
:101D5800C0E9044213EB0E034FF000044CEB010101
:101D68002046C8E90031C9F8004000F024FD2146AA
:101D7800FFF7B6F885F31188BFF36F8FBDE8F0471A
:101D8800FFF7C8BE14EB0E024CEBE473C0E904671E
:101D9800C8E90023FFF71CFF85F31188BFF36F8F95
:101DA80083689847EFF31185202383F31288BFF3E4
:101DB8006F8FD9F800301B1BC9F80030FFF7F6FE0B
:101DC800B7E700BF700300201003002010B5EFF341
:101DD8001184202383F31288BFF36F8FFFF7EEFE81
:101DE800054A0346D2E90001181841EBE37184F370
:101DF8001188BFF36F8F10BD10030020014800F059
:101E0800CBBA00BF042C00002DE9F04F8DB0436819
:101E18000293837815469A07804640F10D81002485
:101E28000E78002E00F00A81252E0BD04B1C039350
:101E38000134029B4146304698470028C0F2F6809C
:101E48000399EDE74E788B1C252E0393F0D00027DD
:101E5800B946BB46BBF11F0F38D8A6F12003102B9B
:101E68000AD8DFE803F02A09093009090921090914
:101E78000928092D09091F00A6F13003092B33D9B8
:101E88002A2E37D11BF0400F55F8043B40F08280D2
:101E9800002BA7BF4BF0200B9946C3F100094BF06C
:101EA800280B01E04BF0010B039B13F8016B039324
:101EB800002ECFD130E04BF0020B4BF0040BF3E7D0
:101EC8004BF0080BF0E74BF0100BEDE7BBF17F0F81
:101ED80019D8A6F13003092BD2D81BF0400F03D034
:101EE8000A2101FB0737DFE70A2101FB09394BF01B
:101EF800200BD9E72E2E06D11BF0400F40F09E8014
:101F08004BF0400BD0E76C2E31D02BD8682E36D052
:101F18006A2E3CD04C2E3AD0002F46F02003B8BF92
:101F28002BF04002A3F16501BCBF1FFA82FB00271A
:101F3800022901D9612B2FD1073525F00705DFF8D4
:101F4800ACA2083507271BF0080F66D00AEB070B71
:101F580056465E4563D1A4EB0A0A06EB0A02A9EBD2
:101F680007096FE1742E9FD07A2E9DD0D4E71BF01D
:101F7800800F18BF4BF4007B4BF0800B94E71BF4E9
:101F8800807F18BF4BF4007B4BF4807B8CE74BF4CD
:101F9800207B89E71F4687E7A6F16301122900F233
:101FA800F080DFE811F013004F00EE00EE00EE00C5
:101FB800EE004F00EE00EE00EE00EE00EE00FE0038
:101FC800E900EE00EE001B00EE00AF0055F8043B00
:101FD8008DF8183001270DF1180AB4E755F804AB4D
:101FE800834BBAF1000F08BF9A461BF0400F14BF8D
:101FF80039464FF0FF31504600F031FC0746A2E762
:10200800029B41462020984700280FDB013EB7423B
:10201800F6D34C44A41BB14698E74E46F7E716F8AA
:10202800010B029B41469847002892DA98F8023043
:1020380043F0040388F802304FF0FF3420460DB017
:10204800BDE8F08F1BF0800F34D01BF4007F2CD03C
:10205800073525F00705AA4669685AF8080B2BF0DA
:1020680010050029ADB237DA404261EB410145F471
:1020780080650DF1180B0A235A4600F0FCFBA0EB13
:102088000B0301936B0662D5019B25F001019F426A
:1020980089B240F3A180002E00F0998015F010025B
:1020A80040F09C80BB460D4623E0AA465AF8040B34
:1020B800C117D4E7AA461BF4807F5AF8041B01D144
:1020C8000846F5E71BF4007F15BF48B208B241F394
:1020D800C01141F3C031C2E750EA0103C9D11BF076
:1020E800400FC6D0002FC4D12BF0110295B2BB46C9
:1020F800019740F2064115EA01021CBF0BF1010BE2
:1021080000222CE02BF010021FFA82FB0A231BF09E
:10211800800C49D01BF400711DBF073525F0070559
:10212800AA46AA461ABF5AF8080B69685AF8040B57
:1021380050EA010545D12BF016051BF0400FADB252
:1021480042D0002F40D12BF0170295B2019715F01D
:10215800100248D0019B002E42D103F1010B290740
:102168005AD4EB0706D5D9456FDD0199A9EB0B03C6
:102178005F18CB465B4649E04BF0100B10237826DE
:10218800C5E7782B04D1C6F1780343F01003BEE706
:10219800029B4146252098470028FFF647AF0234A6
:1021A80047E608230026B2E7AA461BF480715AF8CE
:1021B800040BBDD01BF400711ABFC0B2614680B2D7
:1021C800B6E72BF0060295B20DF1180B54E725F08F
:1021D8001105ADB2BB468CE70D46B8E73B460D4648
:1021E80003F1020BBBE7DDF804B082E7462C0000E0
:1021F8003F2C0000CDE904324146029B202098473D
:102208000028FFF613AF049B059A01339945F1DCCA
:10221800A4EB0B01CC189B460AB3029B4146302025
:1022280098470028FFF602AF8EB901342744019B76
:10223800391B994224DC1D465DBB019AA9EB0B09A9
:10224800224455461446914435E0019F92E70234F2
:1022580041463046029B98470028E7DAE6E640F216
:1022680006410D42E2D015F0020F14BF2B202020AA
:1022780015F4806F04F10104414618BF2D20E9E7E9
:10228800029B414630209847002804F10104CEDA29
:10229800CCE606AB013D4146585D029B98470028B5
:1022A800CADAC3E6029B414620209847002804F179
:1022B8000104FFF6BBAEA9EB0403002BF2DCBFE57B
:1022C800704700EBC100408840087047F8B50346E6
:1022D800FFF7F7FFB0FA80F0C0F11F0003EB800CA6
:1022E800CA00DCF81060171D0C4606328DB256B9CC
:1022F800012101FA00F0D9680143D960CCF81040F7
:10230800DD539D52F8BDF1000431585AD85303EB00
:10231800C0009E52C5805D52F4E7043A2DE9F041B1
:10232800CC1D114424F0070421F007010E1BF70807
:10233800B7FA87F2C2F12405AD004FF0000807355F
:10234800C2F12002ED0804604146A760C4F80C8081
:10235800920004F1100000F07AFA6B0043F00103D8
:10236800638004EBC5027B1B5900A4F800805180F0
:10237800A21924F83550A2F80280A35304EBC7032E
:1023880029465A8842F001025A802046BDE8F041A9
:10239800FFF79CBF002070470FB407B504A951F898
:1023A800040B0191FDF7B2FE03B05DF804EB04B035
:1023B80070477047FEF772BE012801D1EFF305831D
:1023C800FEF71CBF01460068FFF7F6BF08B5FDF72A
:1023D800D5FEBDE80840FDF7F5BE013140B2FEF775
:1023E800CDB800210120FFF7E7BF61B662B680F3E0
:1023F8001188BFF36F8F704772B6002383F311887B
:10240800BFF36F8FBFF34F8F30BF62B6BFF36F8FCD
:102418007047202809D9B0F1004F08D80138B0FA20
:1024280080F0C0F11F0040007047082070473E2030
:10243800704708B5FEF7B8FA002008BD07B501AA2D
:1024480000F077F8002805DB019B0022197918684D
:1024580000F082F803B05DF804FB70B403460C4644
:10246800DA88006819792243056986682B6801248F
:102478008C4012F0010F14BF2343A3432B60336831
:1024880070BC1847B2F5001F70B50D4623D0B2F1E5
:10249800A07F22D1B3F1C06F1AD0B3F1806F14BFFF
:1024A8004FF480344FF4003444F480244FF08056C5
:1024B8002846D6F8B4315B689847D6F8B43120F48A
:1024C800E0221B682846224300219847002070BD5F
:1024D8004FF44034E8E70024E8E76FF08500F6E7BA
:1024E80010B503695868F8B1884219D19C68086822
:1024F8005860A14200D19860002008602AB15A684B
:102508000A609A68596002B99960002010E0814217
:1025180006D10868206098688142EDD19C60EBE79D
:10252800044600680028F2D1002AE8D16FF01500AF
:1025380010BD30B5036813600579046804EBC50461
:10254800A34202D36FF0010030BD5C798C4201D008
:102558000833F0E70020F7E70C2370B5044603FBC7
:1025680001054FF08056AC4201D1002070BDD4E97E
:1025780000011F28A26805D8372903D8D6F8B43136
:102588001B6898470C34EEE738B5436818688469C7
:1025980014F010040D4608D14FF08053D3F8D03111
:1025A8001B6998472870204638BD4FF0FF30FBE77D
:1025B80010B54FF080534468D3F8D0312068DB69F8
:1025C8009847236818331A681207FCD410BD43686B
:1025D80019684B68002003F00F0248609000510012
:1025E80001F0080100F0040003F00203084343EA85
:1025F800D2031843704702690B4692E8030083E848
:1026080003000020704707B5002101AAFFF791FFDA
:10261800002805DB019B002219791868FFF79CFF49
:1026280003B05DF804FB08B5FEF79CFD052800D053
:10263800FEE708BD704740B1C368587810F0010044
:102648001EBF1878B0FA80F040097047EFF3118385
:10265800202383F31288BFF36F8FFEE708B5FFF7D7
:10266800F5FF10B54369044633B90020E268537892
:1026780043F00103537010BD98470028F5D0002897
:10268800B8BF4042E368FF28A8BFFF201870EDE7F5
:1026980000F0DDB800F0CDB870474169836843EABF
:1026A800010212F003020FD1C2600269013A01FB74
:1026B800023382689A4201D900207047C2681A60C2
:1026C8004269C3609B1AF4E76FF01500704708B5BC
:1026D8002024EFF3118384F31288BFF36F8FFFF781
:1026E8008BFEF6E7D0E9003213605A600023C0E998
:1026F8000033704708B5FFF7F5FF437B23F002036B
:1027080043730023836008BD10B5EFF311842023C1
:1027180083F31288BFF36F8FFEF732FF84F31188BB
:10272800BFF36F8F10BD10B50146EFF3118420235E
:1027380083F31288BFF36F8F437B13F0280F0AD1FE
:1027480083680BB1FFF7D6FF4B7B23F004034B7371
:102758000846FEF715FF84F31188BFF36F8F10BD8D
:1027680001211838FFF7DFBF38B504460D46FFF7DB
:1027780075F8B5F1FF3F08BFB4F1FF3F02462046A8
:1027880018D000204FF47A7447F6FF730146C2FB55
:102798000431B3F5004F71F100020BD36FF400421E
:1027A8009A4243F6FF728A4126BFD80B40EA41405D
:1027B8006FF0004038BD08B50246FFF7F7F970B171
:1027C800D0E904319B1A61EBE272B3F1004F72F168
:1027D800000104DA002AACBF1846002008BD6FF0DB
:1027E8000040FBE738B50246EFF31185202383F359
:1027F8001288BFF36F8F0368A3B1FFF7D7F90446B8
:102808001046FFF7E5F9844206D1FFF7D7F9FFF73D
:10281800D2FF0021FEF764FB002085F31188BFF387
:102828006F8F38BD6FF01500F7E708B5FFF7CEFAE0
:1028380008BD0A44914200F1FF3300D1704710B53A
:1028480011F8014B03F8014F9142F9D110BD024430
:102858000346934200D1704703F8011BF9E710B50E
:10286800024601448A42134603D01C780132002CE8
:10287800F8D1181A10BDF0B5C3F137070446FFB2F6
:1028880003F01F031046082BE6B233D0102B3ED0BE
:102898006508A40844EA817445EAC1752D194FEA10
:1028A800910242EB5102290941EA02716D1842EB8B
:1028B8001212290A41EA02616D1842EB1222290C10
:1028C80041EA02416D1842EB1242AD1842F1000292
:1028D800EC0844EA4274D10804EB8402A6EB4205F2
:1028E800EDB2092D0CD90134A5F10A0541F1000119
:1028F800EDB212E0E40844EA417406F00705C9089D
:10290800303554EA010200F8015BBCD1F0BD24095E
:1029180044EA017406F00F050909092D84BFED1971
:10292800EDB2EDE701480068704700001803002089
:102938008514000000000000000000007829000055
:1029480000000000B82900000000000098290000DD
:10295800290A0000000000004D0E000000000000E1
:10296800D90900000000000000000000D82900007C
:10297800C82B0000D42A0000F829000066010020B6
:1029880038030020C10B0000000000000000000018
:10299800DB2B0000D82A00001C2A00006801002058
:1029A800140000201D0D00000000000000000000C1
:1029B800E92B0000082B00001C2A00006A010020F7
:1029C80020000020810D0000000000000000000031
:1029D800BB2B000000000000000000006401002084
:1029E80000000000FD0900000000000000000000D9
:1029F800790A0000590B0000690B0000850B0000E4
:102A0800950B0000A50B00008D240000E9240000B0
:042A1800B50B0000FA
:102A1C0091250000B9250000D72500005D0C0000B1
:042A2C00FF25000082
:102A3000000000200000000000000B060200000063
:102A4000442A000000000000AC2B00002600020712
:102A500000000020B42B000022000B117829000098
:102A60001D000000782900001E000000742A0000EC
:102A700003000000BC2A000002000000A42A00009D
:102A8000020100008C2A0000020200001D0000006C
:102A900032000000006000001E0000002F00000057
:102AA000006000001D000000000000000060000049
:102AB0001E0000002F000000006000001D0000004C
:102AC00000000000006000001E0000000000000088
:102AD00000600000FFFFFFFF00B00040006CDC0260
:102AE000E82A000001000000F02A000002000000B7
:102AF0001500000013000000006000201600000018
:102B0000140000000060000000100040006CDC02B7
:102B1000182B000001000000202B00000200000024
:102B20000C0000000F000000006000200D000000FD
:102B30001000000000600000382900003829000063
:102B40006029000068290000782900007829000029
:102B5000656A656D706C6F3A204E75657374726F3F
:102B60002070726F6772616D6120686120696E69A3
:102B7000636961646F207864200A00656A656D701E
:102B80006C6F3A206573746F2073652064656265AD
:102B900072696120656A656375746172206361643E
:102BA0006120736567756E646F200A00464C41535F
:102BB000485F30005352414D5F3000616E74656E66
:102BC0006E615F6D757830006770696F40343030CA
:102BD00032323030300000020682867561727440F5
:102BE00034303030623030300075617274403430CF
:102BF0003030313030300002000103010200036D3B
:102C000061696E002A2A2A20426F6F74696E6720FC
:102C10005A6570687972204F53206275696C642020
:102C200076342E312E302D323334382D67643435DE
:102C3000336662393430373563202A2A2A0A00285D
:102C40006E756C6C29002A666C6F61742A00000036
:102C50009D230000000000003B2400000000000055
:102C60000000000000C2010000010300E02A000093
:102C700000C2010000010300102B00002C00002006
:042C80002C00002004
:102C840078290000250C000000000000EB23000060
:102C940000000000EB23000000000000EB23000014
:102CA40000000000E50D000000000000EB23000020
:102CB40000000000EB23000000000000EB230000F4
:102CC40000000000EB23000000000000EB230000E4
:102CD40000000000EB23000000000000EB230000D4
:102CE40000000000EB23000000000000EB230000C4
:102CF40000000000EB23000000000000EB230000B4
:102D040000000000EB23000000000000EB230000A3
:102D140000000000EB23000000000000EB23000093
:102D240000000000EB23000000000000EB23000083
:102D340000000000EB23000000000000EB23000073
:102D440000000000EB23000000000000EB23000063
:102D540000000000EB23000000000000EB23000053
:102D640000000000EB23000000000000EB23000043
:102D740000000000EB23000000000000EB23000033
:102D840000000000EB23000000000000EB23000023
:102D940000000000EB23000000000000EB23000013
:102DA40000000000EB23000000000000EB23000003
:082DB400000000000000000017
:042DBC0015E015E029
:02000002A0005C
:10FFA80000008001100080FFFDFF5800FF02B9F338
:10FFB800FFFFFFFFFFFFFFFFFFFFFFFFFFFFFFFF49
:10FFC800FFFFFFFFFFFFFFFFFFFFFFFFFFFFFFFF39
:10FFD800C50FFEC5FFFFFFFF00FFFFFF00C5C5FF00
:10FFE800000000FF00000000FFFFFFFFFFFFFFFF12
:08FFF800FFFFFFFFFFFFFFFF09
:04000003000004A154
:00000001FF
